:100000000C9428020C9450020C9450020C94500250
:100010000C9450020C9450020C9450020C94500218
:100020000C9450020C9450020C9450020C94500208
:100030000C9450020C9450020C9450020C945002F8
:100040000C94EB0E0C9450020C9450020C94500241
:100050000C9450020C9450020C9450020C945002D8
:100060000C94FD080C9450024128D441CF830083A6
:100070003041ED846403128141E88385017941CBED
:1000800085392C00340241F7812041EA8200004189
:10009000C0812641C1811141C582353E41C781BE23
:1000A00041B182001B41F281084126810141E08F6C
:1000B0001F1A180A0F064587320A07020705004172
:1000C000E18F0025270510093A784D05180D383ABB
:1000D0001F41B6840A82270041B78107413A815502
:1000E000413681E8412A82000082013F412B820093
:1000F000008200EF4111FCFC4129D4FFFF00000009
:10010000000000000030787830300030006C6C6CFB
:1001100000000000006C6CFE6CFE6C6C00307CC05B
:10012000780CF8300000C6CC183066C600386C3841
:1001300076DCCC76006060C0000000000018306003
:100140006060301800603018181830600000663C9D
:10015000FF3C660000003030FC3030000000000042
:100160000000703060000000FC0000000000000093
:100170000000303000060C183060C0800078CCDC05
:10018000FCECCC780030F030303030FC0078CC0C17
:100190003860CCFC0078CC0C380CCC78001C3C6C63
:1001A000CCFE0C0C00FCC0F80C0CCC78003860C005
:1001B000F8CCCC7800FCCC0C183060600078CCCC4B
:1001C00078CCCC780078CCCC7C0C18700000003057
:1001D0003000303000000030300070306018306087
:1001E000C0603018000000FC00FC00000060301807
:1001F0000C1830600078CC0C18300030007CC6DE63
:10020000DEDEC078003078CCCCFCCCCC00FC66665E
:100210007C6666FC003C66C0C0C0663C00FC6C6648
:1002200066666CFC00FE6268786862FE00FE6268CA
:10023000786860F0003C66C0C0CE663E00CCCCCC96
:10024000FCCCCCCC0078303030303078001E0C0C38
:100250000CCCCC7800E6666C786C66E600F06060EA
:10026000606266FE00C6EEFED6C6C6C600C6E6F6EC
:10027000DECEC6C600386CC6C6C66C3800FC6666E4
:100280007C6060F00078CCCCCCDC781C00FC66662E
:100290007C786CE60078CCE0381CCC7800FCB4307C
:1002A0003030307800CCCCCCCCCCCCFC00CCCCCC1E
:1002B000CCCC783000C6C6C6D6FEEEC600C6C66C2C
:1002C000386CC6C600CCCCCC7830307800FECC98E8
:1002D0003062C6FE007860606060607800C06030A8
:1002E000180C060200781818181818780010386CC6
:1002F000C60000000000000000000000FF303018C1
:1003000000000000000000780C7CCC7600E0607CEF
:10031000666666BC00000078CCC0CC78001C0C0C73
:100320007CCCCC7600000078CCFCC07800386C60C7
:10033000F06060F000000076CCCC7C0CF8E0606CE3
:10034000766666E60030007030303078001800784D
:10035000181818D870E060666C786CE60070303061
:1003600030303078000000ECFED6C6C6000000F841
:10037000CCCCCCCC00000078CCCCCC78000000DC1D
:1003800066667C60F0000076CCCC7C0C1E0000D849
:100390006C6C60F00000007CC0780CF80010307CC1
:1003A00030303418000000CCCCCCCC76000000CC2F
:1003B000CCCC7830000000C6C6D6FE6C000000C66B
:1003C0006C386CC6000000CCCCCC7C0CF80000FC77
:1003D000983064FC001C3030E030301C00181818D5
:1003E0000018181800E030301C3030E00076DC00D7
:1003F000000000000010386CC6C6C6FE00000000F9
:1004000000240027002A0000000000250028002BFF
:1004100000040404040404040402020202020203AD
:1004200003030303030102040810204080010204B7
:10043000081020010204081020000000080002013A
:100440000000030407000000000000000000461741
:1004500011241FBECFEFD8E0DEBFCDBF23E0A0E95F
:10046000B2E001C01D92A23FB207E1F712E0A0E0A6
:10047000B1E0E6E8F7E302C005900D92A039B107BC
:10048000D9F712E0C8E2D2E004C02197FE010E9431
:10049000AF19C732D107C9F70E947D0F0C94C11B59
:1004A0000C940000089580E090E00895CF93DF93CE
:1004B0001F92CDB7DEB769832091A4022223D1F029
:1004C0002091C602203240F021E030E0FC0133836D
:1004D000228380E090E015C08091A502E82FF0E033
:1004E000EA55FD4F998190838F5F8093A502809399
:1004F000C60205C061E0CE0101960E942B0A81E090
:1005000090E00F90DF91CF910895CF92DF92EF921C
:10051000FF920F931F93CF93DF93F62EEC01CF5AE8
:10052000DF4F48816C0120E1C20ED11C84E1489F5D
:10053000A00111244C545F4FEE24E3940FEF1FEF02
:100540002EE331E068EC70E0C6010E94FA0A25E76C
:10055000F21205C08881882351F0815007C084E6DB
:10056000F81205C08881823011F08F5F888348813E
:1005700024E1429FA00111244C545F4FEE24E394E8
:1005800000E010E02EE331E068EC70E0C6010E946C
:10059000FA0ADF91CF911F910F91FF90EF90DF90BA
:1005A000CF900895CF92EF92FF920F931F93CF9326
:1005B000DF93EC01262F6A3081F48EAD9FAD9BAFA7
:1005C0008AAF2CA92F778CAD9DAD38E0239F800D8D
:1005D000911D11249DAF8CAF47C0862F8B7F893032
:1005E00009F442C06AAD7BAD203219F46115710582
:1005F000D9F1E881F981E8ACF9AC0EA91FA94CAD9D
:100600005DAD0488F589E02DCCA8CE010995BC012B
:100610009BAF8AAF8DA9882339F12CA92F77822F20
:1006200090E048EF4203900111244E815F81420F18
:10063000531F46175707C4F44EAD5FAD5BAF4AAFCB
:1006400043E0880F991F4A95E1F74CAD5DAD840FEB
:10065000951F9DAF8CAF48855985240F351F2817EE
:10066000390714F41DAE1CAE81E090E0DF91CF910C
:100670001F910F91FF90EF90CF900895CF92EF923E
:10068000FF920F931F93DC01ED91FC910288F38997
:10069000E02D09951F910F91FF90EF90CF90089555
:1006A0002F923F924F925F926F927F928F929F9282
:1006B000AF92BF92CF92DF92EF92FF920F931F9370
:1006C000CF93DF9300D01F92CDB7DEB79B838A8391
:1006D000480188E0280290011124D901A350B040BC
:1006E0005D01BC2DBF77CB2EEA81FB81868197818E
:1006F000F1E0FB1708F463C06B0128E0C20ED11CC7
:100700008C159D050CF46EC0AA81BB811896ED91E5
:10071000FC9119979A01285F3F4FE217F3070CF4F9
:1007200061C0AA81BB81ED91FC9111978A01095F9B
:100730001F4F9B01295F3F4F0284F385E02DCD01C0
:100740000995AA81BB81ED91FC9111970484F585EF
:10075000E02DCD0109958501085F1F4FF5014490FB
:10076000FFEFAF1ABF0A98E0692E712C20E8522ED5
:10077000AA81BB81ED91FC911197852D842106847E
:10078000F785E02D882319F0B401CD0103C0B7012E
:100790008A819B8109955694B1E06B1A710841F7E3
:1007A000A016B106D9F6AA81BB81ED91FC911197F3
:1007B0000088F189E02DCD010995C60176C0B8E029
:1007C000CB9E800111243B01600E711E861597059A
:1007D0004CF0040F151FEA81FB812085318520171D
:1007E000310714F4019661C0AA81BB81ED91FC919F
:1007F0001197015011090284F385E02D93012150D6
:100800003109CD010995AA81BB81ED91FC91119728
:100810000484F585E02DCD0109952501B8E04B0E46
:10082000511CF5012490FFEFAF1ABF0A3C2C08E0E1
:1008300010E080E8D82E8D2D82212C2DA1F0AA81E8
:10084000BB81ED91FC9111970684F785E02DB401F1
:10085000CD01298309952981215089F7D69401502A
:10086000110949F710C0AA81BB81ED91FC91119744
:100870000684F785E02DB701CD01298309952981EB
:10088000215089F7EBCF3A943110D1CFA414B5049D
:1008900009F0C7CFAA81BB81ED91FC911197008827
:1008A000F189E02DCD010995C3010F900F900F90B4
:1008B000DF91CF911F910F91FF90EF90DF90CF903C
:1008C000BF90AF909F908F907F906F905F904F9070
:1008D0003F902F900895EF92FF920F931F93CF9325
:1008E000DF93EC018E819F81681779075CF588851D
:1008F00099854817590734F57901E881F98102840F
:10090000F385E02D8A019B01CE010995E881F981EB
:100910000484F585E02DCE010995E881F9810684EE
:10092000F785E02DB701CE010995E881F9810088AE
:10093000F189E02DCE01DF91CF911F910F91FF90B2
:10094000EF900994DF91CF911F910F91FF90EF905D
:1009500008958091A00290E020919F02821B91094E
:10096000089585ED8093BC008091BC0084FDFCCF90
:100970001092A30208950895E0919F028091A00231
:10098000E81730F4F0E0E25FFC4F808190E00895DA
:100990008FEF9FEF089590919F028091A00298178A
:1009A00050F4E92FF0E0E25FFC4F208130E09F5FE0
:1009B00090939F0202C02FEF3FEFC9010895AF92BD
:1009C000BF92CF92DF92EF92FF920F931F93CF933C
:1009D000DF93EC015B017A0169016AE20E94690F11
:1009E000B501CE010E94440FB601CE010E94440F12
:1009F0006BE2CE010E94690FB701CE010E94440F45
:100A0000B801CE01DF91CF911F910F91FF90EF9030
:100A1000DF90CF90BF90AF900C94440F0F931F9333
:100A2000CF93DF93EC016930710519F06A357105D8
:100A300071F48AE590E09D838C8380EF90E09F8342
:100A40008E8380E491E09987888718E434C062310E
:100A5000710519F0643B710571F484EB90E09D839E
:100A60008C8380E491E09F838E8380EF90E0998770
:100A7000888718E320C06B31710521F07E7F6E30CE
:100A8000710571F48EE091E09D838C8380EF90E09E
:100A90009F838E8380E491E09987888718E80BC054
:100AA0001D821C8280E491E09F838E8380EF90E022
:100AB0009987888718EE66E3CE010E94690F612F3F
:100AC000CE010E94350FE881F98108851985015012
:100AD00011092E813F81215031090284F385E02DD7
:100AE00040E050E060E070E0CE010995DF91CF91E9
:100AF0001F910F910895FC011382128215821482B6
:100B000080E491E09783868380EF90E091878087EF
:100B1000178616861586148613861286178A168AF5
:100B2000158A148A138A128A118A108A10AA11AAA5
:100B300012AA13AA81E084AB85AB17AA16AA8FEF7D
:100B40009FEF91AF80AF17AE16AE15AE14AE13AED9
:100B500012AE8AE091E09183808308958EBD0000FB
:100B60000DB407FEFDCF8EB508958F929F92AF9280
:100B7000BF92CF92DF92EF92FF920F931F93CF938A
:100B8000DF93EC01690158012E813F8162177307E1
:100B90001CF0B9016150710988859985481759077A
:100BA0001CF0AC0141505109FB01EC0DFD1DE21799
:100BB000F3071CF06901C61AD70A9A012A0D3B1DDA
:100BC000281739071CF05C01A41AB50AE881F981DD
:100BD0008A010A0D1B1D015011099B012C0D3D1DA1
:100BE000215031090284F385E02DCE010995E88179
:100BF000F9810484F585E02DCE0109959501D60192
:100C00000E94A0194B015C01E881F98181149104D3
:100C1000A104B10461F00684F785E02DB701CE018F
:100C2000099581E0881A9108A108B108EDCF0088E4
:100C3000F189E02DCE01DF91CF911F910F91FF90AF
:100C4000EF90DF90CF90BF90AF909F908F900994DE
:100C50002F923F924F925F926F927F928F929F92CC
:100C6000AF92BF92CF92DF92EF92FF920F931F93BA
:100C7000CF93DF93CDB7DEB728970FB6F894DEBFDA
:100C80000FBECDBF4C016B0158874F8359016217CE
:100C90007307A1F40417150744F404271527402708
:100CA000512758874F83042715272F813885021B2A
:100CB000130B0F5F1F4F21E030E015C04F815885A7
:100CC00040175107B9F42617370734F4A626B7267C
:100CD000CA24DB24AC24BD2495012C193D092F5FC7
:100CE0003F4F01E010E04F815885B601C4010E94DA
:100CF000B505A0C0FC01268137816217730724F077
:100D00006901F1E0CF1AD108F401808591854F8106
:100D100058854817590724F0FC013197F887EF836D
:100D2000A216B30624F05901F1E0AF1AB108081772
:100D300019071CF08C010150110935016C187D0850
:100D400028012F813885421A530A77FE08C0719412
:100D5000619471084FEF5FEF5A83498304C081E0CB
:100D600090E09A83898357FE08C0519441945108BA
:100D7000EFEFFFEFFC83EB8304C021E030E03C8326
:100D80002B83A301440F551F5E834D831201220C58
:100D9000331C97014F815885B601C4010E946B0432
:100DA000461457041CF5810106191709CA14DB04FF
:100DB00009F440C017FD0CC08F819885EB81FC8140
:100DC0008E0F9F1F98878F832D813E81021B130BEF
:100DD00049815A81C40ED51E020D131D97014F8102
:100DE0005885B601C4010E946B04E0CFAD80BE807F
:100DF000A418B5088F81988580179107D9F0B7FCA2
:100E000006C089819A81C80ED91EA218B308EF8145
:100E1000F8852B813C81E20FF31FF887EF834D812A
:100E20005E81A40EB51E9701AF01B601C4010E94F8
:100E30006B04E0CF28960FB6F894DEBF0FBECDBF8F
:100E4000DF91CF911F910F91FF90EF90DF90CF90A6
:100E5000BF90AF909F908F907F906F905F904F90DA
:100E60003F902F9008958F929F92AF92BF92EF92F2
:100E7000FF920F931F93CF93DF93EC017B01E881E7
:100E8000F98108851985015011092E813F81215072
:100E900031090284F385E02D40E050E060E070E02D
:100EA0000995E881F9810484F585E02DCE01099545
:100EB000AE81BF81288539850E94A0194B015C0154
:100EC00083E0B694A794979487948A95D1F7E881A4
:100ED000F98181149104A104B10409F444C0068489
:100EE000F785E02DB701CE010995E881F9810684E7
:100EF000F785E02DB701CE010995E881F9810684D7
:100F0000F785E02DB701CE010995E881F9810684C6
:100F1000F785E02DB701CE010995E881F9810684B6
:100F2000F785E02DB701CE010995E881F9810684A6
:100F3000F785E02DB701CE010995E881F981068496
:100F4000F785E02DB701CE010995E881F981068486
:100F5000F785E02DB701CE01099581E0881A910847
:100F6000A108B108B4CF0088F189E02DCE01DF914E
:100F7000CF911F910F91FF90EF90BF90AF909F90F6
:100F80008F900994CF93C62F81E08093A40282E5CD
:100F9000809352031092A5021092C602642F83E53B
:100FA00093E00E9456026C2F83E593E00E94560264
:100FB0008091C602813208F045C09091A302911140
:100FC000FCCF92E09093A30291E09093A2029FEF56
:100FD000909351031092500380934F03A6EAB2E01E
:100FE0002FE233E0F9019E2F921B981718F49D9180
:100FF0009193F9CF10922E0380912E03846A8093EF
:101000002E038091A102813061F41092A10280919F
:101010002E038093BB008091BC0083FDF8CF85EC4C
:1010200001C085EE8093BC008091A3028230E1F381
:10103000809151038F3F31F080915103803211F044
:10104000809151031092A5021092C6021092A40240
:101050006AE070E080E090E0CF910C94B10ECF9206
:10106000DF92FF920F931F93CF93DF93CDB7DEB73D
:101070002C970FB6F894DEBF0FBECDBF8C018091C8
:10108000A3028111FCCF81E08093A3028093A2028E
:101090009FEF909351031092500395E090934F036C
:1010A00080932E0380912E03846A80932E03809177
:1010B000A102813061F41092A10280912E038093ED
:1010C000BB008091BC0083FDF8CF85EC01C085EEAC
:1010D0008093BC008091A3028130E1F380915003A2
:1010E000863018F4F090500302C076E0F72EAFE29D
:1010F000B3E02EE033E0F9018E2F821B8F1518F438
:101100008D918193F9CF10929F02F092A002CE01AF
:1011100001966C0180919F02F81649F083E593E0F7
:101120000E94CB04F601819391936F01F3CF8981E3
:101130009A81F801918380838B819C819383828340
:101140008B859C859C013595279535952795A9011B
:10115000437055272D813E81220F331F220F331FED
:10116000242B352B358324839C0174E035952795FA
:101170007A95E1F7A901437055272F813885220F11
:10118000331F220F331F242B352B378326839C01DB
:10119000B6E035952795BA95E1F7A9014370552733
:1011A00029853A85220F331F220F331F242B352B1D
:1011B000318720879C0121703327F1E02F27F80128
:1011C0003387228721E030E081FF02C020E030E059
:1011D000F8013587248740E060E0C8012C960FB6FF
:1011E000F894DEBF0FBECDBFDF91CF911F910F915D
:1011F000FF90DF90CF900C94C2071F920F920FB612
:101200000F9211242F933F934F935F936F937F938C
:101210008F939F93AF93BF93EF93FF938091B90008
:10122000887F803609F49CC068F5883209F45BC079
:1012300090F4803109F454C038F4882309F4F6C0DE
:10124000883009F44DC0F6C0883109F44CC08032B2
:1012500009F45DC0EFC0803409F468C048F48033FD
:1012600009F455C0883309F0E5C080935103D8C014
:10127000803509F44FC0883509F45DC0883409F021
:10128000D9C0D6C0883909F4C7C0A8F4883709F492
:1012900067C038F4883609F463C0803709F460C049
:1012A000C9C0883809F4B8C0803909F45FC08038F3
:1012B00009F0C0C05BC0803B09F486C038F4803AB6
:1012C00009F466C0883A09F47FC0B4C0803C09F4D0
:1012D000A7C0883C09F4A4C0883B09F48AC0AAC00E
:1012E00080912E0310C09091500380914F03981766
:1012F00070F5E091500381E08E0F80935003F0E091
:10130000E15DFC4F80818093BB0085EC86C08093BB
:1013100051038EC0E091500381E08E0F8093500303
:101320008091BB00F0E0E15DFC4F80839091500321
:1013300080914F036EC0E091500381E08E0F809347
:1013400050038091BB00F0E0E15DFC4F8083809111
:10135000A20281116DC081E08093A10284EA61C084
:1013600083E08093A30210920D03CFCF80910D03F1
:10137000803208F051C0E0910D0381E08E0F809320
:101380000D038091BB00F0E0E351FD4F8083BDCFA2
:1013900085EC8093BC001092A30280910D038032F3
:1013A00030F4E0910D03F0E0E351FD4F10826091C5
:1013B0000D0370E0E091EB02F091EC028DEE92E013
:1013C000099510920D0336C084E08093A302109219
:1013D000EA021092E902E091E702F091E802099531
:1013E0008091E902811105C081E08093E9021092A9
:1013F000C702E091EA0281E08E0F8093EA02F0E0FA
:10140000E953FD4F80818093BB009091EA02809167
:10141000E902981708F479CF85E88093BC000AC0E8
:1014200085EC8093BC001092A30204C0109251037B
:101430000E94B104FF91EF91BF91AF919F918F9165
:101440007F916F915F914F913F912F910F900FBEC0
:101450000F901F9018954091E902262F30E0240F3D
:10146000311D21323105DCF42091A3022430C9F46E
:10147000FC0180E090E0861758F43091E902219158
:10148000DC01A953BD4FA30FB11D2C930196F3CFDF
:101490008091E902680F6093E90280E0089581E09D
:1014A000089582E00895CF92DF92EF92FF920F931A
:1014B0001F93CF93DF937C01262F972F8A01809172
:1014C000A402882391F0C62FD72F6E01C40ED51E1B
:1014D000CC15DD0571F06991D701ED91FC9101907A
:1014E000F081E02DC7010995F3CF642F822F0E9470
:1014F0002B0AC801DF91CF911F910F91FF90EF90C0
:10150000DF90CF9008950895CF92DF92EF92FF92EF
:101510000F931F93CF93DF936C017A018B01C0E08F
:10152000D0E0CE15DF0589F0D8016D918D01D6018F
:10153000ED91FC910190F081E02DC6010995892B78
:1015400011F47E0102C02196ECCFC701DF91CF914B
:101550001F910F91FF90EF90DF90CF9008953FB7CC
:10156000F8948091E9039091EA03A091EB03B09184
:10157000EC0326B5A89B05C02F3F19F00196A11DCD
:10158000B11D3FBFBA2FA92F982F8827820F911D19
:10159000A11DB11DBC01CD0142E0660F771F881F60
:1015A000991F4A95D1F708955F9A08950E94AC1B40
:1015B000CF93DF931F92CDB7DEB7872F2B9A2D984D
:1015C0009CB59F7B9CBD2D9A9CB590649CBD698306
:1015D0000E94AE052B9A2D989CB59F7B9CBD2D9AA1
:1015E0009CB590649CBD6981862F0F90DF91CF914F
:1015F0000C94AE056F927F928F929F92AF92BF92A2
:10160000CF92DF92EF92FF920F931F93CF93DF93CE
:101610005C014A013801DE2CE90129912223A9F05D
:10162000D501ED91FC910288F389E02DCD2CEE24BB
:10163000EA94FE2C8301A401C5010995BC01F501C2
:10164000868197818617970744F7CB01DF91CF9169
:101650001F910F91FF90EF90DF90CF90BF90AF90D0
:101660009F908F907F906F900895EF920F931F93AC
:10167000CF93C82F4091610388E2489FA0011124B5
:101680004C595F4FEE24E3940FEF1FEF2EE331E050
:1016900064E670E082E693E00E94FA0A90916103AA
:1016A000C53721F4992349F0915005C0C43629F477
:1016B000923019F09F5F909361034091610388E23B
:1016C000489FA00111244C595F4FEE24E39400E0A1
:1016D00010E02EE331E064E670E082E693E00E94E1
:1016E000FA0ACF911F910F91EF900895EF920F9307
:1016F0001F931092600310925F036FEF7FEF82E6FB
:1017000093E00E94330782E0E82E00E010E028E733
:1017100032E048E250E06EE170E082E693E00E9441
:10172000FA0AEE24E39429E832E044E650E062E865
:1017300070E082E693E00E94FA0A2AE431E04CE885
:1017400050E062E870E082E693E00E94FA0A26ED3B
:1017500031E044EB50E062E870E082E693E00E9402
:10176000FA0A80915F0390916003892B31F480E045
:101770001F910F91EF900C94350B1F910F91EF90EB
:1017800008952F923F924F925F926F927F928F9225
:101790009F92AF92BF92CF92DF92EF92FF920F9300
:1017A0001F93CF93DF93CDB7DEB768970FB6F8944A
:1017B000DEBF0FBECDBF988F8F8B3B015A016801F2
:1017C0004B01820E931EAB014D5F5F4F5E834D83D5
:1017D000285031096C5F7F4F78010AE010E0A501C5
:1017E0000E94B505B5016D5F7F4F7A87698704E078
:1017F00010E024E030E0AB01B3018F89988D0E94A6
:10180000B505140174E0271A310824E030E0498559
:101810005A85B1018F89988D0E94B505C50106963C
:10182000988B8F87E985FA85FA83E9832DEF3FEF5F
:1018300038872F8323E0422E512C1C821B82A30168
:101840004A195B095A8B498B3C8A2B8A9E8B8D8B5C
:10185000760109811A812D813E81A801B90164199F
:1018600075097C876B878F89988D0E9428068984EB
:101870009A848418950884012D813E81A401898968
:101880009A89E981FA818E0F9F1F9E878D87BC01FF
:101890008F89988D0E94280609811A819101A801DB
:1018A0005101A40CB51CB5018F89988D0E942806A2
:1018B0006B887C882B813C81620E731E84019101B0
:1018C000A401B3018F89988D0E9428068D889E8877
:1018D0004B815C81840E951E84019101A401B501A8
:1018E0008F89988D0E942806AF84B888A40CB51CF7
:1018F00085019101A501B3018F89988D0E94280669
:1019000084012D813E81A4016B857C858F89988D12
:101910000E94280685012D813E81A5016D857E8569
:101920008F89988D0E9428068B819C8101962F813A
:1019300038856B817C81260F371FF901E80FF91F6D
:10194000F887EF83F7FD0CC0F1E04F1A51082F81A3
:10195000388524193509A9014419550958874F8339
:1019600069817A81615071097A8369839C838B8351
:10197000481659060CF06CCF68960FB6F894DEBF87
:101980000FBECDBFDF91CF911F910F91FF90EF90D0
:10199000DF90CF90BF90AF909F908F907F906F908F
:1019A0005F904F903F902F9008954F925F926F926B
:1019B0007F928F929F92AF92BF92CF92EF92FF92BF
:1019C0000F931F93CF93DF935C01CB014A01390141
:1019D000C0E0D0E0F30124813581C217D30740F580
:1019E000D501ED91FC9142885388F301A081B1812A
:1019F000109729F41092ED03ADEEB3E002C0AC0FE6
:101A0000BD1FCC24C394EE24EA94FE2C00E010E029
:101A10002C91A401BC01C501F2010995D5011696CE
:101A20002D913C9117972817390714F02196D2CFA2
:101A3000DF91CF911F910F91FF90EF90CF90BF90CA
:101A4000AF909F908F907F906F905F904F90089590
:101A5000AF92BF92CF92DF92EF92FF920F931F93BC
:101A6000CF93DF93EC016B015A01E12CF12C08E2DA
:101A700010E021E030E00E94B505A501495D5F4F0F
:101A800001E010E02EE630E0B601CE010E94B5057F
:101A9000B60163597F4F08E210E021E030E0A50174
:101AA000CE010E94B50501E010E02EE630E0A50170
:101AB000B601CE010E94B505DF91CF911F910F9124
:101AC000FF90EF90DF90CF90BF90AF9008950F936D
:101AD0001F93CF93DF938C01EB01FC0180819181F7
:101AE0000097B1F0688179816115710579F04281C3
:101AF00053812C813D814217530740F00E94BA1B4D
:101B00008C819D81F8019583848313C00E944A1AB9
:101B100088819981F801918380838A819B81938355
:101B200082838C819D8195838483198218821B8294
:101B30001A821D821C82DF91CF911F910F9108950F
:101B40000F931F93CF93DF93EC01888199810097C6
:101B500029F02A813B812617370788F48B016F5FB4
:101B60007F4F0E94E21A009761F0998388831B835C
:101B70000A832C813D81232B11F4FC01108281E02A
:101B800001C080E0DF91CF911F910F910895CF9315
:101B9000DF93EC0188819981009711F00E944A1A25
:101BA000198218821D821C821B821A82DF91CF91BA
:101BB0000895EF92FF920F931F93CF93DF93EC0161
:101BC0007B018A01BA010E94A00D811104C0CE01DF
:101BD0000E94C70D07C01D830C83B70188819981BE
:101BE0000E94BA1BCE01DF91CF911F910F91FF9000
:101BF000EF900895FB01DC0111961C921E92139642
:101C00001C921E92129715961C921E92149786177C
:101C1000970749F0608171816115710521F0448158
:101C200055810C94D90D0895FC0111821082138204
:101C30001282158214826115710551F0FB01019029
:101C40000020E9F73197AF01461B570B0C94D90DD3
:101C5000089590E0FC01E75CFB4F3491FC01EB5DE3
:101C6000FB4F2491FC01EF5EFB4FE491EE2309F45E
:101C70003BC0332339F1333091F038F43130A9F0DF
:101C8000323001F584B58F7D12C0373091F0383095
:101C9000A1F03430B9F4809180008F7D03C0809131
:101CA00080008F77809380000DC084B58F7784BDCE
:101CB00009C08091B0008F7703C08091B0008F7D04
:101CC0008093B000F0E0EE0FFF1FE95FFB4FA5919E
:101CD000B4918FB7F894EC91611103C020952E2335
:101CE00001C02E2B2C938FBF0895CF93DF9390E0EC
:101CF000FC01EB5DFB4F2491FC01EF5EFB4F8491F7
:101D0000882361F190E0880F991FFC01E350FC4F9C
:101D1000C591D491FC01E95FFB4FA591B49161118C
:101D200009C09FB7F8948881209582238883EC911D
:101D30002E230BC0623061F49FB7F8943881822F54
:101D4000809583238883EC912E2B2C939FBF06C014
:101D50008FB7F894E8812E2B28838FBFDF91CF9126
:101D600008958F929F92AF92BF92CF92DF92EF929F
:101D7000FF926B017C010E94AF0A4B015C01C11410
:101D8000D104E104F104F1F00E94AF0ADC01CB01BF
:101D900088199909AA09BB09883E9340A105B10594
:101DA00070F321E0C21AD108E108F10888EE880E2C
:101DB00083E0981EA11CB11CC114D104E104F104FC
:101DC00019F7DDCFFF90EF90DF90CF90BF90AF90ED
:101DD0009F908F9008951F920F920FB60F9211242B
:101DE0002F933F938F939F93AF93BF938091E5037E
:101DF0009091E603A091E703B091E8033091E403EA
:101E000023E0230F2D3720F40196A11DB11D05C03D
:101E100026E8230F0296A11DB11D2093E4038093B1
:101E2000E5039093E603A093E703B093E803809162
:101E3000E9039091EA03A091EB03B091EC030196C2
:101E4000A11DB11D8093E9039093EA03A093EB03D6
:101E5000B093EC03BF91AF919F918F913F912F91E0
:101E60000F900FBE0F901F901895862F5F982B9A9A
:101E70002D989CB59F7B9CBD2D9A9CB590649CBD74
:101E80000E94AE055F9A0895CF93DF931F92CDB75E
:101E9000DEB7872F5F982B9A2D989CB59F7B9CBDB2
:101EA0002D9A9CB590649CBD69830E94AE052B9AC7
:101EB0002D989CB59F7B9CBD2D9A9CB590649CBD34
:101EC0006981862F0E94AE055F9A0F90DF91CF91B6
:101ED0000895862F5F982B982D989CB59F7B9CBD6D
:101EE0002D9A9CB590649CBD0E94AE055F9A0895A2
:101EF0006CE20E94690F5F980895CF93DF93CDB78E
:101F0000DEB7C552D2400FB6F894DEBF0FBECDBFCC
:101F1000789484B5826084BD84B5816084BD85B5C4
:101F2000826085BD85B5816085BD80916E008160D0
:101F300080936E0010928100809181008260809376
:101F40008100809181008160809381008091800078
:101F50008160809380008091B10084608093B100A3
:101F60008091B00081608093B00080917A0084609D
:101F700080937A0080917A00826080937A008091C9
:101F80007A00816080937A0080917A0080688093E3
:101F90007A001092C10010929F021092A00210923B
:101FA000A5021092C6021092A30281E08093A202C1
:101FB0001092A10261E082E10E94290E61E083E1BA
:101FC0000E94290E8091B9008E7F8093B900809184
:101FD000B9008D7F8093B90088E48093B80085E4D0
:101FE0008093BC0040EF65E581E992E00E94C20762
:101FF0004BEF60E081E992E00E94C20781E992E044
:102000000E942F0861E088E00E94750E289861E028
:1020100089E00E94750E61E087E00E94750E61E024
:102020008DE00E94750E61E08BE00E94750E60E00D
:102030008CE00E94750E29985F9A61E086E00E940C
:10204000750E5E9A1092E3038CB5837F8CBD8CB5C0
:102050008F7D8CBD1FB7F89480919002811127C0AD
:10206000EBE1F4E08491EFE2F4E09491E82FF0E00A
:10207000EE0FFF1FE350FC4FA591B491EC91E923C3
:1020800021F461E08AE00E94290E61E08AE00E946A
:10209000750E8CB580618CBD8CB580648CBD61E0A3
:1020A0008DE00E94750E61E08BE00E94750E8091BC
:1020B00090028F5F809390021FBF8CB58C7F8160F0
:1020C0008CBD8DB581608DBD5F9A289862E370E00C
:1020D00080E090E00E94B10E289A68E770E080E00E
:1020E00090E00E94B10EE8E6F0E07F012FEFE21AE7
:1020F000F20A64916F3FB1F1862F807C8038B9F08D
:10210000803C49F1803411F0F701EFCF162F1F7397
:102110006F01012FFFEFCF1ADF0A0023C9F0F6018C
:10212000649183EA93E00E94690F0150F3CF162F68
:102130001F736F01012FFFEFCF1ADF0A002341F059
:10214000F601649183EA93E00E94350F0150F3CFCA
:10215000E10EF11CD9CF6F7370E080E090E00E9437
:10216000B10ED2CF60E070E083EA93E00E943307C3
:102170008CB58C7F8CBD8DB58E7F8DBD61E089E087
:102180000E94750EE2E4F4E0E491E33019F150F4BA
:10219000E130D1F0E230E1F584B5806284BD8FE7B3
:1021A00088BD3AC0E73011F1E83049F1E43081F5FB
:1021B000809180008062809380008FE790E0909310
:1021C0008B0080938A0028C084B5806884BD8FE727
:1021D00087BD22C0809180008068809380008FE757
:1021E00090E0909389008093880016C08091B000A1
:1021F00080688093B0008FE78093B3000DC080911A
:10220000B00080628093B0008FE78093B40004C078
:1022100060E089E00E94290E0E94760B5E0123E0B7
:10222000A20EB11C4E0182E0881A8EEF980A72E16C
:10223000C72E72E0D72ECC0EDD1E9FEFC91AD90A29
:1022400081E992E00E942F0880919302909194027C
:102250008639910544F080915F0390916003892B4A
:1022600071F485E70AC08C3491054CF480915F03CA
:1022700090916003892B19F484E60E94350B8091BC
:102280009D0290919E02892B09F4DBC580915F032A
:1022900090916003892B09F092C080916103813095
:1022A00009F449C008F444C0823009F088C06FEFD7
:1022B0007FEF82E693E00E94330752E0E52E00E0D4
:1022C00010E02EEC31E048E250E06EE170E082E692
:1022D00093E00E94FA0AEE24E3942EED31E044E606
:1022E00050E06CE370E082E693E00E94FA0A2DEE83
:1022F00031E042E850E06CE370E082E693E00E9457
:10230000FA0A23E032E040EA50E06CE370E082E653
:1023100093E00E94FA0A2FE132E04EEB50E06CE3CA
:1023200070E082E693E00E94FA0A83E090E043C006
:1023300081E090E040C06FEF7FEF82E693E00E9483
:10234000330762E0E62E00E010E022E431E048E2EC
:1023500050E069E170E082E693E00E94FA0AEE2420
:10236000E39424E531E044E650E065E070E082E685
:1023700093E00E94FA0A29E731E04CE850E065E07A
:1023800070E082E693E00E94FA0A2BE931E040EA2D
:1023900050E065E070E082E693E00E94FA0A29EBE3
:1023A00031E04AEA50E065E070E082E693E00E94A6
:1023B000FA0A82E090E09093600380935F0380913B
:1023C0005F0390916003019709F04AC58EE0D50143
:1023D0001D928A95E9F7CE0141960E947B0564968D
:1023E0001FAE64976DE472E0CE018B5A9F4F0E943E
:1023F000140E55245394A9965FAEA9976DE472E02C
:10240000CE0186599F4F0E94140E80E090E0AAE70B
:10241000B3E4C358DF4F88839983AA83BB83CD5726
:10242000D040CF57DF4F1882C158D0408E010E5791
:102430001F4F94E1492EF801242D11922A95E9F7B6
:102440006DE472E0CE018D579F4F0E94140E3E0145
:1024500086E9680E711CD301E42D1D92EA95E9F717
:102460006DE472E0CE0189569F4F0E94140EFE016A
:10247000E655FF4FDF01242D1D922A95E9F76DE403
:1024800072E0CE0185559F4F0E94140EFE01E2546A
:10249000FF4FDF01242D1D922A95E9F76DE472E0CC
:1024A000CE0181549F4F0E94140EFE01EE52FF4F49
:1024B000DF01242D1D922A95E9F76DE472E0CE012B
:1024C0008D529F4F0E94140EFE01EA51FF4FDF0113
:1024D000242D1D922A95E9F76DE472E0CE01895111
:1024E0009F4F0E94140EFE01E650FF4FDF01242D86
:1024F0001D922A95E9F76DE472E0CE0185509F4F59
:102500000E94140EFE01E25FFE4FDF01242D1D929A
:102510002A95E9F76DE472E0CE01815F9E4F0E943B
:10252000140EFE01EE5DFE4FDF01242D1D922A9553
:10253000E9F76DE472E0CE018D5D9E4F0E94140EAE
:10254000FE01EA5CFE4FDF01242D1D922A95E9F77A
:102550006DE472E0CE01895C9E4F0E94140EFE0174
:10256000E65BFE4FDF01242D1D922A95E9F76DE40D
:1025700072E0CE01855B9E4F0E94140EFE01E25A6E
:10258000FE4FDF01242D1D922A95E9F76DE472E0DC
:10259000CE01815A9E4F0E94140EFE01EE58FE4F4E
:1025A000DF01242D1D922A95E9F76DE472E0CE013A
:1025B0008D589E4F0E94140EFE01EA57FE4FDF0118
:1025C000242D1D922A95E9F76DE472E0CE0189571A
:1025D0009E4F0E94140EFE01E656FE4FDF01242D91
:1025E0001D922A95E9F76DE472E0CE0185569E4F63
:1025F0000E94140EFE01E255FE4FDF01242D1D92B4
:102600002A95E9F76DE472E0CE0181559E4F0E9454
:10261000140EFE01EE53FE4FDF01242D1D922A956C
:10262000E9F76DE472E0CE018D539E4F0E94140EC7
:10263000FE01EA52FE4FDF01242D1D922A95E9F793
:102640006DE472E0CE0189529E4F0E94140EFE018D
:10265000E651FE4FDF01242D1D922A95E9F76DE426
:1026600072E0CE0185519E4F0E94140ED401E42DDC
:102670001D92EA95E9F76DE472E0CE0181509E4F1C
:102680000E94140E49E050E060E372E0CE018D57E5
:102690009F4F0E94D90DD8011C92C757DF4F188257
:1026A000C958D04024E1E22EF12CC657DF4FF98201
:1026B000E882CA58D04005E010E0C457DF4F1983C4
:1026C0000883CC58D040C257DF4F19830883CE58B7
:1026D000D040C057DF4F19830883C059D040CE5631
:1026E000DF4F19830883C259D040CC56DF4F19837E
:1026F0000883C459D04048E050E06AE372E0CE015C
:1027000089569F4F0E94D90DF3015082C356DF4F67
:102710005882CD59D040C256DF4FF982E882CE5957
:10272000D040C056DF4F19830883C05AD040CE55E1
:10273000DF4F19830883C25AD040CC55DF4F19832D
:102740000883C45AD040CA55DF4F19830883C65A3C
:10275000D040C855DF4F19830883C85AD0406496CB
:102760006FAD6497469EB001112401E010E00C0F9C
:102770001D1F060F171FF801EF57FF4F8081CE5E18
:10278000DD4F8883C251D240B8016E577F4FC601DA
:102790000E94FA0DF801E857FF4F8081C75EDD4FB8
:1027A0008883C951D240319680819181C65EDD4FC8
:1027B00099838883CA51D240329680819181C45EC8
:1027C000DD4F99838883CC51D240329680819181AC
:1027D000C25EDD4F99838883CE51D240329680818C
:1027E0009181C05EDD4F99838883C052D24032967A
:1027F00080819181CE5DDD4F99838883C252D24022
:10280000329680819181CC5DDD4F99838883C4525B
:10281000D240CE5EDD4F8881C251D24065968FAFE7
:102820006597B601CE018B5A9F4F0E94670DC75E18
:10283000DD4F8881C951D2406C968FAF6C97C65ED0
:10284000DD4F88819981CA51D2406E969FAF8EAF7D
:102850006E97C45EDD4F88819981CC51D240A0969D
:102860009FAF8EAFA097C25EDD4F88819981CE5118
:10287000D240A2969FAF8EAFA297C05EDD4F8881F7
:102880009981C052D240A4969FAF8EAFA497CE5DDF
:10289000DD4F88819981C252D240A6969FAF8EAFFC
:1028A000A697CC5DDD4F88819981C452D240A8960D
:1028B0009FAF8EAFA897CD5EDD4F88819981C351C0
:1028C000D2400E944A1AA9962FADA997429E900124
:1028D000112401E010E00C0F1D1F020F131FF8015F
:1028E000EF57FF4F8081CE5EDD4F8883C251D240CB
:1028F000B8016E577F4FC6010E94FA0DF801E857E4
:10290000FF4F8081C75EDD4F8883C951D240319629
:1029100080819181C65EDD4F99838883CA51D24000
:10292000329680819181C45EDD4F99838883CC513A
:10293000D240329680819181C25EDD4F9983888337
:10294000CE51D240329680819181C05EDD4F998315
:102950008883C052D240329680819181CE5DDD4F16
:1029600099838883C252D240329680819181CC5D16
:10297000DD4F99838883C452D240CE5EDD4F88817B
:10298000C251D240AA968FAFAA97B601CE018659FE
:102990009F4F0E94670DC75EDD4F8881C951D240AD
:1029A000E1968FAFE197C65EDD4F88819981CA516C
:1029B000D240E3969FAF8EAFE397C45EDD4F888130
:1029C0009981CC51D240E5969FAF8EAFE597C25E1C
:1029D000DD4F88819981CE51D240E7969FAF8EAF6F
:1029E000E797C05EDD4F88819981C052D240E99659
:1029F0009FAF8EAFE997CE5DDD4F88819981C2523E
:102A0000D240EB969FAF8EAFEB97CC5DDD4F8881C8
:102A10009981C452D240ED969FAF8EAFED97CD5EB7
:102A2000DD4F88819981C351D2400E944A1ACF5705
:102A3000DF4F5882C158D0406FEF7FEFCE014196F3
:102A40000E9433073FEBE32E30E1F32E00E510E068
:102A500020E530E045E550E064E170E0CE014196CC
:102A60000E94B5054EE650E068EC70E0CE0141965C
:102A70000E94280D00EE17E024E630E042E850E026
:102A80006DEC70E0CE0141960E94C10B9E012B5A65
:102A90003F4F43E750E06DEC70E0CE0141960E945D
:102AA000D50CE12C48EFF42E00E510E020E530E0F5
:102AB00040E050E06CED70E0CE0141960E94B5051B
:102AC0004AE050E064E170E0CE0141960E94280D9A
:102AD00000EE17E024E630E04EE150E069E170E0FE
:102AE000CE0141960E94C10B9E0126593F4F4FE0F7
:102AF00050E069E170E0CE0141960E94D50CE12CD6
:102B0000F12C05EA10E024E531E045EA50E060E010
:102B100070E0CE0141960E94280606EA10E024E506
:102B200031E046EA50E060E070E0CE0141960E945C
:102B3000280663E472E0CE018E5E9D4F0E94140E63
:102B40006B968EAD9FAD6B976796EEACFFAC6797BB
:102B5000CA5EDD4F08811981C651D240E114F104EB
:102B600009F488C1009711F1080F191FB801CE01AF
:102B70008E5E9D4F0E94A00D882309F47BC1CE5E1E
:102B8000DD4F28813981C251D240CA5EDD4F888134
:102B90009981C651D240B701820F931F0E94BA1B80
:102BA000CA5EDD4F19830883C651D240CA5EDD4F2D
:102BB00008811981C651D2400C5F1F4FB801CE0168
:102BC0008E5E9D4F0E94A00D882309F459C1CE5EF0
:102BD000DD4F28813981C251D240CA5EDD4F8881E4
:102BE0009981C651D2406EE472E0820F931F0E9419
:102BF000BA1BCA5EDD4F19830883C651D2409E01BD
:102C00002E5E3D4F48EC50E065E070E0CE0141960D
:102C10000E94D50CCE5EDD4F88819981C251D24091
:102C20000E944A1AEE24E39400E010E023E532E02B
:102C300044EB50E066EE70E0CE0141960E94FA0A45
:102C400028E532E048EC50E066EE70E0CE014196B7
:102C50000E94FA0A2FE532E04CED50E066EE70E09B
:102C6000CE0141960E94FA0A1A82198263961FAE1B
:102C7000639760E0CE0101960E948502C5010E9423
:102C80002F088D819E818639910534F089819A8142
:102C9000892B71F465E708C08C3491054CF4898167
:102CA0009A81892B29F464E6CE0101960E9485025F
:102CB0008F859889892B09F493C089819A81892B02
:102CC00009F08EC063968FAD6397882321F0823020
:102CD00009F481C085C00FEF1FEF24E630E04EE11C
:102CE00050E069E170E0CE0141960E94C10BC358EB
:102CF000DF4F488059806A807B80CD57D04020E0EC
:102D000030E048E452E4C301B2010E949B19181656
:102D100054F520E030E048E452E4C301B2010E94DF
:102D20008618C358DF4F688379838A839B83CD5786
:102D3000D04020E030E04AE753E40E94F31820E05E
:102D400030E048EC52E40E9482170E94651900EEC0
:102D500017E09B014EE150E069E170E0CE01419641
:102D60000E94C10B3DC0C358DF4F188219821A82DE
:102D70001B82CD57D040EE24EA94FE2C00E510E0F3
:102D800020E530E040E050E06CED70E0CE0141968F
:102D90000E94B50507EA10E024E531E047EA50E07B
:102DA00060E070E0CE0141960E94B505EE24E39408
:102DB00000E010E028E632E048EC50E065E070E02A
:102DC000CE0141960E94FA0AC5010E942F088F8504
:102DD0009889892BC9F3CF57DF4F1882C158D0404B
:102DE000CF57DF4F8881C158D040882351F09FEFE3
:102DF000A0E7B2E09150A040B040E1F700C0000071
:102E00003DCF0E94760B84017E01EEE6EE0EF11CB2
:102E1000D80111968D919C9112970E944A1A0451E3
:102E200011090E151F05A1F7AC968EAD9FADAC979D
:102E30000E944A1A67968EAD9FAD67970E944A1A04
:102E40000FC080919B0290919C02892B49F0809148
:102E50005F03909160030297029710F40E94760B33
:102E6000BFEFE0E7F2E0B150E040F040E1F700C032
:102E70000000E6C9CE018E5E9D4F0E94C70D96CE22
:102E8000CE018E5E9D4F0E94C70DB9CEE3E5F3E003
:102E90001382128288EE93E0A0E0B0E084839583F1
:102EA000A683B78384E291E09183808383EA93E0F1
:102EB0000E947B0582E693E00C947B05990F000845
:102EC000550FAA0BE0E8FEEF16161706E807F907FC
:102ED000C0F012161306E407F50798F0621B730B97
:102EE000840B950B39F40A2661F0232B242B252B18
:102EF00021F408950A2609F4A140A6958FEF811DBB
:102F0000811D08950E9495170C9406180E94F817C9
:102F100038F00E94FF1720F0952311F00C94EF1762
:102F20000C94F51711240C943A180E94171870F39A
:102F3000959FC1F3950F50E0551F629FF001729F5E
:102F4000BB27F00DB11D639FAA27F00DB11DAA1F6D
:102F5000649F6627B00DA11D661F829F2227B00DBA
:102F6000A11D621F739FB00DA11D621F839FA00D45
:102F7000611D221F749F3327A00D611D231F849F95
:102F8000600D211D822F762F6A2F11249F575040EC
:102F90009AF0F1F088234AF0EE0FFF1FBB1F661F67
:102FA000771F881F91505040A9F79E3F510580F030
:102FB0000C94EF170C943A185F3FE4F3983ED4F367
:102FC000869577956795B795F795E7959F5FC1F7D4
:102FD000FE2B880F911D9695879597F9089597F97F
:102FE0009F6780E870E060E008959FEF80EC0895AF
:102FF00000240A94161617061806090608950024D8
:103000000A9412161306140605060895092E039451
:10301000000C11F4882352F0BB0F40F4BF2B11F4C5
:1030200060FF04C06F5F7F4F8F4F9F4F089557FD24
:103030009058440F551F59F05F3F71F04795880F26
:1030400097FB991F61F09F3F79F0879508951216BD
:1030500013061406551FF2CF4695F1DF08C0161669
:1030600017061806991FF1CF86957105610508941A
:103070000895E894BB2766277727CB0197F9089531
:103080002F923F924F925F926F927F928F929F9278
:10309000AF92BF92CF92DF92EF92FF920F931F9366
:1030A000CF93DF93CDB7DEB7CA1BDB0B0FB6F89417
:1030B000DEBF0FBECDBF09942A88398848885F8457
:1030C0006E847D848C849B84AA84B984C884DF80C8
:1030D000EE80FD800C811B81AA81B981CE0FD11DAC
:1030E0000FB6F894DEBF0FBECDBFED010895A29FCD
:1030F000B001B39FC001A39F700D811D1124911DCC
:10310000B29F700D811D1124911D08955058BB2749
:10311000AA270E949E180C9406180E94F81738F0EF
:103120000E94FF1720F039F49F3F19F426F40C9405
:10313000F5170EF4E095E7FB0C94EF17E92F0E94CA
:10314000171858F3BA17620773078407950720F01A
:1031500079F4A6F50C9439180EF4E0950B2EBA2FDD
:10316000A02D0B01B90190010C01CA01A00111248D
:10317000FF27591B99F0593F50F4503E68F11A1639
:10318000F040A22F232F342F4427585FF3CF4695CA
:1031900037952795A795F0405395C9F77EF41F16EC
:1031A000BA0B620B730B840BBAF09150A1F0FF0FB6
:1031B000BB1F661F771F881FC2F70EC0BA0F621FA2
:1031C000731F841F48F4879577956795B795F79592
:1031D0009E3F08F0B0CF9395880F08F09927EE0F27
:1031E0009795879508950E9407190C9406180E94D8
:1031F000FF1758F00E94F81740F029F45F3F29F0BC
:103200000C94EF1751110C943A180C94F5170E9476
:10321000171868F39923B1F3552391F3951B550BB8
:10322000BB27AA2762177307840738F09F5F5F4F99
:10323000220F331F441FAA1FA9F335D00E2E3AF0D8
:10324000E0E832D091505040E695001CCAF72BD0F0
:10325000FE2F29D0660F771F881FBB1F2617370741
:103260004807AB07B0E809F0BB0B802DBF01FF2773
:1032700093585F4F3AF09E3F510578F00C94EF174A
:103280000C943A185F3FE4F3983ED4F38695779513
:103290006795B795F7959F5FC9F7880F911D96952C
:1032A000879597F90895E1E0660F771F881FBB1F88
:1032B000621773078407BA0720F0621B730B840B35
:1032C000BA0BEE1F88F7E09508950E946C19689478
:1032D000B1110C943A1808950E941F1888F09F5756
:1032E00098F0B92F9927B751B0F0E1F0660F771F2A
:1032F000881F991F1AF0BA95C9F714C0B13091F020
:103300000E943918B1E008950C943918672F782F6E
:103310008827B85F39F0B93FCCF3869577956795E4
:10332000B395D9F73EF490958095709561957F4F50
:103330008F4F9F4F08950E945E1708F48FEF0895F6
:103340000E947718332312F48A1B9B0B0C94AA1942
:103350000E947718B7FF0895821B930B0895EE0F14
:10336000FF1F0590F491E02D0994CF93DF938230F5
:10337000910510F482E090E0E091F003F091F10308
:1033800020E030E0C0E0D0E0309711F14081518181
:1033900048175907C0F04817590761F48281938193
:1033A000209719F09B838A832BC09093F10380931D
:1033B000F00326C02115310519F04217530718F400
:1033C0009A01BE01DF01EF010280F381E02DDCCF25
:1033D0002115310509F1281B390B2430310590F4F2
:1033E00012968D919C9113976115710521F0FB0147
:1033F0009383828304C09093F1038093F003FD01D3
:10340000329644C0FD01E20FF31F81939193225045
:1034100031092D933C933AC02091EE033091EF0394
:10342000232B41F420910201309103013093EF03EB
:103430002093EE0320910001309101012115310507
:1034400041F42DB73EB74091040150910501241B72
:10345000350BE091EE03F091EF03E217F307A0F4D0
:103460002E1B3F0B2817390778F0AC014E5F5F4FDA
:103470002417350748F04E0F5F1F5093EF0340931A
:10348000EE038193919302C0E0E0F0E0CF01DF9181
:10349000CF9108950F931F93CF93DF93009709F473
:1034A0008CC0FC013297138212820091F0031091BC
:1034B000F1030115110581F420813181820F931FE1
:1034C0002091EE033091EF032817390779F5F09337
:1034D000EF03E093EE0371C0D80140E050E0AE1777
:1034E000BF0750F412962D913C911397AD01211511
:1034F000310509F1D901F3CF9D01DA01338322832C
:1035000060817181860F971F8217930769F4EC0120
:1035100028813981260F371F2E5F3F4F318320834B
:103520008A819B8193838283452B29F4F093F10355
:10353000E093F00342C01396FC93EE931297ED01D3
:10354000499159919E01240F351FE217F30771F439
:1035500080819181840F951F029611969C938E9382
:103560008281938113969C938E931297E0E0F0E012
:10357000D80112968D919C911397009719F0F8013C
:103580008C01F6CF8D919C9198012E5F3F4F820F59
:10359000931F2091EE033091EF032817390769F448
:1035A000309729F41092F1031092F00302C01382B5
:1035B00012821093EF030093EE03DF91CF911F91DE
:1035C0000F910895A0E0B0E0E8EEFAE10C94441801
:1035D000EC01009721F4CB010E94B519B8C0FC01A1
:1035E000E60FF71F9C0122503109E217F30708F498
:1035F000ACC0D9010D911C91119706171707B0F0B7
:103600000530110508F49FC0C80104978617970775
:1036100008F499C002501109061B170B019311936E
:103620006D937C93CF010E944A1A8DC05B01A01A52
:10363000B10A4C01800E911EA091F003B091F103EC
:1036400040E050E0E12CF12C109709F44AC0A81595
:10365000B905D1F56D907C901197630182E0C80E99
:10366000D11CCA14DB0480F1A3014A195B096A0169
:1036700082E0C80ED11C1296BC9012971396AC91A2
:10368000B5E0CB16D10440F0B282A38351834083CE
:10369000D9016D937C930AC00E5F1F4FC301800F49
:1036A000911FF90191838083EB2DFA2FE114F1042E
:1036B00031F0D7011396FC93EE93129744C0F09328
:1036C000F103E093F0033FC08D919C91119748174F
:1036D000590708F4AC017D0112960D90BC91A02D04
:1036E000B3CF8091EE039091EF0388159905E1F433
:1036F00046175707C8F48091000190910101009787
:1037000041F48DB79EB74091040150910501841B8F
:10371000950BE817F907C8F4F093EF03E093EE0375
:10372000F901718360830FC0CB010E94B5197C0140
:10373000009759F0A801BE010E94B11BCE010E9462
:103740004A1AC70104C0CE0102C080E090E0CDB7A4
:10375000DEB7EEE00C94601881E090E0F8940C94F1
:10376000C11BFB01DC0102C001900D924150504091
:10377000D8F70895FB01DC0101900D920020E1F7DC
:063780000895F894FFCF4C
:103786000000F203800000000000D202840A530207
:1037960052020E05DF04780FD80AD40A50033E03FE
:1037A600000000005602530A5302BB04A904CB04CE
:1037B600BC0400000000D60A840A530252022D2DD2
:1037C6003E00446F776E6D6F6E204869676873635D
:1037D6006F7265007468726F77206E6577204E6F22
:1037E60074496D706C656D656E7465644578636566
:1037F6007074696F6E28293B004472756B206F7078
:10380600205A206F6D207465727567207465206775
:1038160061616E2C206B6E756C2E002844652063EA
:1038260072656469747320646F656E2068657420C0
:10383600616C2077656C21290028476120646161ED
:1038460072206D616172206865656E2E2900446F75
:10385600776E6D6F6E204372656469747300427291
:1038660069616E202D2044696E67656E004A61634A
:103876006F62202D20416E646572652064696E67F3
:10388600656E004E6565636F62202D204D6565721D
:1038960020616E646572652064696E67656E0057A7
:1038A60065736C6579202D204465207265737400FC
:1038B6004779617261646F776E004D6567616B6110
:1038C600727000576861742077696C6C2000206400
:1038D6006F3F00506F6B65005377697463680052E1
:1038E6006167657175697400486F657261206A6900
:1038F6006A2077696E742100446F776E6D6F6E2053
:10390600506F6B6573686F7700426174746C650005
:107E0000112484B714BE81FFF0D085E080938100F7
:107E100082E08093C00088E18093C10086E0809377
:107E2000C20080E18093C4008EE0C9D0259A86E02C
:107E300020E33CEF91E0309385002093840096BBD3
:107E4000B09BFECF1D9AA8958150A9F7CC24DD24C4
:107E500088248394B5E0AB2EA1E19A2EF3E0BF2EE7
:107E6000A2D0813461F49FD0082FAFD0023811F036
:107E7000013811F484E001C083E08DD089C08234E0
:107E800011F484E103C0853419F485E0A6D080C0E4
:107E9000853579F488D0E82EFF2485D0082F10E0AE
:107EA000102F00270E291F29000F111F8ED06801E7
:107EB0006FC0863521F484E090D080E0DECF843638
:107EC00009F040C070D06FD0082F6DD080E0C81688
:107ED00080E7D80618F4F601B7BEE895C0E0D1E017
:107EE00062D089930C17E1F7F0E0CF16F0E7DF06D8
:107EF00018F0F601B7BEE89568D007B600FCFDCFD4
:107F0000A601A0E0B1E02C9130E011968C91119780
:107F100090E0982F8827822B932B1296FA010C0160
:107F200087BEE89511244E5F5F4FF1E0A038BF0790
:107F300051F7F601A7BEE89507B600FCFDCF97BE46
:107F4000E89526C08437B1F42ED02DD0F82E2BD052
:107F50003CD0F601EF2C8F010F5F1F4F84911BD097
:107F6000EA94F801C1F70894C11CD11CFA94CF0C13
:107F7000D11C0EC0853739F428D08EE10CD085E9AC
:107F80000AD08FE07ACF813511F488E018D01DD067
:107F900080E101D065CF982F8091C00085FFFCCF94
:107FA0009093C60008958091C00087FFFCCF809118
:107FB000C00084FD01C0A8958091C6000895E0E648
:107FC000F0E098E1908380830895EDDF803219F02E
:107FD00088E0F5DFFFCF84E1DECF1F93182FE3DFCA
:107FE0001150E9F7F2DF1F91089580E0E8DFEE27F6
:047FF000FF270994CA
:027FFE00040479
:0400000300007E007B
:00000001FF