:100000000C9428020C9450020C9450020C94500250
:100010000C9450020C9450020C9450020C94500218
:100020000C9450020C9450020C9450020C94500208
:100030000C9450020C9450020C9450020C945002F8
:100040000C942C0C0C9450020C9450020C94500202
:100050000C9450020C9450020C9450020C945002D8
:100060000C9473060C9450024128D441CF83008332
:100070003041ED846403128141E88385017941CBED
:1000800085392C00340241F7812041EA8200004189
:10009000C0812641C1811141C582353E41C781BE23
:1000A00041B182001B41F281084126810141E08F6C
:1000B0001F1A180A0F064587320A07020705004172
:1000C000E18F0025270510093A784D05180D383ABB
:1000D0001F41B6840A82270041B78107413A815502
:1000E000413681E8412A82000082013F412B820093
:1000F000008200EF4111FCFC4129D4FFFF00000009
:10010000000000000030787830300030006C6C6CFB
:1001100000000000006C6CFE6CFE6C6C00307CC05B
:10012000780CF8300000C6CC183066C600386C3841
:1001300076DCCC76006060C0000000000018306003
:100140006060301800603018181830600000663C9D
:10015000FF3C660000003030FC3030000000000042
:100160000000703060000000FC0000000000000093
:100170000000303000060C183060C0800078CCDC05
:10018000FCECCC780030F030303030FC0078CC0C17
:100190003860CCFC0078CC0C380CCC78001C3C6C63
:1001A000CCFE0C0C00FCC0F80C0CCC78003860C005
:1001B000F8CCCC7800FCCC0C183060600078CCCC4B
:1001C00078CCCC780078CCCC7C0C18700000003057
:1001D0003000303000000030300070306018306087
:1001E000C0603018000000FC00FC00000060301807
:1001F0000C1830600078CC0C18300030007CC6DE63
:10020000DEDEC078003078CCCCFCCCCC00FC66665E
:100210007C6666FC003C66C0C0C0663C00FC6C6648
:1002200066666CFC00FE6268786862FE00FE6268CA
:10023000786860F0003C66C0C0CE663E00CCCCCC96
:10024000FCCCCCCC0078303030303078001E0C0C38
:100250000CCCCC7800E6666C786C66E600F06060EA
:10026000606266FE00C6EEFED6C6C6C600C6E6F6EC
:10027000DECEC6C600386CC6C6C66C3800FC6666E4
:100280007C6060F00078CCCCCCDC781C00FC66662E
:100290007C786CE60078CCE0381CCC7800FCB4307C
:1002A0003030307800CCCCCCCCCCCCFC00CCCCCC1E
:1002B000CCCC783000C6C6C6D6FEEEC600C6C66C2C
:1002C000386CC6C600CCCCCC7830307800FECC98E8
:1002D0003062C6FE007860606060607800C06030A8
:1002E000180C060200781818181818780010386CC6
:1002F000C60000000000000000000000FF303018C1
:1003000000000000000000780C7CCC7600E0607CEF
:10031000666666BC00000078CCC0CC78001C0C0C73
:100320007CCCCC7600000078CCFCC07800386C60C7
:10033000F06060F000000076CCCC7C0CF8E0606CE3
:10034000766666E60030007030303078001800784D
:10035000181818D870E060666C786CE60070303061
:1003600030303078000000ECFED6C6C6000000F841
:10037000CCCCCCCC00000078CCCCCC78000000DC1D
:1003800066667C60F0000076CCCC7C0C1E0000D849
:100390006C6C60F00000007CC0780CF80010307CC1
:1003A00030303418000000CCCCCCCC76000000CC2F
:1003B000CCCC7830000000C6C6D6FE6C000000C66B
:1003C0006C386CC6000000CCCCCC7C0CF80000FC77
:1003D000983064FC001C3030E030301C00181818D5
:1003E0000018181800E030301C3030E00076DC00D7
:1003F000000000000010386CC6C6C6FE00000000F9
:1004000000240027002A0000000000250028002BFF
:1004100000040404040404040402020202020203AD
:1004200003030303030102040810204080010204B7
:10043000081020010204081020000000080002013A
:1004400000000304070000000000000000004C143E
:1004500011241FBECFEFD8E0DEBFCDBF23E0A8E759
:10046000B2E001C01D92AA3DB207E1F712E0A0E0A0
:10047000B1E0E2E9F1E302C005900D92A837B107BF
:10048000D9F712E0C8E2D2E004C02197FE010E9431
:10049000B516C732D107C9F70E942E0F0C94C718A2
:1004A0000C940000EF92FF920F931F93CF93DF9372
:1004B000EC018E819F81681779075CF588859985A5
:1004C0004817590734F57901E881F9810284F385E9
:1004D000E02D8A019B01CE010995E881F981048410
:1004E000F585E02DCE010995E881F9810684F7852F
:1004F000E02DB701CE010995E881F9810088F189E5
:10050000E02DCE01DF91CF911F910F91FF90EF90E1
:100510000994DF91CF911F910F91FF90EF90089573
:100520008091EF0290E02091EE02821B91090895E4
:1005300085ED8093BC008091BC0084FDFCCF1092BF
:10054000160308954091A902262F30E0240F311D93
:1005500021323105DCF4209116032430C9F4FC016A
:1005600080E090E0861758F43091A9022191DC01D7
:10057000A957BD4FA30FB11D2C930196F3CF8091C6
:10058000A902680F6093A90280E0089581E00895B0
:1005900082E008950895E091EE028091EF02E8175D
:1005A00030F4F0E0E253FD4F808190E008958FEF4A
:1005B0009FEF08959091EE028091EF02981750F40A
:1005C000E92FF0E0E253FD4F208130E09F5F9093F0
:1005D000EE0202C02FEF3FEFC9010895CF92DF92E4
:1005E000EF92FF920F931F93CF93DF937C01262FFF
:1005F000972F8A0180911703882391F0C62FD72F58
:100600006E01C40ED51ECC15DD0571F06991D701C0
:10061000ED91FC910190F081E02DC7010995F3CF98
:10062000642F822F0E94A202C801DF91CF911F91F7
:100630000F91FF90EF90DF90CF900895CF93DF93CD
:100640001F92CDB7DEB76983209117032223D1F023
:1006500020913A03203240F021E030E0FC01338366
:10066000228380E090E015C080911803E82FF0E02D
:10067000E75EFC4F998190838F5F8093180380938E
:100680003A0305C061E0CE0101960E94A20281E01A
:1006900090E00F90DF91CF910895089580E090E071
:1006A0000895CF93C62F81E08093170382E580934E
:1006B00039031092180310923A03642F8BE393E0EE
:1006C0000E941E036C2F8BE393E00E941E03809117
:1006D0003A03813208F045C0909116039111FCCF86
:1006E00092E09093160391E0909315039FEF9093FF
:1006F00014031092130380931203A9E1B3E022EFD5
:1007000032E0F9019E2F921B981718F49D91919356
:10071000F9CF1092F1028091F102846A8093F10284
:100720008091F002813061F41092F0028091F10228
:100730008093BB008091BC0083FDF8CF85EC01C0A5
:1007400085EE8093BC00809116038230E1F38091A6
:1007500014038F3F31F080911403803211F08091A7
:1007600014031092180310923A03109217036AE0D0
:1007700070E080E090E0CF910C94F20BCF92DF928A
:10078000FF920F931F93CF93DF93CDB7DEB72C97D4
:100790000FB6F894DEBF0FBECDBF8C01809116035B
:1007A0008111FCCF81E080931603809315039FEFA6
:1007B000909314031092130395E090931203809387
:1007C000F1028091F102846A8093F1028091F0023B
:1007D000813061F41092F0028091F1028093BB00AD
:1007E0008091BC0083FDF8CF85EC01C085EE80933D
:1007F000BC00809116038130E1F3809113038630B1
:1008000018F4F090130302C076E0F72EA2EFB2E0E6
:100810002EEC32E0F9018E2F821B8F1518F48D918A
:100820008193F9CF1092EE02F092EF02CE01019681
:100830006C018091EE02F81649F08BE393E00E9480
:10084000DA02F601819391936F01F3CF89819A8146
:10085000F801918380838B819C81938382838B8534
:100860009C859C013595279535952795A901437061
:1008700055272D813E81220F331F220F331F242B3A
:10088000352B358324839C0174E0359527957A9523
:10089000E1F7A901437055272F813885220F331FB7
:1008A000220F331F242B352B378326839C01B6E080
:1008B00035952795BA95E1F7A90143705527298504
:1008C0003A85220F331F220F331F242B352B3187FC
:1008D00020879C0121703327F1E02F27F80133870F
:1008E000228721E030E081FF02C020E030E0F80103
:1008F0003587248740E060E0C8012C960FB6F89455
:10090000DEBF0FBECDBFDF91CF911F910F91FF9042
:10091000DF90CF900C945103CF92DF92EF92FF9231
:100920000F931F93CF93DF93F62EEC01CD5BDF4F38
:1009300048816C0122E0C20ED11C84E1489FA001D5
:1009400011244C545F4FEE24E3940FEF1FEF22E38A
:1009500031E068EC70E0C6010E94DC0925E7F21284
:1009600005C08881882351F0815007C084E6F812C1
:1009700005C08881823011F08F5F8883488124E12F
:10098000429FA00111244C545F4FEE24E39400E0F9
:1009900010E022E331E068EC70E0C6010E94DC095F
:1009A000DF91CF911F910F91FF90EF90DF90CF904B
:1009B00008952F923F924F925F926F927F928F9203
:1009C0009F92AF92BF92CF92DF92EF92FF920F93DE
:1009D0001F93CF93DF93CDB7DEB728970FB6F89468
:1009E000DEBF0FBECDBF4C016B0158874F8359014D
:1009F00062177307A1F40417150744F40427152799
:100A00004027512758874F83042715272F81388582
:100A1000021B130B0F5F1F4F21E030E015C04F8109
:100A2000588540175107B9F42617370734F4A6261E
:100A3000B726CA24DB24AC24BD2495012C193D091A
:100A40002F5F3F4F01E010E04F815885B601C40190
:100A50000E94680DA0C0FC012681378162177307D0
:100A600024F06901F1E0CF1AD108F4018085918565
:100A70004F8158854817590724F0FC013197F887B2
:100A8000EF83A216B30624F05901F1E0AF1AB108C2
:100A9000081719071CF08C010150110935016C1859
:100AA0007D0828012F813885421A530A77FE08C035
:100AB0007194619471084FEF5FEF5A83498304C0CA
:100AC00081E090E09A83898357FE08C05194419455
:100AD0005108EFEFFFEFFC83EB8304C021E030E02F
:100AE0003C832B83A301440F551F5E834D8312016A
:100AF000220C331C97014F815885B601C4010E9416
:100B00005202461457041CF5810106191709CA142C
:100B1000DB0409F440C017FD0CC08F819885EB8180
:100B2000FC818E0F9F1F98878F832D813E81021B32
:100B3000130B49815A81C40ED51E020D131D970156
:100B40004F815885B601C4010E945202E0CFAD80AA
:100B5000BE80A418B5088F81988580179107D9F0B9
:100B6000B7FC06C089819A81C80ED91EA218B308A5
:100B7000EF81F8852B813C81E20FF31FF887EF832B
:100B80004D815E81A40EB51E9701AF01B601C4016F
:100B90000E945202E0CF28960FB6F894DEBF0FBE37
:100BA000CDBFDF91CF911F910F91FF90EF90DF901C
:100BB000CF90BF90AF909F908F907F906F905F90FD
:100BC0004F903F902F9008958F929F92AF92BF9237
:100BD000EF92FF920F931F93CF93DF93EC017B0172
:100BE000E881F98108851985015011092E813F811D
:100BF000215031090284F385E02D40E050E060E0AF
:100C000070E00995E881F9810484F585E02DCE0135
:100C10000995AE81BF81288539850E94A6164B01B2
:100C20005C0183E0B694A794979487948A95D1F752
:100C3000E881F98181149104A104B10409F444C04C
:100C40000684F785E02DB701CE010995E881F98189
:100C50000684F785E02DB701CE010995E881F98179
:100C60000684F785E02DB701CE010995E881F98169
:100C70000684F785E02DB701CE010995E881F98159
:100C80000684F785E02DB701CE010995E881F98149
:100C90000684F785E02DB701CE010995E881F98139
:100CA0000684F785E02DB701CE010995E881F98129
:100CB0000684F785E02DB701CE01099581E0881AF9
:100CC0009108A108B108B4CF0088F189E02DCE01C8
:100CD000DF91CF911F910F91FF90EF90BF90AF9058
:100CE0009F908F9009941F920F920FB60F9211242C
:100CF0002F933F934F935F936F937F938F939F9324
:100D0000AF93BF93EF93FF938091B900887F8036B4
:100D100009F49CC068F5883209F45BC090F4803116
:100D200009F454C038F4882309F4F6C0883009F473
:100D30004DC0F6C0883109F44CC0803209F45DC062
:100D4000EFC0803409F468C048F4803309F455C01A
:100D5000883309F0E5C080931403D8C0803509F4C6
:100D60004FC0883509F45DC0883409F0D9C0D6C0B9
:100D7000883909F4C7C0A8F4883709F467C038F483
:100D8000883609F463C0803709F460C0C9C0883868
:100D900009F4B8C0803909F45FC0803809F0C0C0D8
:100DA0005BC0803B09F486C038F4803A09F466C021
:100DB000883A09F47FC0B4C0803C09F4A7C0883CDD
:100DC00009F4A4C0883B09F48AC0AAC08091F1024A
:100DD00010C09091130380911203981770F5E09161
:100DE000130381E08E0F80931303F0E0EE50FD4F6C
:100DF00080818093BB0085EC86C0809314038EC0F5
:100E0000E091130381E08E0F809313038091BB0068
:100E1000F0E0EE50FD4F8083909113038091120318
:100E20006EC0E091130381E08E0F809313038091D5
:100E3000BB00F0E0EE50FD4F8083809115038111DF
:100E40006DC081E08093F00284EA61C083E080930A
:100E500016031092CD02CFCF8091CD02803208F0E0
:100E600051C0E091CD0281E08E0F8093CD02809140
:100E7000BB00F0E0E355FD4F8083BDCF85EC809350
:100E8000BC00109216038091CD02803230F4E091C4
:100E9000CD02F0E0E355FD4F10826091CD0270E08D
:100EA000E091AB02F091AC028DEA92E009951092CC
:100EB000CD0236C084E0809316031092AA021092ED
:100EC000A902E091A702F091A80209958091A902D8
:100ED000811105C081E08093A90210928702E09100
:100EE000AA0281E08E0F8093AA02F0E0E957FD4F3D
:100EF00080818093BB009091AA028091A9029817EB
:100F000008F479CF85E88093BC000AC085EC809313
:100F1000BC001092160304C0109214030E949802A1
:100F2000FF91EF91BF91AF919F918F917F916F91C1
:100F30005F914F913F912F910F900FBE0F901F9097
:100F40001895CF92DF92EF92FF920F931F93CF935A
:100F5000DF936C017A018B01C0E0D0E0CE15DF0594
:100F600089F0D8016D918D01D601ED91FC91019030
:100F7000F081E02DC6010995892B11F47E0102C094
:100F80002196ECCFC701DF91CF911F910F91FF9078
:100F9000EF90DF90CF9008953FB7F8948091D10300
:100FA0009091D203A091D303B091D40326B5A89B0E
:100FB00005C02F3F19F00196A11DB11D3FBFBA2FEB
:100FC000A92F982F8827820F911DA11DB11DBC014B
:100FD000CD0142E0660F771F881F991F4A95D1F710
:100FE00008955F9A08958EBD00000DB407FEFDCFF1
:100FF0008EB50895CF93DF931F92CDB7DEB7872FBD
:101000005F982B9A2D989CB59F7B9CBD2D9A9CB583
:1010100090649CBD69830E94F3072B9A2D989CB520
:101020009F7B9CBD2D9A9CB590649CBD6981862F49
:101030000E94F3075F9A0F90DF91CF910895CF93AD
:10104000DF931F92CDB7DEB7872F2B9A2D989CB5D3
:101050009F7B9CBD2D9A9CB590649CBD69830E942A
:10106000F3072B9A2D989CB59F7B9CBD2D9A9CB520
:1010700090649CBD6981862F0F90DF91CF910C9475
:10108000F307CF92EF92FF920F931F93CF93DF93CB
:10109000EC01262F6A3081F48EAD9FAD9BAF8AAFF5
:1010A0002CA92F778CAD9DAD38E0239F800D911D2D
:1010B00011249DAF8CAF47C0862F8B7F893009F4F8
:1010C00042C06AAD7BAD203219F461157105D9F1CA
:1010D000E881F981E8ACF9AC0EA91FA94CAD5DAD72
:1010E0000488F589E02DCCA8CE010995BC019BAF01
:1010F0008AAF8DA9882339F12CA92F77822F90E010
:1011000048EF4203900111244E815F81420F531F2B
:1011100046175707C4F44EAD5FAD5BAF4AAF43E02F
:10112000880F991F4A95E1F74CAD5DAD840F951F6F
:101130009DAF8CAF48855985240F351F2817390777
:1011400014F41DAE1CAE81E090E0DF91CF911F91B1
:101150000F91FF90EF90CF900895CF92EF92FF9272
:101160000F931F93DC01ED91FC910288F389E02D30
:1011700009951F910F91FF90EF90CF9008952F92B6
:101180003F924F925F926F927F928F929F92AF9217
:10119000BF92CF92DF92EF92FF920F931F93CF9364
:1011A000DF9300D01F92CDB7DEB79B838A834801BF
:1011B00088E0280290011124D901A350B0405D01BC
:1011C000BC2DBF77CB2EEA81FB8186819781F1E030
:1011D000FB1708F463C06B0128E0C20ED11C8C150C
:1011E0009D050CF46EC0AA81BB811896ED91FC910F
:1011F00019979A01285F3F4FE217F3070CF461C07B
:10120000AA81BB81ED91FC9111978A01095F1F4F63
:101210009B01295F3F4F0284F385E02DCD010995A5
:10122000AA81BB81ED91FC9111970484F585E02D95
:10123000CD0109958501085F1F4FF5014490FFEF2F
:10124000AF1ABF0A98E0692E712C20E8522EAA81AD
:10125000BB81ED91FC911197852D84210684F78542
:10126000E02D882319F0B401CD0103C0B7018A81B4
:101270009B8109955694B1E06B1A710841F7A0164D
:10128000B106D9F6AA81BB81ED91FC911197008836
:10129000F189E02DCD010995C60176C0B8E0CB9E5D
:1012A000800111243B01600E711E861597054CF0DC
:1012B000040F151FEA81FB81208531852017310736
:1012C00014F4019661C0AA81BB81ED91FC91119744
:1012D000015011090284F385E02D93012150310959
:1012E000CD010995AA81BB81ED91FC9111970484F0
:1012F000F585E02DCD0109952501B8E04B0E511C77
:10130000F5012490FFEFAF1ABF0A3C2C08E010E073
:1013100080E8D82E8D2D82212C2DA1F0AA81BB81B1
:10132000ED91FC9111970684F785E02DB401CD0174
:10133000298309952981215089F7D69401501109F3
:1013400049F710C0AA81BB81ED91FC9111970684E9
:10135000F785E02DB701CD01298309952981215019
:1013600089F7EBCF3A943110D1CFA414B50409F02A
:10137000C7CFAA81BB81ED91FC9111970088F189BB
:10138000E02DCD010995C3010F900F900F90DF91D3
:10139000CF911F910F91FF90EF90DF90CF90BF9072
:1013A000AF909F908F907F906F905F904F903F9005
:1013B0002F9008950E94B2186F927F928F929F9201
:1013C000AF92BF92CF92DF92EF92FF920F931F9353
:1013D000CF93DF935C014A013801DE2CE9012991AA
:1013E0002223A9F0D501ED91FC910288F389E02D2B
:1013F000CD2CEE24EA94FE2C8301A401C5010995AD
:10140000BC01F501868197818617970744F7CB01C8
:10141000DF91CF911F910F91FF90EF90DF90CF90D0
:10142000BF90AF909F908F907F906F900895EF92B4
:101430000F931F93CF93C82F4091490388E2489F91
:10144000A00111244C595F4FEE24E3940FEF1FEFDE
:1014500022E331E064E670E08AE493E00E94DC0974
:1014600090914903C53721F4992349F0915005C063
:10147000C43629F4923019F09F5F9093490340914C
:10148000490388E2489FA00111244C595F4FEE2484
:10149000E39400E010E022E331E064E670E08AE4E7
:1014A00093E00E94DC09CF911F910F91EF90089576
:1014B000EF920F931F9310924803109247036FEF20
:1014C0007FEF8AE493E00E94E40582E0E82E00E0EA
:1014D00010E02FE532E048E250E06EE170E08AE48F
:1014E00093E00E94DC09EE24E39420E732E044E636
:1014F00050E062E870E08AE493E00E94DC092EE3A9
:1015000031E04CE850E062E870E08AE493E00E9449
:10151000DC092AEC31E044EB50E062E870E08AE458
:1015200093E00E94DC098091470390914803892B46
:1015300031F480E01F910F91EF900C94170A1F91E6
:101540000F91EF9008954F925F926F927F928F92DA
:101550009F92AF92BF92CF92EF92FF920F931F9301
:10156000CF93DF935C01CB014A013901C0E0D0E0A9
:10157000F30124813581C217D30740F5D501ED91E0
:10158000FC9142885388F301A081B181109729F41E
:101590001092D503A5EDB3E002C0AC0FBD1FCC2463
:1015A000C394EE24EA94FE2C00E010E02C91A401F8
:1015B000BC01C501F2010995D50116962D913C910A
:1015C00017972817390714F02196D2CFDF91CF91C2
:1015D0001F910F91FF90EF90CF90BF90AF909F9091
:1015E0008F907F906F905F904F9008950F931F930F
:1015F000CF93DF93EC0188819981009729F02A81AC
:101600003B812617370788F48B016F5F7F4F0E945D
:10161000E817009761F0998388831B830A832C81E4
:101620003D81232B11F4FC01108281E001C080E098
:10163000DF91CF911F910F910895CF93DF93EC012C
:1016400088819981009711F00E94501719821882A1
:101650001D821C821B821A82DF91CF910895EF9226
:10166000FF920F931F93CF93DF93EC01198218829F
:101670001B821A821D821C826115710521F18B016A
:10168000FB0101900020E9F731977F01E61AF70A84
:10169000B7010E94F60A811109C0CE01DF91CF91F6
:1016A0001F910F91FF90EF900C941D0BFD82EC8227
:1016B000B80188819981DF91CF911F910F91FF909F
:1016C000EF900C94C018DF91CF911F910F91FF9074
:1016D000EF90089590E0FC01E75CFB4F3491FC0132
:1016E000EB5DFB4F2491FC01EF5EFB4FE491EE2399
:1016F00009F43BC0332339F1333091F038F4313001
:10170000A9F0323001F584B58F7D12C0373091F0E9
:101710003830A1F03430B9F4809180008F7D03C05F
:10172000809180008F77809380000DC084B58F7783
:1017300084BD09C08091B0008F7703C08091B00054
:101740008F7D8093B000F0E0EE0FFF1FE95FFB4F4D
:10175000A591B4918FB7F894EC91611103C02095D5
:101760002E2301C02E2B2C938FBF0895CF93DF9390
:1017700090E0FC01EB5DFB4F2491FC01EF5EFB4F21
:101780008491882361F190E0880F991FFC01E35058
:10179000FC4FC591D491FC01E95FFB4FA591B49139
:1017A000611109C09FB7F8948881209582238883AE
:1017B000EC912E230BC0623061F49FB7F89438810E
:1017C000822F809583238883EC912E2B2C939FBFAF
:1017D00006C08FB7F894E8812E2B28838FBFDF9146
:1017E000CF9108958F929F92AF92BF92CF92DF9246
:1017F000EF92FF926B017C010E94CC074B015C01D0
:10180000C114D104E104F104F1F00E94CC07DC0121
:10181000CB0188199909AA09BB09883E9340A10503
:10182000B10570F321E0C21AD108E108F10888EE91
:10183000880E83E0981EA11CB11CC114D104E104E0
:10184000F10419F7DDCFFF90EF90DF90CF90BF90BC
:10185000AF909F908F9008951F920F920FB60F92A6
:1018600011242F933F938F939F93AF93BF938091B6
:10187000CD039091CE03A091CF03B091D0033091CE
:10188000CC0323E0230F2D3720F40196A11DB11DB9
:1018900005C026E8230F0296A11DB11D2093CC039D
:1018A0008093CD039093CE03A093CF03B093D00346
:1018B0008091D1039091D203A091D303B091D4032E
:1018C0000196A11DB11D8093D1039093D203A093E3
:1018D000D303B093D403BF91AF919F918F913F9168
:1018E0002F910F900FBE0F901F901895862F5F9825
:1018F0002B9A2D989CB59F7B9CBD2D9A9CB590648E
:101900009CBD0E94F3075F9A0895862F5F982B98DD
:101910002D989CB59F7B9CBD2D9A9CB590649CBDD9
:101920000E94F3075F9A08956CE20E94850C5F980D
:101930000895AF92BF92CF92DF92EF92FF920F93F2
:101940001F93CF93DF93EC015B017A0169016AE297
:101950000E94850CB501CE010E94FA07B601CE01A6
:101960000E94FA076BE2CE010E94850CB701CE01FE
:101970000E94FA07B801CE01DF91CF911F910F911C
:10198000FF90EF90DF90CF90BF90AF900C94FA074C
:101990000F931F93CF93DF93EC016930710519F01A
:1019A0006A35710571F48AE590E09D838C8380EF40
:1019B00090E09F838E8380E491E09987888718E484
:1019C00034C06231710519F0643B710571F484EB28
:1019D00090E09D838C8380E491E09F838E8380EFF1
:1019E00090E09987888718E320C06B31710521F05A
:1019F0007E7F6E30710571F48EE091E09D838C8363
:101A000080EF90E09F838E8380E491E099878887C0
:101A100018E80BC01D821C8280E491E09F838E83B6
:101A200080EF90E09987888718EE66E3CE010E94E8
:101A3000850C612FCE010E94760CE881F981088522
:101A40001985015011092E813F81215031090284ED
:101A5000F385E02D40E050E060E070E0CE010995B4
:101A6000DF91CF911F910F910895FC011382128293
:101A70001582148280E491E09783868380EF90E062
:101A80009187808717861686158614861386128698
:101A9000178A168A158A148A138A128A118A108A5A
:101AA00010AA11AA12AA13AA81E084AB85AB17AAC7
:101AB00016AA8FEF9FEF91AF80AF17AE16AE15AE9F
:101AC00014AE13AE12AE8AE091E091838083089544
:101AD0008F929F92AF92BF92CF92DF92EF92FF923E
:101AE0000F931F93CF93DF93EC01690158012E816F
:101AF0003F81621773071CF0B90161507109888535
:101B00009985481759071CF0AC0141505109FB0158
:101B1000EC0DFD1DE217F3071CF06901C61AD70A88
:101B20009A012A0D3B1D281739071CF05C01A41AE5
:101B3000B50AE881F9818A010A0D1B1D01501109BE
:101B40009B012C0D3D1D215031090284F385E02DB0
:101B5000CE010995E881F9810484F585E02DCE0157
:101B600009959501D6010E94A6164B015C01E881FA
:101B7000F98181149104A104B10461F00684F78510
:101B8000E02DB701CE01099581E0881A9108A108DE
:101B9000B108EDCF0088F189E02DCE01DF91CF9122
:101BA0001F910F91FF90EF90DF90CF90BF90AF907B
:101BB0009F908F9009942F923F924F925F926F92D5
:101BC0007F928F929F92AF92BF92CF92DF92EF92CD
:101BD000FF920F931F93CF93DF93CDB7DEB7689734
:101BE0000FB6F894DEBF0FBECDBF988F8F8B3B0131
:101BF0005A0168014B01820E931EAB014D5F5F4F8E
:101C00005E834D83285031096C5F7F4F78010AE075
:101C100010E0A5010E94680DB5016D5F7F4F7A87C6
:101C2000698704E010E024E030E0AB01B3018F8964
:101C3000988D0E94680D140174E0271A310824E081
:101C400030E049855A85B1018F89988D0E94680DD1
:101C5000C5010696988B8F87E985FA85FA83E98313
:101C60002DEF3FEF38872F8323E0422E512C1C822B
:101C70001B82A3014A195B095A8B498B3C8A2B8A28
:101C80009E8B8D8B760109811A812D813E81A80161
:101C9000B901641975097C876B878F89988D0E94BB
:101CA000D90489849A848418950884012D813E8101
:101CB000A40189899A89E981FA818E0F9F1F9E87E5
:101CC0008D87BC018F89988D0E94D90409811A8162
:101CD0009101A8015101A40CB51CB5018F89988D03
:101CE0000E94D9046B887C882B813C81620E731E14
:101CF00084019101A401B3018F89988D0E94D904B8
:101D00008D889E884B815C81840E951E8401910193
:101D1000A401B5018F89988D0E94D904AF84B88839
:101D2000A40CB51C85019101A501B3018F89988D83
:101D30000E94D90484012D813E81A4016B857C859C
:101D40008F89988D0E94D90485012D813E81A5013E
:101D50006D857E858F89988D0E94D9048B819C81A9
:101D600001962F8138856B817C81260F371FF90101
:101D7000E80FF91FF887EF83F7FD0CC0F1E04F1A69
:101D800051082F81388524193509A90144195509AD
:101D900058874F8369817A81615071097A83698399
:101DA0009C838B83481659060CF06CCF68960FB64F
:101DB000F894DEBF0FBECDBFDF91CF911F910F9181
:101DC000FF90EF90DF90CF90BF90AF909F908F905B
:101DD0007F906F905F904F903F902F900895AF92BB
:101DE000BF92CF92DF92EF92FF920F931F93CF9308
:101DF000DF93EC016B015A01E12CF12C08E210E0B9
:101E000021E030E00E94680DA501495D5F4F01E0CF
:101E100010E02EE630E0B601CE010E94680DB6015A
:101E200063597F4F08E210E021E030E0A501CE01C8
:101E30000E94680D01E010E02EE630E0A501B60139
:101E4000CE010E94680DDF91CF911F910F91FF90FD
:101E5000EF90DF90CF90BF90AF900895CF93DF9336
:101E6000CDB7DEB7C552D1400FB6F894DEBF0FBE76
:101E7000CDBF789484B5826084BD84B5816084BD13
:101E800085B5826085BD85B5816085BD80916E0018
:101E9000816080936E001092810080918100826049
:101EA0008093810080918100816080938100809186
:101EB00080008160809380008091B1008460809375
:101EC000B1008091B00081608093B00080917A0071
:101ED000846080937A0080917A00826080937A0097
:101EE00080917A00816080937A0080917A00806886
:101EF00080937A001092C1001092EE021092EF02CD
:101F00001092180310923A031092160381E0809306
:101F100015031092F00261E082E10E946A0B61E019
:101F200083E10E946A0B8091B9008E7F8093B90093
:101F30008091B9008D7F8093B90088E48093B800C8
:101F400085E48093BC0040EF65E589E792E00E945C
:101F500051034BEF60E089E792E00E94510389E76B
:101F600092E00E94BE0361E088E00E94B60B2898D0
:101F700061E089E00E94B60B61E087E00E94B60B49
:101F800061E08DE00E94B60B61E08BE00E94B60B31
:101F900060E08CE00E94B60B29985F9A61E086E0D1
:101FA0000E94B60B5E9A1092CB038CB5837F8CBDDA
:101FB0008CB58F7D8CBD1FB7F8948091780281110C
:101FC00027C0EBE1F4E08491EFE2F4E09491E82F94
:101FD000F0E0EE0FFF1FE350FC4FA591B491EC91A0
:101FE000E92321F461E08AE00E946A0B61E08AE063
:101FF0000E94B60B8CB580618CBD8CB580648CBDA5
:1020000061E08DE00E94B60B61E08BE00E94B60BB0
:10201000809178028F5F809378021FBF8CB58C7F90
:1020200081608CBD8DB581608DBD5F9A289862E31B
:1020300070E080E090E00E94F20B289A68E770E080
:1020400080E090E00E94F20BE8E6F0E07F012FEFE5
:10205000E21AF20A64916F3FB1F1862F807C8038DA
:10206000B9F0803C49F1803411F0F701EFCF162F21
:102070001F736F01B12EFFEFCF1ADF0ABB20C9F02B
:10208000F60164918BE893E00E94850CBA94F3CF3B
:10209000162F1F736F01B12EFFEFCF1ADF0ABB207F
:1020A00041F0F60164918BE893E00E94760CBA94BB
:1020B000F3CFE10EF11CD9CF6F7370E080E090E0B8
:1020C0000E94F20BD2CF60E070E08BE893E00E94B8
:1020D000E4058CB58C7F8CBD8DB58E7F8DBD61E0A8
:1020E00089E00E94B60BE2E4F4E0E491E33019F1F8
:1020F00050F4E130D1F0E230E1F584B5806284BD86
:102100008FE788BD3AC0E73011F1E83049F1E4309B
:1021100081F5809180008062809380008FE790E05D
:1021200090938B0080938A0028C084B5806884BD1A
:102130008FE787BD22C080918000806880938000F7
:102140008FE790E0909389008093880016C080917B
:10215000B00080688093B0008FE78093B3000DC01B
:102160008091B00080628093B0008FE78093B400CC
:1021700004C060E089E00E946A0B0E94580A32E0C5
:10218000C32ED12CAA24A394B12C53E0852E912CDC
:1021900089E792E00E94BE0380917B0290917C02CD
:1021A0008639910544F08091470390914803892B2B
:1021B00071F485E70AC08C3491054CF48091470393
:1021C00090914803892B19F484E60E94170A8091A4
:1021D000850290918602892B09F439C380914703C7
:1021E00090914803892B09F094C080914903813074
:1021F00009F44DC008F446C0823009F08AC06FEF80
:102200007FEF8AE493E00E94E40592E0E92E00E08B
:1022100010E022EC31E048E250E06EE170E08AE448
:1022200093E00E94DC09EE24E39422ED31E044E6E1
:1022300050E06CE370E08AE493E00E94DC0921EE58
:1022400031E042E850E06CE370E08AE493E00E9401
:10225000DC0927EF31E040EA50E06CE370E08AE40B
:1022600093E00E94DC0923E132E04EEB50E06CE3A6
:1022700070E08AE493E00E94DC0990924803809227
:10228000470347C0B0924803A092470342C06FEF94
:102290007FEF8AE493E00E94E40522E0E22E00E072
:1022A00010E026E331E048E250E069E170E08AE4C2
:1022B00093E00E94DC09EE24E39428E431E044E654
:1022C00050E065E070E08AE493E00E94DC092DE6CE
:1022D00031E04CE850E065E070E08AE493E00E9471
:1022E000DC092FE831E040EA50E065E070E08AE484
:1022F00093E00E94DC092DEA31E04AEA50E065E013
:1023000070E08AE493E00E94DC09D0924803C09216
:1023100047038091470390914803019709F0A6C2B3
:10232000CE0103960E94350D26961FAE269780E0BB
:1023300090E0AAE7B3E42A968CAF9DAFAEAFBFAFF3
:102340002A977E012AE4E20EF11C14E1D701E12F65
:102350001D92EA95E9F762E472E0CE01855B9F4F3A
:102360000E942F0BFE01E25AFF4FDF01212F1D9229
:102370002A95E9F762E472E0CE01815A9F4F0E94EC
:102380002F0BFE01EE58FF4FDF01212F1D922A95E2
:10239000E9F762E472E0CE018D589F4F0E942F0B47
:1023A000FE01EA57FF4FDF01212F1D922A95E9F721
:1023B00062E472E0CE0189579F4F0E942F0BFE010D
:1023C000E656FF4FDF01212F1D922A95E9F762E4BF
:1023D00072E0CE0185569F4F0E942F0BFE01E25501
:1023E000FF4FDF01212F1D922A95E9F762E472E089
:1023F000CE0181559F4F0E942F0BFE01EE53FF4FE0
:10240000DF01212F1D922A95E9F762E472E0CE01E7
:102410008D539F4F0E942F0BFE01EA52FF4FDF01A9
:10242000212F1D922A95E9F762E472E0CE018952CC
:102430009F4F0E942F0BFE01E651FF4FDF01212F1E
:102440001D922A95E9F762E472E0CE0185519F4F13
:102450000E942F0BFE01E250FF4FDF011D921A95E3
:10246000E9F762E472E0CE0181509F4F0E942F0B8A
:102470008EE0E9E7F2E0DE01AE5EBE4F01900D9224
:102480008A95E1F7F701108269E070E0CE01855B83
:102490009F4F0E94F60A811106C0CE01855B9F4FB7
:1024A0000E941D0B0EC089E090E061969FAF8EAF39
:1024B000619764E272E02D968EAD9FAD2D970E94DC
:1024C000C01862961FAE629784E190E064969FAF59
:1024D0008EAF649766969FAF8EAF669768969FAFF4
:1024E0008EAF68976A969FAF8EAF6A976C969FAFD4
:1024F0008EAF6C976E969FAF8EAF6E976FEF7FEF3C
:10250000CE0103960E94E4058FEBE82E80E1F82EC1
:1025100000E510E020E530E045E550E064E170E0E2
:10252000CE0103960E94680D4EE650E068EC70E024
:10253000CE0103960E94EF0E00EE17E024E630E095
:1025400042E850E06DEC70E0CE0103960E94DB0D96
:102550009E01255B3F4F43E750E06DEC70E0CE01FC
:1025600003960E94A30AE12CF12C00E510E020E57F
:1025700030E040E050E06CED70E0CE0103960E9448
:10258000680D4AE050E064E170E0CE0103960E94DD
:10259000EF0E00EE17E024E630E04EE150E069E196
:1025A00070E0CE0103960E94DB0DEE24E39400E080
:1025B00010E02EE232E04FE050E069E170E0CE0141
:1025C00003960E94DC09E12CF12C05EA10E024E5D9
:1025D00031E045EA50E060E070E0CE0103960E94F1
:1025E000D90406EA10E024E531E046EA50E060E074
:1025F00070E0CE0103960E94D90468E372E0CE0138
:10260000805E9E4F0E942F0B61968EAD9FAD6197AD
:102610002D96CEACDFAC2D97CC5DDE4FE880F980F7
:10262000C452D140C114D10409F42AC1009711F158
:10263000E80EF91EB701CE01805E9E4F0E94F60A99
:10264000882309F41DC1C05EDE4F28813981C05244
:10265000D140CC5DDE4F88819981C452D140B60112
:10266000820F931F0E94C018CC5DDE4FF982E88272
:10267000C452D140CC5DDE4FE880F980C452D140D5
:10268000F4E0EF0EF11CB701CE01805E9E4F0E9478
:10269000F60A882309F4FAC0C05EDE4F288139812A
:1026A000C052D140CC5DDE4F88819981C452D14067
:1026B00063E472E0820F931F0E94C018CC5DDE4F6E
:1026C000F982E882C452D1409E01205E3E4F48EC20
:1026D00050E065E070E0CE0103960E94A30AC05E60
:1026E000DE4F88819981C052D1400E945017EE245C
:1026F000E39400E010E028E432E044EB50E066EEC2
:1027000070E0CE0103960E94DC092FE432E048EC31
:1027100050E066EE70E0CE0103960E94DC0926E5EB
:1027200032E04CED50E066EE70E0CE0103960E9480
:10273000DC091A82198260E0CE0101960E948C04A5
:10274000CE018E5E9E4F0E94BE03CC5EDE4F88811E
:102750009981C451D1408639910534F089819A819B
:10276000892B71F465E708C08C3491054CF489819C
:102770009A81892B29F464E6CE0101960E948C048B
:10278000C25EDE4F88819981CE51D140892B09F4F8
:1027900054C089819A81892B09F04FC025968FAD4D
:1027A000259781114AC00FEF1FEF24E630E04EE17C
:1027B00050E069E170E0CE0103960E94DB0D2A969D
:1027C000CCACDDACEEACFFAC2A9720E030E048E4C6
:1027D00052E4C701B6010E94A116181644F520E084
:1027E00030E048E452E4C701B6010E948C152A96F5
:1027F0006CAF7DAF8EAF9FAF2A9720E030E04AE705
:1028000053E40E94F91520E030E048EC52E40E94C5
:1028100088140E946B1600EE17E09B014EE150E019
:1028200069E170E0CE0103960E94DB0D06C02A9696
:102830001CAE1DAE1EAE1FAE2A972FEF80E792E0B2
:10284000215080409040E1F700C0000079CF809196
:10285000830290918402892B49F0809147039091E3
:1028600048030297029710F40E94580AAFEFB0E7AE
:10287000E2E0A150B040E040E1F700C0000088CCA9
:10288000CE01805E9E4F0E941D0BF4CECE01805E75
:102890009E4F0E941D0B18CFEBE3F3E013821282D0
:1028A00088EE93E0A0E0B0E084839583A683B783AD
:1028B00084E291E0918380838BE893E00E94350D60
:1028C0008AE493E00C94350D990F0008550FAA0B7C
:1028D000E0E8FEEF16161706E807F907C0F0121633
:1028E0001306E407F50798F0621B730B840B950B36
:1028F00039F40A2661F0232B242B252B21F408958B
:102900000A2609F4A140A6958FEF811D811D089527
:102910000E949B140C940C150E94FE1438F00E9427
:10292000051520F0952311F00C94F5140C94FB146C
:1029300011240C9440150E941D1570F3959FC1F34E
:10294000950F50E0551F629FF001729FBB27F00D5D
:10295000B11D639FAA27F00DB11DAA1F649F6627B2
:10296000B00DA11D661F829F2227B00DA11D621F01
:10297000739FB00DA11D621F839FA00D611D221FBB
:10298000749F3327A00D611D231F849F600D211D9F
:10299000822F762F6A2F11249F5750409AF0F1F022
:1029A00088234AF0EE0FFF1FBB1F661F771F881F8B
:1029B00091505040A9F79E3F510580F00C94F514BA
:1029C0000C9440155F3FE4F3983ED4F386957795D9
:1029D0006795B795F795E7959F5FC1F7FE2B880F31
:1029E000911D9695879597F9089597F99F6780E8C7
:1029F00070E060E008959FEF80EC089500240A9451
:102A00001616170618060906089500240A941216C9
:102A10001306140605060895092E0394000C11F4FC
:102A2000882352F0BB0F40F4BF2B11F460FF04C0A9
:102A30006F5F7F4F8F4F9F4F089557FD9058440F02
:102A4000551F59F05F3F71F04795880F97FB991F0D
:102A500061F09F3F79F087950895121613061406CA
:102A6000551FF2CF4695F1DF08C016161706180657
:102A7000991FF1CF86957105610508940895E89432
:102A8000BB2766277727CB0197F908952F923F92AE
:102A90004F925F926F927F928F929F92AF92BF926E
:102AA000CF92DF92EF92FF920F931F93CF93DF931A
:102AB000CDB7DEB7CA1BDB0B0FB6F894DEBF0FBE77
:102AC000CDBF09942A88398848885F846E847D84C4
:102AD0008C849B84AA84B984C884DF80EE80FD80C6
:102AE0000C811B81AA81B981CE0FD11D0FB6F8943C
:102AF000DEBF0FBECDBFED010895A29FB001B39F11
:102B0000C001A39F700D811D1124911DB29F700DF6
:102B1000811D1124911D08955058BB27AA270E949A
:102B2000A4150C940C150E94FE1438F00E94051593
:102B300020F039F49F3F19F426F40C94FB140EF4A2
:102B4000E095E7FB0C94F514E92F0E941D1558F34E
:102B5000BA17620773078407950720F079F4A6F582
:102B60000C943F150EF4E0950B2EBA2FA02D0B01FF
:102B7000B90190010C01CA01A0011124FF27591BC2
:102B800099F0593F50F4503E68F11A16F040A22FC8
:102B9000232F342F4427585FF3CF46953795279539
:102BA000A795F0405395C9F77EF41F16BA0B620B38
:102BB000730B840BBAF09150A1F0FF0FBB1F661F7F
:102BC000771F881FC2F70EC0BA0F621F731F841FC2
:102BD00048F4879577956795B795F7959E3F08F0E8
:102BE000B0CF9395880F08F09927EE0F97958795AA
:102BF00008950E940D160C940C150E94051558F0AE
:102C00000E94FE1440F029F45F3F29F00C94F51463
:102C100051110C9440150C94FB140E941D1568F37F
:102C20009923B1F3552391F3951B550BBB27AA2785
:102C300062177307840738F09F5F5F4F220F331FBF
:102C4000441FAA1FA9F335D00E2E3AF0E0E832D087
:102C500091505040E695001CCAF72BD0FE2F29D08A
:102C6000660F771F881FBB1F261737074807AB075C
:102C7000B0E809F0BB0B802DBF01FF2793585F4FD1
:102C80003AF09E3F510578F00C94F5140C944015E1
:102C90005F3FE4F3983ED4F3869577956795B795B3
:102CA000F7959F5FC9F7880F911D9695879597F9BE
:102CB0000895E1E0660F771F881FBB1F6217730737
:102CC0008407BA0720F0621B730B840BBA0BEE1F4C
:102CD00088F7E09508950E9472166894B1110C94DB
:102CE000401508950E94251588F09F5798F0B92F38
:102CF0009927B751B0F0E1F0660F771F881F991F31
:102D00001AF0BA95C9F714C0B13091F00E943F157E
:102D1000B1E008950C943F15672F782F8827B85F8E
:102D200039F0B93FCCF3869577956795B395D9F788
:102D30003EF490958095709561957F4F8F4F9F4F92
:102D400008950E94641408F48FEF08950E947D1581
:102D5000332312F48A1B9B0B0C94B0160E947D1532
:102D6000B7FF0895821B930B0895EE0FFF1F059088
:102D7000F491E02D0994CF93DF938230910510F404
:102D800082E090E0E091D803F091D90320E030E0B8
:102D9000C0E0D0E0309711F14081518148175907C8
:102DA000C0F04817590761F482819381209719F088
:102DB0009B838A832BC09093D9038093D80326C02A
:102DC0002115310519F04217530718F49A01BE0175
:102DD000DF01EF010280F381E02DDCCF2115310509
:102DE00009F1281B390B2430310590F412968D918E
:102DF0009C9113976115710521F0FB0193838283E8
:102E000004C09093D9038093D803FD01329644C047
:102E1000FD01E20FF31F81939193225031092D930D
:102E20003C933AC02091D6033091D703232B41F431
:102E300020910201309103013093D7032093D603F0
:102E400020910001309101012115310541F42DB788
:102E50003EB74091040150910501241B350BE091D0
:102E6000D603F091D703E217F307A0F42E1B3F0B14
:102E70002817390778F0AC014E5F5F4F24173507EC
:102E800048F04E0F5F1F5093D7034093D6038193B2
:102E9000919302C0E0E0F0E0CF01DF91CF9108957F
:102EA0000F931F93CF93DF93009709F48CC0FC011D
:102EB0003297138212820091D8031091D903011521
:102EC000110581F420813181820F931F2091D60357
:102ED0003091D7032817390779F5F093D703E0939A
:102EE000D60371C0D80140E050E0AE17BF0750F4E0
:102EF00012962D913C911397AD012115310509F1E1
:102F0000D901F3CF9D01DA0133832283608171817E
:102F1000860F971F8217930769F4EC012881398186
:102F2000260F371F2E5F3F4F318320838A819B817D
:102F300093838283452B29F4F093D903E093D8033C
:102F400042C01396FC93EE931297ED01499159916B
:102F50009E01240F351FE217F30771F480819181E0
:102F6000840F951F029611969C938E938281938174
:102F700013969C938E931297E0E0F0E0D80112969E
:102F80008D919C911397009719F0F8018C01F6CF61
:102F90008D919C9198012E5F3F4F820F931F20913E
:102FA000D6033091D7032817390769F4309729F4ED
:102FB0001092D9031092D80302C013821282109388
:102FC000D7030093D603DF91CF911F910F910895FE
:102FD000A0E0B0E0EEEEF7E10C944A15EC010097AA
:102FE00021F4CB010E94BB16B8C0FC01E60FF71F0D
:102FF0009C0122503109E217F30708F4ACC0D90153
:103000000D911C91119706171707B0F005301105A7
:1030100008F49FC0C80104978617970708F499C061
:1030200002501109061B170B019311936D937C93AA
:10303000CF010E9450178DC05B01A01AB10A4C014C
:10304000800E911EA091D803B091D90340E050E0CA
:10305000E12CF12C109709F44AC0A815B905D1F557
:103060006D907C901197630182E0C80ED11CCA1448
:10307000DB0480F1A3014A195B096A0182E0C80EF2
:10308000D11C1296BC9012971396AC91B5E0CB165A
:10309000D10440F0B282A38351834083D9016D9360
:1030A0007C930AC00E5F1F4FC301800F911FF9016F
:1030B00091838083EB2DFA2FE114F10431F0D701D5
:1030C0001396FC93EE93129744C0F093D903E093C8
:1030D000D8033FC08D919C9111974817590708F468
:1030E000AC017D0112960D90BC91A02DB3CF8091C3
:1030F000D6039091D70388159905E1F44617570731
:10310000C8F48091000190910101009741F48DB7BE
:103110009EB74091040150910501841B950BE8175F
:10312000F907C8F4F093D703E093D603F90171834C
:1031300060830FC0CB010E94BB167C01009759F041
:10314000A801BE010E94B718CE010E945017C70106
:1031500004C0CE0102C080E090E0CDB7DEB7EEE063
:103160000C94661581E090E0F8940C94C718FB016C
:10317000DC0102C001900D9241505040D8F70895F3
:10318000FB01DC0101900D920020E1F70895F89415
:02319000FFCF6F
:103192000000DA038000000000004108A1074E038E
:1031A2004D03C80C990C940C1F08F107BF08AD0819
:1031B200000000001E03EE024E03CA029002DA0271
:1031C200CB022D2D3E00446F776E6D6F6E204869E5
:1031D200676873636F7265007468726F77206E65DB
:1031E20077204E6F74496D706C656D656E746564A1
:1031F200457863657074696F6E28293B0044727567
:103202006B206F70205A206F6D2074657275672075
:103212007465206761616E2C206B6E756C2E0028C0
:103222004465206372656469747320646F656E20FF
:1032320068657420616C2077656C212900284761DC
:103242002064616172206D616172206865656E2E15
:103252002900446F776E6D6F6E20437265646974E6
:103262007300427269616E202D2044696E67656E3B
:10327200004A61636F62202D20416E646572652091
:1032820064696E67656E004E6565636F62202D200E
:103292004D65657220616E646572652064696E6752
:1032A200656E005765736C6579202D204465207228
:1032B200657374004779617261646F776E004D695E
:1032C2007373696E676E6F00576861742077696CFB
:1032D2006C200020646F3F0041747461636B005383
:1032E2007769746368005261676571756974004437
:1032F2006F776E6D6F6E20506F6B6573686F7700BE
:08330200426174746C65000067
:107E0000112484B714BE81FFF0D085E080938100F7
:107E100082E08093C00088E18093C10086E0809377
:107E2000C20080E18093C4008EE0C9D0259A86E02C
:107E300020E33CEF91E0309385002093840096BBD3
:107E4000B09BFECF1D9AA8958150A9F7CC24DD24C4
:107E500088248394B5E0AB2EA1E19A2EF3E0BF2EE7
:107E6000A2D0813461F49FD0082FAFD0023811F036
:107E7000013811F484E001C083E08DD089C08234E0
:107E800011F484E103C0853419F485E0A6D080C0E4
:107E9000853579F488D0E82EFF2485D0082F10E0AE
:107EA000102F00270E291F29000F111F8ED06801E7
:107EB0006FC0863521F484E090D080E0DECF843638
:107EC00009F040C070D06FD0082F6DD080E0C81688
:107ED00080E7D80618F4F601B7BEE895C0E0D1E017
:107EE00062D089930C17E1F7F0E0CF16F0E7DF06D8
:107EF00018F0F601B7BEE89568D007B600FCFDCFD4
:107F0000A601A0E0B1E02C9130E011968C91119780
:107F100090E0982F8827822B932B1296FA010C0160
:107F200087BEE89511244E5F5F4FF1E0A038BF0790
:107F300051F7F601A7BEE89507B600FCFDCF97BE46
:107F4000E89526C08437B1F42ED02DD0F82E2BD052
:107F50003CD0F601EF2C8F010F5F1F4F84911BD097
:107F6000EA94F801C1F70894C11CD11CFA94CF0C13
:107F7000D11C0EC0853739F428D08EE10CD085E9AC
:107F80000AD08FE07ACF813511F488E018D01DD067
:107F900080E101D065CF982F8091C00085FFFCCF94
:107FA0009093C60008958091C00087FFFCCF809118
:107FB000C00084FD01C0A8958091C6000895E0E648
:107FC000F0E098E1908380830895EDDF803219F02E
:107FD00088E0F5DFFFCF84E1DECF1F93182FE3DFCA
:107FE0001150E9F7F2DF1F91089580E0E8DFEE27F6
:047FF000FF270994CA
:027FFE00040479
:0400000300007E007B
:00000001FF