:100000000C9428020C9450020C9450020C94500250
:100010000C9450020C9450020C9450020C94500218
:100020000C9450020C9450020C9450020C94500208
:100030000C9450020C9450020C9450020C945002F8
:100040000C94220A0C9450020C9450020C9450020E
:100050000C9450020C9450020C9450020C945002D8
:100060000C94AF050C9450024128D441CF830083F7
:100070003041ED846403128141E88385017941CBED
:1000800085392C00340241F7812041EA8200004189
:10009000C0812641C1811141C582353E41C781BE23
:1000A00041B182001B41F281084126810141E08F6C
:1000B0001F1A180A0F064587320A07020705004172
:1000C000E18F0025270510093A784D05180D383ABB
:1000D0001F41B6840A82270041B78107413A815502
:1000E000413681E8412A82000082013F412B820093
:1000F000008200EF4111FCFC4129D4FFFF00000009
:10010000000000000030787830300030006C6C6CFB
:1001100000000000006C6CFE6CFE6C6C00307CC05B
:10012000780CF8300000C6CC183066C600386C3841
:1001300076DCCC76006060C0000000000018306003
:100140006060301800603018181830600000663C9D
:10015000FF3C660000003030FC3030000000000042
:100160000000703060000000FC0000000000000093
:100170000000303000060C183060C0800078CCDC05
:10018000FCECCC780030F030303030FC0078CC0C17
:100190003860CCFC0078CC0C380CCC78001C3C6C63
:1001A000CCFE0C0C00FCC0F80C0CCC78003860C005
:1001B000F8CCCC7800FCCC0C183060600078CCCC4B
:1001C00078CCCC780078CCCC7C0C18700000003057
:1001D0003000303000000030300070306018306087
:1001E000C0603018000000FC00FC00000060301807
:1001F0000C1830600078CC0C18300030007CC6DE63
:10020000DEDEC078003078CCCCFCCCCC00FC66665E
:100210007C6666FC003C66C0C0C0663C00FC6C6648
:1002200066666CFC00FE6268786862FE00FE6268CA
:10023000786860F0003C66C0C0CE663E00CCCCCC96
:10024000FCCCCCCC0078303030303078001E0C0C38
:100250000CCCCC7800E6666C786C66E600F06060EA
:10026000606266FE00C6EEFED6C6C6C600C6E6F6EC
:10027000DECEC6C600386CC6C6C66C3800FC6666E4
:100280007C6060F00078CCCCCCDC781C00FC66662E
:100290007C786CE60078CCE0381CCC7800FCB4307C
:1002A0003030307800CCCCCCCCCCCCFC00CCCCCC1E
:1002B000CCCC783000C6C6C6D6FEEEC600C6C66C2C
:1002C000386CC6C600CCCCCC7830307800FECC98E8
:1002D0003062C6FE007860606060607800C06030A8
:1002E000180C060200781818181818780010386CC6
:1002F000C60000000000000000000000FF303018C1
:1003000000000000000000780C7CCC7600E0607CEF
:10031000666666BC00000078CCC0CC78001C0C0C73
:100320007CCCCC7600000078CCFCC07800386C60C7
:10033000F06060F000000076CCCC7C0CF8E0606CE3
:10034000766666E60030007030303078001800784D
:10035000181818D870E060666C786CE60070303061
:1003600030303078000000ECFED6C6C6000000F841
:10037000CCCCCCCC00000078CCCCCC78000000DC1D
:1003800066667C60F0000076CCCC7C0C1E0000D849
:100390006C6C60F00000007CC0780CF80010307CC1
:1003A00030303418000000CCCCCCCC76000000CC2F
:1003B000CCCC7830000000C6C6D6FE6C000000C66B
:1003C0006C386CC6000000CCCCCC7C0CF80000FC77
:1003D000983064FC001C3030E030301C00181818D5
:1003E0000018181800E030301C3030E00076DC00D7
:1003F000000000000010386CC6C6C6FE00000000F9
:1004000000240027002A0000000000250028002BFF
:1004100000040404040404040402020202020203AD
:1004200003030303030102040810204080010204B7
:10043000081020010204081020000000080002013A
:1004400000000304070000000000000000000C0D85
:1004500011241FBECFEFD8E0DEBFCDBF23E0A6E35F
:10046000B2E001C01D92A339B207E1F712E0A0E0AB
:10047000B1E0E6E5FBE102C005900D92A633B107BD
:10048000D9F712E0C8E2D2E004C02197FE010E9431
:100490009E0DC732D107C9F70E94BE0A0C94A90D60
:1004A0000C940000CF92EF92FF920F931F93CF9383
:1004B000DF93EC01262F6A3081F48EAD9FAD9BAFA8
:1004C0008AAF2CA92F778CAD9DAD38E0239F800D8E
:1004D000911D11249DAF8CAF47C0862F8B7F893033
:1004E00009F442C06AAD7BAD203219F46115710583
:1004F000D9F1E881F981E8ACF9AC0EA91FA94CAD9E
:100500005DAD0488F589E02DCCA8CE010995BC012C
:100510009BAF8AAF8DA9882339F12CA92F77822F21
:1005200090E048EF4203900111244E815F81420F19
:10053000531F46175707C4F44EAD5FAD5BAF4AAFCC
:1005400043E0880F991F4A95E1F74CAD5DAD840FEC
:10055000951F9DAF8CAF48855985240F351F2817EF
:10056000390714F41DAE1CAE81E090E0DF91CF910D
:100570001F910F91FF90EF90CF900895CF92EF923F
:10058000FF920F931F93DC01ED91FC910288F38998
:10059000E02D09951F910F91FF90EF90CF90089556
:1005A0002F923F924F925F926F927F928F929F9283
:1005B000AF92BF92CF92DF92EF92FF920F931F9371
:1005C000CF93DF9300D01F92CDB7DEB79B838A8392
:1005D000480188E0280290011124D901A350B040BD
:1005E0005D01BC2DBF77CB2EEA81FB81868197818F
:1005F000F1E0FB1708F463C06B0128E0C20ED11CC8
:100600008C159D050CF46EC0AA81BB811896ED91E6
:10061000FC9119979A01285F3F4FE217F3070CF4FA
:1006200061C0AA81BB81ED91FC9111978A01095F9C
:100630001F4F9B01295F3F4F0284F385E02DCD01C1
:100640000995AA81BB81ED91FC9111970484F585F0
:10065000E02DCD0109958501085F1F4FF5014490FC
:10066000FFEFAF1ABF0A98E0692E712C20E8522ED6
:10067000AA81BB81ED91FC911197852D842106847F
:10068000F785E02D882319F0B401CD0103C0B7012F
:100690008A819B8109955694B1E06B1A710841F7E4
:1006A000A016B106D9F6AA81BB81ED91FC911197F4
:1006B0000088F189E02DCD010995C60176C0B8E02A
:1006C000CB9E800111243B01600E711E861597059B
:1006D0004CF0040F151FEA81FB812085318520171E
:1006E000310714F4019661C0AA81BB81ED91FC91A0
:1006F0001197015011090284F385E02D93012150D7
:100700003109CD010995AA81BB81ED91FC91119729
:100710000484F585E02DCD0109952501B8E04B0E47
:10072000511CF5012490FFEFAF1ABF0A3C2C08E0E2
:1007300010E080E8D82E8D2D82212C2DA1F0AA81E9
:10074000BB81ED91FC9111970684F785E02DB401F2
:10075000CD01298309952981215089F7D69401502B
:10076000110949F710C0AA81BB81ED91FC91119745
:100770000684F785E02DB701CD01298309952981EC
:10078000215089F7EBCF3A943110D1CFA414B5049E
:1007900009F0C7CFAA81BB81ED91FC911197008828
:1007A000F189E02DCD010995C3010F900F900F90B5
:1007B000DF91CF911F910F91FF90EF90DF90CF903D
:1007C000BF90AF909F908F907F906F905F904F9071
:1007D0003F902F90089585ED8093BC008091BC00E0
:1007E00084FDFCCF1092C602089540915902262F35
:1007F00030E0240F311D21323105DCF42091C60296
:100800002430C9F4FC0180E090E0861758F4309160
:1008100059022191DC01A95CBD4FA30FB11D2C939E
:100820000196F3CF80915902680F6093590280E0DE
:10083000089581E0089582E008950895E0917F028F
:1008400080917E02E81730F4F0E0E058FD4F80819F
:1008500090E008958FEF9FEF089590917F0280912F
:100860007E02981750F4E92FF0E0E058FD4F208108
:1008700030E09F5F90937F0202C02FEF3FEFC901EE
:10088000089580917E0290E020917F02821B910961
:100890000895CF92DF92EF92FF920F931F93CF9321
:1008A000DF937C01262F972F8A018091E90288230C
:1008B00091F0C62FD72F6E01C40ED51ECC15DD05C5
:1008C00071F06991D701ED91FC910190F081E02DDB
:1008D000C7010995F3CF642F822F0E94F503C80149
:1008E000DF91CF911F910F91FF90EF90DF90CF900C
:1008F0000895CF93DF931F92CDB7DEB76983209120
:10090000E9022223D1F02091E702203240F021E0D9
:1009100030E0FC013383228380E090E015C08091B9
:10092000E802E82FF0E0E953FD4F998190838F5F53
:100930008093E8028093E70205C061E0CE01019652
:100940000E94F50381E090E00F90DF91CF91089530
:10095000089580E090E008950F931F93CF93DF9365
:10096000EC016930710519F06A35710571F48AE599
:1009700090E09D838C8380EF90E09F838E8380E462
:1009800091E09987888718E434C06231710519F0C5
:10099000643B710571F484EB90E09D838C8380E46B
:1009A00091E09F838E8380EF90E09987888718E39A
:1009B00020C06B31710521F07E7F6E30710571F4BE
:1009C0008EE091E09D838C8380EF90E09F838E8307
:1009D00080E491E09987888718E80BC01D821C820B
:1009E00080E491E09F838E8380EF90E099878887F1
:1009F00018EE66E3CE010E947B0A612FCE010E94B1
:100A00006C0AE881F98108851985015011092E8148
:100A10003F81215031090284F385E02D40E050E010
:100A200060E070E0CE010995DF91CF911F910F91A9
:100A300008958EBD00000DB407FEFDCF8EB508955C
:100A40008F929F92AF92BF92EF92FF920F931F935C
:100A5000CF93DF93EC017B01E881F981088519854B
:100A6000015011092E813F81215031090284F38503
:100A7000E02D40E050E060E070E00995E881F98108
:100A80000484F585E02DCE010995AE81BF812885CE
:100A900039850E948F0D4B015C0183E0B694A794C9
:100AA000979487948A95D1F7E881F981811491040C
:100AB000A104B10409F444C00684F785E02DB70110
:100AC000CE010995E881F9810684F785E02DB7010B
:100AD000CE010995E881F9810684F785E02DB701FB
:100AE000CE010995E881F9810684F785E02DB701EB
:100AF000CE010995E881F9810684F785E02DB701DB
:100B0000CE010995E881F9810684F785E02DB701CA
:100B1000CE010995E881F9810684F785E02DB701BA
:100B2000CE010995E881F9810684F785E02DB701AA
:100B3000CE01099581E0881A9108A108B108B4CFC7
:100B40000088F189E02DCE01DF91CF911F910F91A7
:100B5000FF90EF90BF90AF909F908F9009941F925D
:100B60000F920FB60F9211242F933F934F935F93E1
:100B70006F937F938F939F93AF93BF93EF93FF9365
:100B80008091B900887F803609F49CC068F588326E
:100B900009F45BC090F4803109F454C038F4882320
:100BA00009F4F6C0883009F44DC0F6C0883109F464
:100BB0004CC0803209F45DC0EFC0803409F468C0D5
:100BC00048F4803309F455C0883309F0E5C08093B8
:100BD000C402D8C0803509F44FC0883509F45DC01F
:100BE000883409F0D9C0D6C0883909F4C7C0A8F440
:100BF000883709F467C038F4883609F463C0803751
:100C000009F460C0C9C0883809F4B8C0803909F453
:100C10005FC0803809F0C0C05BC0803B09F486C06B
:100C200038F4803A09F466C0883A09F47FC0B4C049
:100C3000803C09F4A7C0883C09F4A4C0883B09F4AF
:100C40008AC0AAC08091A10210C09091C302809175
:100C5000C202981770F5E091C30281E08E0F809375
:100C6000C302F0E0EE55FD4F80818093BB0085EC20
:100C700086C08093C4028EC0E091C30281E08E0FD3
:100C80008093C3028091BB00F0E0EE55FD4F80835E
:100C90009091C3028091C2026EC0E091C30281E0D4
:100CA0008E0F8093C3028091BB00F0E0EE55FD4FA4
:100CB00080838091C50281116DC081E08093A00284
:100CC00084EA61C083E08093C60210927D02CFCF98
:100CD00080917D02803208F051C0E0917D0281E078
:100CE0008E0F80937D028091BB00F0E0E35AFD4FB0
:100CF0008083BDCF85EC8093BC001092C6028091AA
:100D00007D02803230F4E0917D02F0E0E35AFD4F45
:100D1000108260917D0270E0E0915B02F0915C02D4
:100D20008DE592E0099510927D0236C084E08093B3
:100D3000C60210925A0210925902E0915702F091A5
:100D40005802099580915902811105C081E0809374
:100D5000590210923702E0915A0281E08E0F80937F
:100D60005A02F0E0E95CFD4F80818093BB009091D6
:100D70005A0280915902981708F479CF85E8809338
:100D8000BC000AC085EC8093BC001092C60204C06F
:100D90001092C4020E94EB03FF91EF91BF91AF91BB
:100DA0009F918F917F916F915F914F913F912F9183
:100DB0000F900FBE0F901F901895CF92DF92EF9279
:100DC000FF920F931F93CF93DF936C017A018B01F6
:100DD000C0E0D0E0CE15DF0589F0D8016D918D011E
:100DE000D601ED91FC910190F081E02DC6010995AD
:100DF000892B11F47E0102C02196ECCFC701DF914F
:100E0000CF911F910F91FF90EF90DF90CF900895B9
:100E10003FB7F89480918E0390918F03A091900337
:100E2000B091910326B5A89B05C02F3F19F00196FC
:100E3000A11DB11D3FBFBA2FA92F982F8827820F60
:100E4000911DA11DB11DBC01CD0142E0660F771FB0
:100E5000881F991F4A95D1F708955F9A08950E94B7
:100E6000A40DCF93DF931F92CDB7DEB7872F5F9886
:100E70002B9A2D989CB59F7B9CBD2D9A9CB5906418
:100E80009CBD69830E9419052B9A2D989CB59F7B68
:100E90009CBD2D9A9CB590649CBD6981862F0E9453
:100EA00019055F9A0F90DF91CF910895CF93DF934B
:100EB0001F92CDB7DEB7872F2B9A2D989CB59F7BBD
:100EC0009CBD2D9A9CB590649CBD69830E941905B8
:100ED0002B9A2D989CB59F7B9CBD2D9A9CB59064B8
:100EE0009CBD6981862F0F90DF91CF910C941905DD
:100EF0008F929F92AF92BF92CF92DF92EF92FF922A
:100F00000F931F93CF93DF935B014901D02EEA012A
:100F10002991222391F0CD2CEE24EA94FE2C840119
:100F2000A501BC0185E093E00E94D00220910B0353
:100F300030910C03281739075CF7DF91CF911F918F
:100F40000F91FF90EF90DF90CF90BF90AF909F9068
:100F50008F9008950F93CF93C82F6091040388E278
:100F6000689FB00111246C597F4F01E02FEF3FEFD4
:100F70004AE152E084E690E00E94780790910403F1
:100F8000C53721F4992349F0915005C0C43629F49E
:100F9000923019F09F5F909304036091040388E2FC
:100FA000689FB00111246C597F4F01E020E030E0D0
:100FB0004AE152E084E690E00E947807CF910F91D9
:100FC00008950F9310924703109246036FEF7FEF3F
:100FD00085E093E00E94200502E020E030E04EE151
:100FE00052E068E270E08EE190E00E94780701E054
:100FF00020E030E04FE252E064E670E082E890E00A
:101000000E94780720E030E044E351E06CE870E0B3
:1010100082E890E00E94780720E030E040EC51E068
:1010200064EB70E082E890E00E94780780914603CC
:1010300090914703892B21F480E00F910C94AA072B
:101040000F91089590E0FC01E75CFB4F3491FC01A7
:10105000EB5DFB4F2491FC01EF5EFB4FE491EE232F
:1010600009F43BC0332339F1333091F038F4313097
:10107000A9F0323001F584B58F7D12C0373091F080
:101080003830A1F03430B9F4809180008F7D03C0F6
:10109000809180008F77809380000DC084B58F771A
:1010A00084BD09C08091B0008F7703C08091B000EB
:1010B0008F7D8093B000F0E0EE0FFF1FE95FFB4FE4
:1010C000A591B4918FB7F894EC91611103C020956C
:1010D0002E2301C02E2B2C938FBF0895CF93DF9327
:1010E00090E0FC01EB5DFB4F2491FC01EF5EFB4FB8
:1010F0008491882361F190E0880F991FFC01E350EF
:10110000FC4FC591D491FC01E95FFB4FA591B491CF
:10111000611109C09FB7F894888120958223888344
:10112000EC912E230BC0623061F49FB7F8943881A4
:10113000822F809583238883EC912E2B2C939FBF45
:1011400006C08FB7F894E8812E2B28838FBFDF91DC
:10115000CF9108958F929F92AF92BF92CF92DF92DC
:10116000EF92FF926B017C010E9408074B015C012A
:10117000C114D104E104F104F1F00E940807DC017C
:10118000CB0188199909AA09BB09883E9340A1059A
:10119000B10570F321E0C21AD108E108F10888EE28
:1011A000880E83E0981EA11CB11CC114D104E10477
:1011B000F10419F7DDCFFF90EF90DF90CF90BF9053
:1011C000AF909F908F900895CF93C82F81E0809328
:1011D000E90282E5809392031092E8021092E702FE
:1011E00088EF92E00E9479046C2F88EF92E00E94D1
:1011F00079048091E702813208F045C09091C602DF
:101200009111FCCF92E09093C60291E09093C502B9
:101210009FEF9093C4021092C3028093C202A7EC86
:10122000B2E022EA32E0F9019E2F921B981718F4DF
:101230009D919193F9CF1092A1028091A102846AAD
:101240008093A1028091A002813061F41092A002EB
:101250008091A1028093BB008091BC0083FDF8CFF8
:1012600085EC01C085EE8093BC008091C60282307F
:10127000E1F38091C4028F3F31F08091C40280324B
:1012800011F08091C4021092E8021092E7021092CD
:10129000E9026AE070E080E090E0CF910C94AA0847
:1012A000EF92FF921F93CF93DF93CDB7DEB72C97CA
:1012B0000FB6F894DEBF0FBECDBF8091C60281117C
:1012C000FCCF81E08093C6028093C5029FEF90938C
:1012D000C4021092C30295E09093C2028093A102CF
:1012E0008091A102846A8093A1028091A002813042
:1012F00061F41092A0028091A1028093BB008091C2
:10130000BC0083FDF8CF85EC01C085EE8093BC0066
:101310008091C6028130E1F38091C302863018F4D7
:101320001091C30201C016E0A2EAB2E020E832E068
:10133000F9018E2F821B811718F48D918193F9CFBB
:1013400010927F0210937E02CE0101967C01809163
:101350007F02181749F088EF92E00E942D04F701F0
:10136000819391937F01F3CF89819A819093EB02CE
:101370008093EA028B819C819093ED028093EC0232
:101380008B859C859C013595279535952795A901D9
:10139000437055272D813E81220F331F220F331FAB
:1013A000242B352B3093EF022093EE029C0174E046
:1013B000359527957A95E1F7A901437055272F8137
:1013C0003885220F331F220F331F242B352B3093E8
:1013D000F1022093F0029C01F6E035952795FA95ED
:1013E000E1F7A9014370552729853A85220F331F5C
:1013F000220F331F242B352B3093F3022093F2025C
:101400009C0121703327F1E02F273093F5022093C0
:10141000F40221E030E081FF02C020E030E03093B0
:10142000F7022093F60260E080E02C960FB6F89465
:10143000DEBF0FBECDBFDF91CF911F91FF90EF9028
:101440000C94E4081F920F920FB60F9211242F9361
:101450003F938F939F93AF93BF9380918A03909113
:101460008B03A0918C03B0918D033091890323E00D
:10147000230F2D3720F40196A11DB11D05C026E8CC
:10148000230F0296A11DB11D2093890380938A0327
:1014900090938B03A0938C03B0938D0380918E0364
:1014A00090918F03A0919003B09191030196A11D9B
:1014B000B11D80938E0390938F03A0939003B093FC
:1014C0009103BF91AF919F918F913F912F910F9079
:1014D0000FBE0F901F901895862F5F982B9A2D980E
:1014E0009CB59F7B9CBD2D9A9CB590649CBD0E9431
:1014F00019055F9A0895862F5F982B982D989CB5B3
:101500009F7B9CBD2D9A9CB590649CBD0E94190543
:101510005F9A08956CE20E947B0A5F980895AF92EB
:10152000BF92CF92DF92EF92FF920F931F93CF93D0
:10153000DF93EC015B017A0169016AE20E947B0A98
:10154000B501CE010E943107B601CE010E943107DC
:101550006BE2CE010E947B0AB701CE010E943107E7
:10156000B801CE01DF91CF911F910F91FF90EF90C5
:10157000DF90CF90BF90AF900C943107789484B5F2
:10158000826084BD84B5816084BD85B5826085BD7F
:1015900085B5816085BD80916E00816080936E000D
:1015A00010928100809181008260809381008091FF
:1015B00081008160809381008091800081608093B0
:1015C00080008091B10084608093B1008091B00070
:1015D00081608093B00080917A00846080937A006B
:1015E00080917A00826080937A0080917A00816095
:1015F00080937A0080917A00806880937A001092BC
:10160000C10010927F0210927E021092E8021092A6
:10161000E7021092C60281E08093C5021092A002F8
:1016200061E082E10E94220861E083E10E942208D9
:101630008091B9008E7F8093B9008091B9008D7F31
:101640008093B90088E48093B80085E48093BC005F
:1016500060EF85E50E94E4086BEF80E00E94E408FB
:101660000E94500961E088E00E946E08289861E0BD
:1016700089E00E946E0861E087E00E946E0861E0E8
:101680008DE00E946E0861E08BE00E946E0860E0D1
:101690008CE00E946E0829985F9A61E086E00E94C3
:1016A0006E085E9A109288038CB5837F8CBD8CB5D2
:1016B0008F7D8CBDCFB7F89480913602811127C001
:1016C000EBE1F4E08491EFE2F4E09491E82FF0E0B4
:1016D000EE0FFF1FE350FC4FA591B491EC91E9236D
:1016E00021F461E08AE00E94220861E08AE00E9421
:1016F0006E088CB580618CBD8CB580648CBD61E05A
:101700008DE00E946E0861E08BE00E946E0880917F
:1017100036028F5F80933602CFBF8CB58C7F81609D
:101720008CBD8DB581608DBD5F9A289862E370E0B5
:1017300080E090E00E94AA08289A68E770E080E0C4
:1017400090E00E94AA08E8E6F0E08F010F5F1F4FCB
:1017500064916F3FB1F1862F807C8038B9F0803C76
:1017600049F1803411F0F801F0CFC62FCF737F011B
:10177000DC2FFFEFEF1AFF0ADD23C9F0F7016491B8
:1017800088E493E00E947B0AD150F3CFC62FCF7339
:101790007F01DC2FFFEFEF1AFF0ADD2341F0F70195
:1017A000649188E493E00E946C0AD150F3CF0C0F4F
:1017B000111DD9CF6F7370E080E090E00E94AA08FD
:1017C000D2CF60E070E088E493E00E9420058CB501
:1017D0008C7F8CBD8DB58E7F8DBD61E089E00E94D0
:1017E0006E08E2E4F4E0E491E33019F150F4E13002
:1017F000D1F0E230E1F584B5806284BD8FE788BD29
:101800003AC0E73011F1E83049F1E43081F58091D8
:1018100080008062809380008FE790E090938B003F
:1018200080938A0028C084B5806884BD8FE787BD17
:1018300022C0809180008068809380008FE790E0D4
:10184000909389008093880016C08091B0008068D2
:101850008093B0008FE78093B3000DC08091B000FB
:1018600080628093B0008FE78093B40004C060E092
:1018700089E00E9422080E94E107C2E0D0E083E0F4
:10188000E82EF12C0E9450098091EC029091ED021B
:101890008639910544F08091460390914703892B46
:1018A00071F485E70AC08C3491054CF480914603AD
:1018B00090914703892B19F484E60E94AA0780912E
:1018C000F6029091F702892B09F48DC080914603AE
:1018D00090914703892B09F095C0809104038130D2
:1018E00009F442C0823009F08DC06FEF7FEF85E0D0
:1018F00093E00E94200502E020E030E048EB51E058
:1019000068E270E08EE190E00E94780701E020E05C
:1019100030E048EC51E064E670E08CE390E00E9437
:10192000780720E030E047ED51E062E870E08CE3BA
:1019300090E00E94780720E030E04DEE51E060EA50
:1019400070E08CE390E00E94780720E030E049E00E
:1019500052E06EEB70E08CE390E00E947807F0922A
:101960004703E09246034EC06FEF7FEF85E093E0C0
:101970000E94200502E020E030E04CE251E068E205
:1019800070E089E190E00E94780701E020E030E01B
:101990004EE351E064E670E085E090E00E94780755
:1019A00020E030E043E651E06CE870E085E090E054
:1019B0000E94780720E030E045E851E060EA70E0FE
:1019C00085E090E00E94780720E030E043EA51E0B3
:1019D0006AEA70E085E090E00E947807D0934703C0
:1019E000C09346030FC08091F4029091F502892BB9
:1019F00049F080914603909147030297029710F4B3
:101A00000E94E1072FEF80E792E021508040904054
:101A1000E1F700C0000036CFE8EFF2E01382128257
:101A200088EE93E0A0E0B0E084839583A683B7833B
:101A300084E091E091838083E8E4F3E013821282F2
:101A400015821482A0E4B1E0B783A68360EF70E052
:101A50007187608717861686158614861386128608
:101A6000178A168A158A148A138A128A118A108A8A
:101A700010AA11AA12AA13AA81E084AB85AB17AAF7
:101A800016AA4FEF5FEF51AF40AF1092870310924D
:101A9000860315AE14AE13AE12AE26E131E03183EB
:101AA0002083E4E0F3E01482138216821582B0876B
:101AB000A78372876187108A178616861586148613
:101AC0001386108E178A168A158A148A138A128A28
:101AD000118A11AA12AA13AA14AA85AB86AB10AE5A
:101AE00017AA52AF41AF10924403109243031092D1
:101AF00042031092410314AE13AE32832183089542
:101B0000A29FB001B39FC001A39F700D811D11243E
:101B1000911DB29F700D811D1124911D08950E9489
:101B2000800D332312F48A1B9B0B0C94990D0E9499
:101B3000800DB7FF0895821B930B0895EE0FFF1FD2
:101B40000590F491E02D099481E090E0F8940C94D4
:061B5000A90DF894FFCF7F
:101B56000000000079044904A9041D0441042D0471
:101B66001E04000000005202DD06A904A804AC040D
:101B76008F0A8A0A56072D07D002BE02446F776E77
:101B86006D6F6E204869676873636F72650074686D
:101B9600726F77206E6577204E6F74496D706C6535
:101BA6006D656E746564457863657074696F6E28DB
:101BB600293B004472756B206F70205A206F6D2090
:101BC6007465727567207465206761616E2C206B81
:101BD6006E756C2E002844652063726564697473A3
:101BE60020646F656E2068657420616C2077656C73
:101BF6002129002847612064616172206D6161724C
:101C0600206865656E2E2900446F776E6D6F6E20B5
:101C16004372656469747300427269616E202D2097
:101C260044696E67656E004A61636F62202D2041CC
:101C36006E646572652064696E67656E004E6565E3
:101C4600636F62202D204D65657220616E6465723A
:101C5600652064696E67656E005765736C657920EB
:101C66002D2044652072657374002D2D3E00446F4F
:101C7600776E6D6F6E20506F6B6573686F7700427D
:061C86006174746C65003E
:107E0000112484B714BE81FFF0D085E080938100F7
:107E100082E08093C00088E18093C10086E0809377
:107E2000C20080E18093C4008EE0C9D0259A86E02C
:107E300020E33CEF91E0309385002093840096BBD3
:107E4000B09BFECF1D9AA8958150A9F7CC24DD24C4
:107E500088248394B5E0AB2EA1E19A2EF3E0BF2EE7
:107E6000A2D0813461F49FD0082FAFD0023811F036
:107E7000013811F484E001C083E08DD089C08234E0
:107E800011F484E103C0853419F485E0A6D080C0E4
:107E9000853579F488D0E82EFF2485D0082F10E0AE
:107EA000102F00270E291F29000F111F8ED06801E7
:107EB0006FC0863521F484E090D080E0DECF843638
:107EC00009F040C070D06FD0082F6DD080E0C81688
:107ED00080E7D80618F4F601B7BEE895C0E0D1E017
:107EE00062D089930C17E1F7F0E0CF16F0E7DF06D8
:107EF00018F0F601B7BEE89568D007B600FCFDCFD4
:107F0000A601A0E0B1E02C9130E011968C91119780
:107F100090E0982F8827822B932B1296FA010C0160
:107F200087BEE89511244E5F5F4FF1E0A038BF0790
:107F300051F7F601A7BEE89507B600FCFDCF97BE46
:107F4000E89526C08437B1F42ED02DD0F82E2BD052
:107F50003CD0F601EF2C8F010F5F1F4F84911BD097
:107F6000EA94F801C1F70894C11CD11CFA94CF0C13
:107F7000D11C0EC0853739F428D08EE10CD085E9AC
:107F80000AD08FE07ACF813511F488E018D01DD067
:107F900080E101D065CF982F8091C00085FFFCCF94
:107FA0009093C60008958091C00087FFFCCF809118
:107FB000C00084FD01C0A8958091C6000895E0E648
:107FC000F0E098E1908380830895EDDF803219F02E
:107FD00088E0F5DFFFCF84E1DECF1F93182FE3DFCA
:107FE0001150E9F7F2DF1F91089580E0E8DFEE27F6
:047FF000FF270994CA
:027FFE00040479
:0400000300007E007B
:00000001FF