:100000000C9428020C9450020C9450020C94500250
:100010000C9450020C9450020C9450020C94500218
:100020000C9450020C9450020C9450020C94500208
:100030000C9450020C9450020C9450020C945002F8
:100040000C94290A0C9450020C9450020C94500207
:100050000C9450020C9450020C9450020C945002D8
:100060000C94E3050C9450024128D441CF830083C3
:100070003041ED846403128141E88385017941CBED
:1000800085392C00340241F7812041EA8200004189
:10009000C0812641C1811141C582353E41C781BE23
:1000A00041B182001B41F281084126810141E08F6C
:1000B0001F1A180A0F064587320A07020705004172
:1000C000E18F0025270510093A784D05180D383ABB
:1000D0001F41B6840A82270041B78107413A815502
:1000E000413681E8412A82000082013F412B820093
:1000F000008200EF4111FCFC4129D4FFFF00000009
:10010000000000000030787830300030006C6C6CFB
:1001100000000000006C6CFE6CFE6C6C00307CC05B
:10012000780CF8300000C6CC183066C600386C3841
:1001300076DCCC76006060C0000000000018306003
:100140006060301800603018181830600000663C9D
:10015000FF3C660000003030FC3030000000000042
:100160000000703060000000FC0000000000000093
:100170000000303000060C183060C0800078CCDC05
:10018000FCECCC780030F030303030FC0078CC0C17
:100190003860CCFC0078CC0C380CCC78001C3C6C63
:1001A000CCFE0C0C00FCC0F80C0CCC78003860C005
:1001B000F8CCCC7800FCCC0C183060600078CCCC4B
:1001C00078CCCC780078CCCC7C0C18700000003057
:1001D0003000303000000030300070306018306087
:1001E000C0603018000000FC00FC00000060301807
:1001F0000C1830600078CC0C18300030007CC6DE63
:10020000DEDEC078003078CCCCFCCCCC00FC66665E
:100210007C6666FC003C66C0C0C0663C00FC6C6648
:1002200066666CFC00FE6268786862FE00FE6268CA
:10023000786860F0003C66C0C0CE663E00CCCCCC96
:10024000FCCCCCCC0078303030303078001E0C0C38
:100250000CCCCC7800E6666C786C66E600F06060EA
:10026000606266FE00C6EEFED6C6C6C600C6E6F6EC
:10027000DECEC6C600386CC6C6C66C3800FC6666E4
:100280007C6060F00078CCCCCCDC781C00FC66662E
:100290007C786CE60078CCE0381CCC7800FCB4307C
:1002A0003030307800CCCCCCCCCCCCFC00CCCCCC1E
:1002B000CCCC783000C6C6C6D6FEEEC600C6C66C2C
:1002C000386CC6C600CCCCCC7830307800FECC98E8
:1002D0003062C6FE007860606060607800C06030A8
:1002E000180C060200781818181818780010386CC6
:1002F000C60000000000000000000000FF303018C1
:1003000000000000000000780C7CCC7600E0607CEF
:10031000666666BC00000078CCC0CC78001C0C0C73
:100320007CCCCC7600000078CCFCC07800386C60C7
:10033000F06060F000000076CCCC7C0CF8E0606CE3
:10034000766666E60030007030303078001800784D
:10035000181818D870E060666C786CE60070303061
:1003600030303078000000ECFED6C6C6000000F841
:10037000CCCCCCCC00000078CCCCCC78000000DC1D
:1003800066667C60F0000076CCCC7C0C1E0000D849
:100390006C6C60F00000007CC0780CF80010307CC1
:1003A00030303418000000CCCCCCCC76000000CC2F
:1003B000CCCC7830000000C6C6D6FE6C000000C66B
:1003C0006C386CC6000000CCCCCC7C0CF80000FC77
:1003D000983064FC001C3030E030301C00181818D5
:1003E0000018181800E030301C3030E00076DC00D7
:1003F000000000000010386CC6C6C6FE00000000F9
:1004000000240027002A0000000000250028002BFF
:1004100000040404040404040402020202020203AD
:1004200003030303030102040810204080010204B7
:10043000081020010204081020000000080002013A
:100440000000030407000000000000000000AC0CE6
:1004500011241FBECFEFD8E0DEBFCDBF23E0A6EB57
:10046000B1E001C01D92A331B207E1F711E0A0E0B5
:10047000B1E0E6E9FAE102C005900D92A63BB107B2
:10048000D9F712E0C8E2D2E004C02197FE010E9431
:100490003E0DC732D107C9F70E94B60A0C94490D28
:1004A0000C940000CF92EF92FF920F931F93CF9383
:1004B000DF93EC01262F6A3081F48EAD9FAD9BAFA8
:1004C0008AAF2CA92F778CAD9DAD38E0239F800D8E
:1004D000911D11249DAF8CAF47C0862F8B7F893033
:1004E00009F442C06AAD7BAD203219F46115710583
:1004F000D9F1E881F981E8ACF9AC0EA91FA94CAD9E
:100500005DAD0488F589E02DCCA8CE010995BC012C
:100510009BAF8AAF8DA9882339F12CA92F77822F21
:1005200090E048EF4203900111244E815F81420F19
:10053000531F46175707C4F44EAD5FAD5BAF4AAFCC
:1005400043E0880F991F4A95E1F74CAD5DAD840FEC
:10055000951F9DAF8CAF48855985240F351F2817EF
:10056000390714F41DAE1CAE81E090E0DF91CF910D
:100570001F910F91FF90EF90CF900895CF92EF923F
:10058000FF920F931F93DC01ED91FC910288F38998
:10059000E02D09951F910F91FF90EF90CF90089556
:1005A0002F923F924F925F926F927F928F929F9283
:1005B000AF92BF92CF92DF92EF92FF920F931F9371
:1005C000CF93DF9300D01F92CDB7DEB79B838A8392
:1005D000480188E0280290011124D901A350B040BD
:1005E0005D01BC2DBF77CB2EEA81FB81868197818F
:1005F000F1E0FB1708F463C06B0128E0C20ED11CC8
:100600008C159D050CF46EC0AA81BB811896ED91E6
:10061000FC9119979A01285F3F4FE217F3070CF4FA
:1006200061C0AA81BB81ED91FC9111978A01095F9C
:100630001F4F9B01295F3F4F0284F385E02DCD01C1
:100640000995AA81BB81ED91FC9111970484F585F0
:10065000E02DCD0109958501085F1F4FF5014490FC
:10066000FFEFAF1ABF0A98E0692E712C20E8522ED6
:10067000AA81BB81ED91FC911197852D842106847F
:10068000F785E02D882319F0B401CD0103C0B7012F
:100690008A819B8109955694B1E06B1A710841F7E4
:1006A000A016B106D9F6AA81BB81ED91FC911197F4
:1006B0000088F189E02DCD010995C60176C0B8E02A
:1006C000CB9E800111243B01600E711E861597059B
:1006D0004CF0040F151FEA81FB812085318520171E
:1006E000310714F4019661C0AA81BB81ED91FC91A0
:1006F0001197015011090284F385E02D93012150D7
:100700003109CD010995AA81BB81ED91FC91119729
:100710000484F585E02DCD0109952501B8E04B0E47
:10072000511CF5012490FFEFAF1ABF0A3C2C08E0E2
:1007300010E080E8D82E8D2D82212C2DA1F0AA81E9
:10074000BB81ED91FC9111970684F785E02DB401F2
:10075000CD01298309952981215089F7D69401502B
:10076000110949F710C0AA81BB81ED91FC91119745
:100770000684F785E02DB701CD01298309952981EC
:10078000215089F7EBCF3A943110D1CFA414B5049E
:1007900009F0C7CFAA81BB81ED91FC911197008828
:1007A000F189E02DCD010995C3010F900F900F90B5
:1007B000DF91CF911F910F91FF90EF90DF90CF903D
:1007C000BF90AF909F908F907F906F905F904F9071
:1007D0003F902F90089585ED8093BC008091BC00E0
:1007E00084FDFCCF1092460208954091D901262F36
:1007F00030E0240F311D21323105DCF42091460216
:100800002430C9F4FC0180E090E0861758F4309160
:10081000D9012191DC01A954BE4FA30FB11D2C9326
:100820000196F3CF8091D901680F6093D90180E0E0
:10083000089581E0089582E008950895E091FF0110
:100840008091FE01E81730F4F0E0E050FE4F808127
:1008500090E008958FEF9FEF08959091FF018091B0
:10086000FE01981750F4E92FF0E0E050FE4F208190
:1008700030E09F5F9093FF0102C02FEF3FEFC9016F
:1008800008958091FE0190E02091FF01821B910963
:100890000895CF92DF92EF92FF920F931F93CF9321
:1008A000DF937C01262F972F8A018091690288238C
:1008B00091F0C62FD72F6E01C40ED51ECC15DD05C5
:1008C00071F06991D701ED91FC910190F081E02DDB
:1008D000C7010995F3CF642F822F0E94F503C80149
:1008E000DF91CF911F910F91FF90EF90DF90CF900C
:1008F0000895CF93DF931F92CDB7DEB76983209120
:1009000069022223D1F020916702203240F021E0D9
:1009100030E0FC013383228380E090E015C08091B9
:100920006802E82FF0E0E95BFD4F998190838F5FCB
:10093000809368028093670205C061E0CE01019652
:100940000E94F50381E090E00F90DF91CF91089530
:10095000089580E090E008956CE20E94A70A5F98F5
:100960000895AF92BF92CF92DF92EF92FF920F93D2
:100970001F93CF93DF93EC015B017A0169016AE277
:100980000E94A70AB501CE010E94820AB601CE01DB
:100990000E94820A6BE2CE010E94A70AB701CE0133
:1009A0000E94820AB801CE01DF91CF911F910F9171
:1009B000FF90EF90DF90CF90BF90AF900C94820AA1
:1009C0000F931F93CF93DF93EC016930710519F0FA
:1009D0006A35710571F48AE590E09D838C8380EF20
:1009E00090E09F838E8380E491E09987888718E464
:1009F00034C06231710519F0643B710571F484EB08
:100A000090E09D838C8380E491E09F838E8380EFD0
:100A100090E09987888718E320C06B31710521F039
:100A20007E7F6E30710571F48EE091E09D838C8342
:100A300080EF90E09F838E8380E491E099878887A0
:100A400018E80BC01D821C8280E491E09F838E8396
:100A500080EF90E09987888718EE66E3CE010E94C8
:100A6000A70A612FCE010E94730AE881F9810885E7
:100A70001985015011092E813F81215031090284CD
:100A8000F385E02D40E050E060E070E0CE01099594
:100A9000DF91CF911F910F9108958EBD00000DB48D
:100AA00007FEFDCF8EB508958F929F92AF92BF92B1
:100AB000EF92FF920F931F93CF93DF93EC017B0193
:100AC000E881F98108851985015011092E813F813E
:100AD000215031090284F385E02D40E050E060E0D0
:100AE00070E00995E881F9810484F585E02DCE0157
:100AF0000995AE81BF81288539850E942F0D4B0154
:100B00005C0183E0B694A794979487948A95D1F773
:100B1000E881F98181149104A104B10409F444C06D
:100B20000684F785E02DB701CE010995E881F981AA
:100B30000684F785E02DB701CE010995E881F9819A
:100B40000684F785E02DB701CE010995E881F9818A
:100B50000684F785E02DB701CE010995E881F9817A
:100B60000684F785E02DB701CE010995E881F9816A
:100B70000684F785E02DB701CE010995E881F9815A
:100B80000684F785E02DB701CE010995E881F9814A
:100B90000684F785E02DB701CE01099581E0881A1A
:100BA0009108A108B108B4CF0088F189E02DCE01E9
:100BB000DF91CF911F910F91FF90EF90BF90AF9079
:100BC0009F908F9009941F920F920FB60F9211244D
:100BD0002F933F934F935F936F937F938F939F9345
:100BE000AF93BF93EF93FF938091B900887F8036D6
:100BF00009F49CC068F5883209F45BC090F4803138
:100C000009F454C038F4882309F4F6C0883009F494
:100C10004DC0F6C0883109F44CC0803209F45DC083
:100C2000EFC0803409F468C048F4803309F455C03B
:100C3000883309F0E5C080934402D8C0803509F4B8
:100C40004FC0883509F45DC0883409F0D9C0D6C0DA
:100C5000883909F4C7C0A8F4883709F467C038F4A4
:100C6000883609F463C0803709F460C0C9C0883889
:100C700009F4B8C0803909F45FC0803809F0C0C0F9
:100C80005BC0803B09F486C038F4803A09F466C042
:100C9000883A09F47FC0B4C0803C09F4A7C0883CFE
:100CA00009F4A4C0883B09F48AC0AAC0809121023B
:100CB00010C09091430280914202981770F5E09124
:100CC000430281E08E0F80934302F0E0EE5DFD4F22
:100CD00080818093BB0085EC86C0809344028EC0E7
:100CE000E091430281E08E0F809343028091BB002C
:100CF000F0E0EE5DFD4F80839091430280914202CF
:100D00006EC0E091430281E08E0F80934302809198
:100D1000BB00F0E0EE5DFD4F8083809145028111C4
:100D20006DC081E08093200284EA61C083E08093FB
:100D300046021092FD01CFCF8091FD01803208F074
:100D400051C0E091FD0181E08E0F8093FD01809103
:100D5000BB00F0E0E352FE4F8083BDCF85EC809373
:100D6000BC00109246028091FD01803230F4E09187
:100D7000FD01F0E0E352FE4F10826091FD0170E052
:100D8000E091DB01F091DC018DED91E0099510928D
:100D9000FD0136C084E0809346021092DA01109281
:100DA000D901E091D701F091D80109958091D9013D
:100DB000811105C081E08093D9011092B701E091C3
:100DC000DA0181E08E0F8093DA01F0E0E954FE4F02
:100DD00080818093BB009091DA018091D9019817AE
:100DE00008F479CF85E88093BC000AC085EC809335
:100DF000BC001092460204C0109244020E94EB0311
:100E0000FF91EF91BF91AF919F918F917F916F91E2
:100E10005F914F913F912F910F900FBE0F901F90B8
:100E20001895CF92DF92EF92FF920F931F93CF937B
:100E3000DF936C017A018B01C0E0D0E0CE15DF05B5
:100E400089F0D8016D918D01D601ED91FC91019051
:100E5000F081E02DC6010995892B11F47E0102C0B5
:100E60002196ECCFC701DF91CF911F910F91FF9099
:100E7000EF90DF90CF9008953FB7F89480910E03E4
:100E800090910F03A0911003B091110326B5A89B78
:100E900005C02F3F19F00196A11DB11D3FBFBA2F0C
:100EA000A92F982F8827820F911DA11DB11DBC016C
:100EB000CD0142E0660F771F881F991F4A95D1F731
:100EC00008955F9A08950E94440DCF93DF931F9277
:100ED000CDB7DEB7872F2B9A2D989CB59F7B9CBDF5
:100EE0002D9A9CB590649CBD69830E944D052B9AF8
:100EF0002D989CB59F7B9CBD2D9A9CB590649CBD04
:100F00006981862F0F90DF91CF910C944D058F92C0
:100F10009F92AF92BF92CF92DF92EF92FF920F9388
:100F20001F93CF93DF935B014901D02EEA012991F2
:100F3000222391F0CD2CEE24EA94FE2C8401A5010D
:100F4000BC0185E892E00E94D00220918B02309192
:100F50008C02281739075CF7DF91CF911F910F9111
:100F6000FF90EF90DF90CF90BF90AF909F908F90C9
:100F700008950F93CF93C82F6091840288E2689FF1
:100F8000B00111246C597F4F01E02FEF3FEF4EE885
:100F900051E084E690E00E94870790918402C53773
:100FA00021F4992349F0915005C0C43629F49230B8
:100FB00019F09F5F909384026091840288E2689F99
:100FC000B00111246C597F4F01E020E030E04EE881
:100FD00051E084E690E00E948707CF910F91089539
:100FE0000F931092C7021092C6026FEF7FEF85E851
:100FF00092E00E94540502E020E030E042E951E036
:1010000068E270E08EE190E00E94870701E020E056
:1010100030E043EA51E064E670E082E890E00E944C
:10102000870720E030E04AEA51E06CE870E082E8AF
:1010300090E00E94870720E030E044E351E064EB59
:1010400070E082E890E00E94870780E00F910C94A6
:10105000B90790E0FC01E75CFB4F3491FC01EB5DCC
:10106000FB4F2491FC01EF5EFB4FE491EE2309F46A
:101070003BC0332339F1333091F038F43130A9F0EB
:10108000323001F584B58F7D12C0373091F03830A1
:10109000A1F03430B9F4809180008F7D03C080913D
:1010A00080008F77809380000DC084B58F7784BDDA
:1010B00009C08091B0008F7703C08091B0008F7D10
:1010C0008093B000F0E0EE0FFF1FE95FFB4FA591AA
:1010D000B4918FB7F894EC91611103C020952E2341
:1010E00001C02E2B2C938FBF0895CF93DF9390E0F8
:1010F000FC01EB5DFB4F2491FC01EF5EFB4F849103
:10110000882361F190E0880F991FFC01E350FC4FA8
:10111000C591D491FC01E95FFB4FA591B491611198
:1011200009C09FB7F8948881209582238883EC9129
:101130002E230BC0623061F49FB7F8943881822F60
:10114000809583238883EC912E2B2C939FBF06C020
:101150008FB7F894E8812E2B28838FBFDF91CF9132
:1011600008958F929F92AF92BF92CF92DF92EF92AB
:10117000FF926B017C010E943C074B015C01C11492
:10118000D104E104F104F1F00E943C07DC01CB0141
:1011900088199909AA09BB09883E9340A105B105A0
:1011A00070F321E0C21AD108E108F10888EE880E38
:1011B00083E0981EA11CB11CC114D104E104F10408
:1011C00019F7DDCFFF90EF90DF90CF90BF90AF90F9
:1011D0009F908F900895CF93C82F81E080936902EC
:1011E00082E580931203109268021092670288E7EA
:1011F00092E00E9479046C2F88E792E00E947904C3
:1012000080916702813208F045C0909146029111A9
:10121000FCCF92E09093460291E0909345029FEFBD
:10122000909344021092430280934202A7E4B2E0FA
:1012300022E232E0F9019E2F921B981718F49D913B
:101240009193F9CF1092210280912102846A8093B8
:10125000210280912002813061F41092200280915D
:1012600021028093BB008091BC0083FDF8CF85EC08
:1012700001C085EE8093BC00809146028230E1F38C
:10128000809144028F3F31F080914402803211F00E
:1012900080914402109268021092670210926902D3
:1012A0006AE070E080E090E0CF910C94B108EF929A
:1012B000FF921F93CF93DF93CDB7DEB72C970FB676
:1012C000F894DEBF0FBECDBF809146028111FCCFE6
:1012D00081E080934602809345029FEF9093440201
:1012E0001092430295E090934202809321028091F4
:1012F0002102846A8093210280912002813061F46E
:1013000010922002809121028093BB008091BC004A
:1013100083FDF8CF85EC01C085EE8093BC00809101
:1013200046028130E1F380914302863018F4109137
:10133000430201C016E0A2E2B2E020E032E0F9018F
:101340008E2F821B811718F48D918193F9CF109203
:10135000FF011093FE01CE0101967C018091FF01F7
:10136000181749F088E792E00E942D04F701819355
:1013700091937F01F3CF89819A8190936B0280933F
:101380006A028B819C8190936D0280936C028B85A5
:101390009C859C013595279535952795A901437026
:1013A00055272D813E81220F331F220F331F242BFF
:1013B000352B30936F0220936E029C0174E03595BB
:1013C00027957A95E1F7A901437055272F81388534
:1013D000220F331F220F331F242B352B3093710222
:1013E000209370029C01F6E035952795FA95E1F778
:1013F000A9014370552729853A85220F331F220FF3
:10140000331F242B352B30937302209372029C01DF
:1014100021703327F1E02F27309375022093740257
:1014200021E030E081FF02C020E030E0309377021D
:101430002093760260E080E02C960FB6F894DEBF31
:101440000FBECDBFDF91CF911F91FF90EF900C9415
:10145000EB081F920F920FB60F9211242F933F9318
:101460008F939F93AF93BF9380910A0390910B0347
:10147000A0910C03B0910D033091090323E0230FD9
:101480002D3720F40196A11DB11D05C026E8230FBC
:101490000296A11DB11D2093090380930A03909326
:1014A0000B03A0930C03B0930D0380910E03909156
:1014B0000F03A0911003B09111030196A11DB11D5E
:1014C00080930E0390930F03A0931003B093110326
:1014D000BF91AF919F918F913F912F910F900FBE30
:1014E0000F901F901895862F5F982B9A2D989CB57A
:1014F0009F7B9CBD2D9A9CB590649CBD0E944D0520
:101500005F9A0895CF93DF931F92CDB7DEB7872FF1
:101510005F982B9A2D989CB59F7B9CBD2D9A9CB56E
:1015200090649CBD69830E944D052B9A2D989CB5B3
:101530009F7B9CBD2D9A9CB590649CBD6981862F34
:101540000E944D055F9A0F90DF91CF910895862FED
:101550005F982B982D989CB59F7B9CBD2D9A9CB530
:1015600090649CBD0E944D055F9A0895789484B55F
:10157000826084BD84B5816084BD85B5826085BD8F
:1015800085B5816085BD80916E00816080936E001D
:10159000109281008091810082608093810080910F
:1015A00081008160809381008091800081608093C0
:1015B00080008091B10084608093B1008091B00080
:1015C00081608093B00080917A00846080937A007B
:1015D00080917A00826080937A0080917A008160A5
:1015E00080937A0080917A00806880937A001092CC
:1015F000C1001092FF011092FE0110926802109239
:1016000067021092460281E0809345021092200208
:1016100061E082E10E94290861E083E10E942908DB
:101620008091B9008E7F8093B9008091B9008D7F41
:101630008093B90088E48093B80085E48093BC006F
:1016400060EF85E50E94EB086BEF80E00E94EB08FD
:101650000E94570961E088E00E947508289861E0BF
:1016600089E00E94750861E087E00E94750861E0EA
:101670008DE00E94750861E08BE00E94750860E0D3
:101680008CE00E94750829985F9A61E086E00E94CC
:1016900075085E9A109208038CB5837F8CBD8CB55B
:1016A0008F7D8CBDCFB7F8948091B601811127C092
:1016B000EBE1F4E08491EFE2F4E09491E82FF0E0C4
:1016C000EE0FFF1FE350FC4FA591B491EC91E9237D
:1016D00021F461E08AE00E94290861E08AE00E942A
:1016E00075088CB580618CBD8CB580648CBD61E063
:1016F0008DE00E94750861E08BE00E947508809182
:10170000B6018F5F8093B601CFBF8CB58C7F8160AF
:101710008CBD8DB581608DBD5F9A289862E370E0C5
:1017200080E090E00E94B108289A68E770E080E0CD
:1017300090E00E94B108E8E6F0E08F010F5F1F4FD4
:1017400064916F3FB1F1862F807C8038B9F0803C86
:1017500049F1803411F0F801F0CFC62FCF737F012B
:10176000DC2FFFEFEF1AFF0ADD23C9F0F7016491C8
:1017700088EC92E00E94A70AD150F3CFC62FCF7316
:101780007F01DC2FFFEFEF1AFF0ADD2341F0F701A5
:10179000649188EC92E00E94730AD150F3CF0C0F51
:1017A000111DD9CF6F7370E080E090E00E94B10806
:1017B000D2CF60E070E088EC92E00E9454058CB5D6
:1017C0008C7F8CBD8DB58E7F8DBD61E089E00E94E0
:1017D0007508E2E4F4E0E491E33019F150F4E1300B
:1017E000D1F0E230E1F584B5806284BD8FE788BD39
:1017F0003AC0E73011F1E83049F1E43081F58091E9
:1018000080008062809380008FE790E090938B004F
:1018100080938A0028C084B5806884BD8FE787BD27
:1018200022C0809180008068809380008FE790E0E4
:10183000909389008093880016C08091B0008068E2
:101840008093B0008FE78093B3000DC08091B0000B
:1018500080628093B0008FE78093B40004C060E0A2
:1018600089E00E9429080E94F007C3E0D0E00E94AE
:10187000570980916C0290916D028639910514F0A0
:1018800085E704C08C3491051CF484E60E94B907F6
:101890008091760290917702892B09F444C080915F
:1018A0008402823009F04EC06FEF7FEF85E892E04E
:1018B0000E94540502E020E030E04CE251E068E292
:1018C00070E08EE190E00E94870701E020E030E0C8
:1018D0004CE351E064E670E08CE390E00E948707FF
:1018E00020E030E04BE451E062E870E08CE390E00F
:1018F0000E94870720E030E041E651E060EA70E0B6
:101900008CE390E00E94870720E030E04DE751E053
:101910006EEB70E08CE390E00E948707D093C702E3
:10192000C093C6020FC08091740290917502892BFA
:1019300049F08091C6029091C7020297029710F475
:101940000E94F0072FEF80E792E021508040904006
:10195000E1F700C000008BCFE8E7F2E013821282CB
:1019600088EE93E0A0E0B0E084839583A683B783FC
:1019700084E091E091838083E8ECF2E013821282AC
:1019800015821482A0E4B1E0B783A68360EF70E013
:1019900071876087178616861586148613861286C9
:1019A000178A168A158A148A138A128A118A108A4B
:1019B00010AA11AA12AA13AA81E084AB85AB17AAB8
:1019C00016AA4FEF5FEF51AF40AF1092070310928E
:1019D000060315AE14AE13AE12AE26E131E031832C
:1019E0002083E4E8F2E01482138216821582B08725
:1019F000A78372876187108A1786168615861486D4
:101A00001386108E178A168A158A148A138A128AE8
:101A1000118A11AA12AA13AA14AA85AB86AB10AE1A
:101A200017AA52AF41AF1092C4021092C302109293
:101A3000C2021092C10214AE13AE32832183089504
:101A4000A29FB001B39FC001A39F700D811D1124FF
:101A5000911DB29F700D811D1124911D08950E944A
:101A6000200D332312F48A1B9B0B0C94390D0E941A
:101A7000200DB7FF0895821B930B0895EE0FFF1FF3
:101A80000590F491E02D099481E090E0F8940C9495
:061A9000490DF894FFCFA0
:101A96000000000079044904A9041D0441042D0432
:101AA6001E040000000052021107A904A804E00465
:101AB600B104AC0465076107D002BE02446F776EBD
:101AC6006D6F6E204372656469747300427269615A
:101AD6006E202D2044696E67656E004A61636F62F1
:101AE600202D20416E646572652064696E67656E9F
:101AF600004E6565636F62202D204D65657220611D
:101B06006E646572652064696E67656E00576573FD
:101B16006C6579202D2044652072657374002D2D27
:101B26003E00446F776E6D6F6E20506F6B65736805
:101B36006F7700426174746C650048696768736307
:061B46006F7265730000E0
:00000001FF
