:100000000C9428020C9450020C9450020C94500250
:100010000C9450020C9450020C9450020C94500218
:100020000C9450020C9450020C9450020C94500208
:100030000C9450020C9450020C9450020C945002F8
:100040000C949B0B0C9450020C9450020C94500294
:100050000C9450020C9450020C9450020C945002D8
:100060000C94CA060C9450024128D441CF830083DB
:100070003041ED846403128141E88385017941CBED
:1000800085392C00340241F7812041EA8200004189
:10009000C0812641C1811141C582353E41C781BE23
:1000A00041B182001B41F281084126810141E08F6C
:1000B0001F1A180A0F064587320A07020705004172
:1000C000E18F0025270510093A784D05180D383ABB
:1000D0001F41B6840A82270041B78107413A815502
:1000E000413681E8412A82000082013F412B820093
:1000F000008200EF4111FCFC4129D4FFFF00000009
:10010000000000000030787830300030006C6C6CFB
:1001100000000000006C6CFE6CFE6C6C00307CC05B
:10012000780CF8300000C6CC183066C600386C3841
:1001300076DCCC76006060C0000000000018306003
:100140006060301800603018181830600000663C9D
:10015000FF3C660000003030FC3030000000000042
:100160000000703060000000FC0000000000000093
:100170000000303000060C183060C0800078CCDC05
:10018000FCECCC780030F030303030FC0078CC0C17
:100190003860CCFC0078CC0C380CCC78001C3C6C63
:1001A000CCFE0C0C00FCC0F80C0CCC78003860C005
:1001B000F8CCCC7800FCCC0C183060600078CCCC4B
:1001C00078CCCC780078CCCC7C0C18700000003057
:1001D0003000303000000030300070306018306087
:1001E000C0603018000000FC00FC00000060301807
:1001F0000C1830600078CC0C18300030007CC6DE63
:10020000DEDEC078003078CCCCFCCCCC00FC66665E
:100210007C6666FC003C66C0C0C0663C00FC6C6648
:1002200066666CFC00FE6268786862FE00FE6268CA
:10023000786860F0003C66C0C0CE663E00CCCCCC96
:10024000FCCCCCCC0078303030303078001E0C0C38
:100250000CCCCC7800E6666C786C66E600F06060EA
:10026000606266FE00C6EEFED6C6C6C600C6E6F6EC
:10027000DECEC6C600386CC6C6C66C3800FC6666E4
:100280007C6060F00078CCCCCCDC781C00FC66662E
:100290007C786CE60078CCE0381CCC7800FCB4307C
:1002A0003030307800CCCCCCCCCCCCFC00CCCCCC1E
:1002B000CCCC783000C6C6C6D6FEEEC600C6C66C2C
:1002C000386CC6C600CCCCCC7830307800FECC98E8
:1002D0003062C6FE007860606060607800C06030A8
:1002E000180C060200781818181818780010386CC6
:1002F000C60000000000000000000000FF303018C1
:1003000000000000000000780C7CCC7600E0607CEF
:10031000666666BC00000078CCC0CC78001C0C0C73
:100320007CCCCC7600000078CCFCC07800386C60C7
:10033000F06060F000000076CCCC7C0CF8E0606CE3
:10034000766666E60030007030303078001800784D
:10035000181818D870E060666C786CE60070303061
:1003600030303078000000ECFED6C6C6000000F841
:10037000CCCCCCCC00000078CCCCCC78000000DC1D
:1003800066667C60F0000076CCCC7C0C1E0000D849
:100390006C6C60F00000007CC0780CF80010307CC1
:1003A00030303418000000CCCCCCCC76000000CC2F
:1003B000CCCC7830000000C6C6D6FE6C000000C66B
:1003C0006C386CC6000000CCCCCC7C0CF80000FC77
:1003D000983064FC001C3030E030301C00181818D5
:1003E0000018181800E030301C3030E00076DC00D7
:1003F000000000000010386CC6C6C6FE00000000F9
:1004000000240027002A0000000000250028002BFF
:1004100000040404040404040402020202020203AD
:1004200003030303030102040810204080010204B7
:10043000081020010204081020000000080002013A
:100440000000030407000000000000000000D10FBE
:1004500011241FBECFEFD8E0DEBFCDBF23E0A2E660
:10046000B2E001C01D92AF3BB207E1F712E0A0E09D
:10047000B1E0E8E2F0E202C005900D92A236B107C9
:10048000D9F712E0C8E2D2E004C02197FE010E9431
:100490000710C732D107C9F70E94D70C0C9412106D
:1004A0000C940000CF92EF92FF920F931F93CF9383
:1004B000DF93EC01262F6A3081F48EAD9FAD9BAFA8
:1004C0008AAF2CA92F778CAD9DAD38E0239F800D8E
:1004D000911D11249DAF8CAF47C0862F8B7F893033
:1004E00009F442C06AAD7BAD203219F46115710583
:1004F000D9F1E881F981E8ACF9AC0EA91FA94CAD9E
:100500005DAD0488F589E02DCCA8CE010995BC012C
:100510009BAF8AAF8DA9882339F12CA92F77822F21
:1005200090E048EF4203900111244E815F81420F19
:10053000531F46175707C4F44EAD5FAD5BAF4AAFCC
:1005400043E0880F991F4A95E1F74CAD5DAD840FEC
:10055000951F9DAF8CAF48855985240F351F2817EF
:10056000390714F41DAE1CAE81E090E0DF91CF910D
:100570001F910F91FF90EF90CF900895CF92EF923F
:10058000FF920F931F93DC01ED91FC910288F38998
:10059000E02D09951F910F91FF90EF90CF90089556
:1005A0002F923F924F925F926F927F928F929F9283
:1005B000AF92BF92CF92DF92EF92FF920F931F9371
:1005C000CF93DF9300D01F92CDB7DEB79B838A8392
:1005D000480188E0280290011124D901A350B040BD
:1005E0005D01BC2DBF77CB2EEA81FB81868197818F
:1005F000F1E0FB1708F463C06B0128E0C20ED11CC8
:100600008C159D050CF46EC0AA81BB811896ED91E6
:10061000FC9119979A01285F3F4FE217F3070CF4FA
:1006200061C0AA81BB81ED91FC9111978A01095F9C
:100630001F4F9B01295F3F4F0284F385E02DCD01C1
:100640000995AA81BB81ED91FC9111970484F585F0
:10065000E02DCD0109958501085F1F4FF5014490FC
:10066000FFEFAF1ABF0A98E0692E712C20E8522ED6
:10067000AA81BB81ED91FC911197852D842106847F
:10068000F785E02D882319F0B401CD0103C0B7012F
:100690008A819B8109955694B1E06B1A710841F7E4
:1006A000A016B106D9F6AA81BB81ED91FC911197F4
:1006B0000088F189E02DCD010995C60176C0B8E02A
:1006C000CB9E800111243B01600E711E861597059B
:1006D0004CF0040F151FEA81FB812085318520171E
:1006E000310714F4019661C0AA81BB81ED91FC91A0
:1006F0001197015011090284F385E02D93012150D7
:100700003109CD010995AA81BB81ED91FC91119729
:100710000484F585E02DCD0109952501B8E04B0E47
:10072000511CF5012490FFEFAF1ABF0A3C2C08E0E2
:1007300010E080E8D82E8D2D82212C2DA1F0AA81E9
:10074000BB81ED91FC9111970684F785E02DB401F2
:10075000CD01298309952981215089F7D69401502B
:10076000110949F710C0AA81BB81ED91FC91119745
:100770000684F785E02DB701CD01298309952981EC
:10078000215089F7EBCF3A943110D1CFA414B5049E
:1007900009F0C7CFAA81BB81ED91FC911197008828
:1007A000F189E02DCD010995C3010F900F900F90B5
:1007B000DF91CF911F910F91FF90EF90DF90CF903D
:1007C000BF90AF909F908F907F906F905F904F9071
:1007D0003F902F9008958091D90290E02091D80207
:1007E000821B9109089585ED8093BC008091BC0027
:1007F00084FDFCCF10920003089540919302262FB0
:1008000030E0240F311D21323105DCF4209100034A
:100810002430C9F4FC0180E090E0861758F4309150
:1008200093022191DC01AF58BD4FA30FB11D2C9352
:100830000196F3CF80919302680F6093930280E05A
:10084000089581E0089582E008950895E091D80226
:100850008091D902E81730F4F0E0E854FD4F808130
:1008600090E008958FEF9FEF08959091D8028091C6
:10087000D902981750F4E92FF0E0E854FD4F208199
:1008800030E09F5F9093D80202C02FEF3FEFC90185
:100890000895CF92DF92EF92FF920F931F93CF9321
:1008A000DF937C01262F972F8A01809101038823F3
:1008B00091F0C62FD72F6E01C40ED51ECC15DD05C5
:1008C00071F06991D701ED91FC910190F081E02DDB
:1008D000C7010995F3CF642F822F0E94FD03C80141
:1008E000DF91CF911F910F91FF90EF90DF90CF900C
:1008F0000895CF93DF931F92CDB7DEB76983209120
:1009000001032223D1F020912403203240F021E082
:1009100030E0FC013383228380E090E015C08091B9
:100920000203E82FF0E0ED5FFC4F998190838F5F29
:10093000809302038093240305C061E0CE010196F9
:100940000E94FD0381E090E00F90DF91CF91089528
:10095000089580E090E00895CF93C62F81E08093C2
:10096000010382E580932303109202031092240373
:10097000642F85E293E00E9479046C2F85E293E076
:100980000E94790480912403813208F045C090913F
:1009900000039111FCCF92E09093000391E09093BB
:1009A000FF029FEF9093FE021092FD028093FC02E3
:1009B000A3E0B3E02CED32E0F9019E2F921B9817D3
:1009C00018F49D919193F9CF1092DB028091DB0294
:1009D000846A8093DB028091DA02813061F41092A4
:1009E000DA028091DB028093BB008091BC0083FD22
:1009F000F8CF85EC01C085EE8093BC0080910003A8
:100A00008230E1F38091FE028F3F31F08091FE024F
:100A1000803211F08091FE021092020310922403A2
:100A2000109201036AE070E080E090E0CF910C94B6
:100A3000610BCF92DF92FF920F931F93CF93DF93BF
:100A4000CDB7DEB72C970FB6F894DEBF0FBECDBF83
:100A50008C01809100038111FCCF81E08093000321
:100A60008093FF029FEF9093FE021092FD0295E0AB
:100A70009093FC028093DB028091DB02846A809376
:100A8000DB028091DA02813061F41092DA02809107
:100A9000DB028093BB008091BC0083FDF8CF85EC26
:100AA00001C085EE8093BC00809100038130E1F3AA
:100AB0008091FD02863018F4F090FD0202C076E0CD
:100AC000F72EACEDB2E028EB32E0F9018E2F821B5D
:100AD0008F1518F48D918193F9CF1092D802F0926E
:100AE000D902CE0101966C018091D802F81649F026
:100AF00085E293E00E943504F601819391936F01A2
:100B0000F3CF89819A81F801918380838B819C81C5
:100B1000938382838B859C859C013595279535959C
:100B20002795A901437055272D813E81220F331F40
:100B3000220F331F242B352B358324839C0174E033
:100B4000359527957A95E1F7A901437055272F81AF
:100B50003885220F331F220F331F242B352B378369
:100B600026839C01B6E035952795BA95E1F7A90152
:100B70004370552729853A85220F331F220F331FD3
:100B8000242B352B318720879C0121703327F1E0FE
:100B90002F27F8013387228721E030E081FF02C050
:100BA00020E030E0F8013587248740E060E0C801AC
:100BB0002C960FB6F894DEBF0FBECDBFDF91CF915C
:100BC0001F910F91FF90DF90CF900C94AC04CF92C7
:100BD000DF92EF92FF920F931F93CF93DF93F62E46
:100BE000EC01CD5BDF4F48816C0122E0C20ED11CCD
:100BF00084E1489FA00111244C545F4FEE24E394FC
:100C00000FEF1FEF2CE231E06EEB70E0C6010E94A7
:100C1000370925E7F21205C08881882351F08150F9
:100C200007C084E6F81205C08881823011F08F5F1A
:100C30008883488124E1429FA00111244C545F4FD6
:100C4000EE24E39400E010E02CE231E06EEB70E083
:100C5000C6010E943709DF91CF911F910F91FF903C
:100C6000EF90DF90CF9008958EBD00000DB407FE89
:100C7000FDCF8EB508958F929F92AF92BF92EF9263
:100C8000FF920F931F93CF93DF93EC017B01E881D9
:100C9000F98108851985015011092E813F81215064
:100CA00031090284F385E02D40E050E060E070E01F
:100CB0000995E881F9810484F585E02DCE01099537
:100CC000AE81BF81288539850E94F80F4B015C01F8
:100CD00083E0B694A794979487948A95D1F7E88196
:100CE000F98181149104A104B10409F444C006847B
:100CF000F785E02DB701CE010995E881F9810684D9
:100D0000F785E02DB701CE010995E881F9810684C8
:100D1000F785E02DB701CE010995E881F9810684B8
:100D2000F785E02DB701CE010995E881F9810684A8
:100D3000F785E02DB701CE010995E881F981068498
:100D4000F785E02DB701CE010995E881F981068488
:100D5000F785E02DB701CE010995E881F981068478
:100D6000F785E02DB701CE01099581E0881A910839
:100D7000A108B108B4CF0088F189E02DCE01DF9140
:100D8000CF911F910F91FF90EF90BF90AF909F90E8
:100D90008F9009941F920F920FB60F9211242F93E8
:100DA0003F934F935F936F937F938F939F93AF93F3
:100DB000BF93EF93FF938091B900887F803609F449
:100DC0009CC068F5883209F45BC090F4803109F466
:100DD00054C038F4882309F4F6C0883009F44DC0B3
:100DE000F6C0883109F44CC0803209F45DC0EFC010
:100DF000803409F468C048F4803309F455C088335E
:100E000009F0E5C08093FE02D8C0803509F44FC0D8
:100E1000883509F45DC0883409F0D9C0D6C0883956
:100E200009F4C7C0A8F4883709F467C038F48836D5
:100E300009F463C0803709F460C0C9C0883809F478
:100E4000B8C0803909F45FC0803809F0C0C05BC009
:100E5000803B09F486C038F4803A09F466C0883AC9
:100E600009F47FC0B4C0803C09F4A7C0883C09F4F1
:100E7000A4C0883B09F48AC0AAC08091DB0210C0DC
:100E80009091FD028091FC02981770F5E091FD02AF
:100E900081E08E0F8093FD02F0E0E452FD4F8081EF
:100EA0008093BB0085EC86C08093FE028EC0E091EB
:100EB000FD0281E08E0F8093FD028091BB00F0E087
:100EC000E452FD4F80839091FD028091FC026EC040
:100ED000E091FD0281E08E0F8093FD028091BB00C6
:100EE000F0E0E452FD4F80838091FF0281116DC0DC
:100EF00081E08093DA0284EA61C083E0809300039A
:100F00001092B702CFCF8091B702803208F051C063
:100F1000E091B70281E08E0F8093B7028091BB0011
:100F2000F0E0E956FD4F8083BDCF85EC8093BC0097
:100F3000109200038091B702803230F4E091B70242
:100F4000F0E0E956FD4F10826091B70270E0E09149
:100F50009502F091960287E992E009951092B70206
:100F600036C084E0809300031092940210929302A2
:100F7000E0919102F0919202099580919302811182
:100F800005C081E08093930210927102E091940277
:100F900081E08E0F80939402F0E0EF58FD4F808146
:100FA0008093BB009091940280919302981708F46B
:100FB00079CF85E88093BC000AC085EC8093BC00A3
:100FC0001092000304C01092FE020E94F303FF91EE
:100FD000EF91BF91AF919F918F917F916F915F91B1
:100FE0004F913F912F910F900FBE0F901F9018952A
:100FF0000F931F93CF93DF93EC018E819F8168172E
:1010000079074CF5888599854817590724F5E881B3
:10101000F9810284F385E02D8A019B01CE010995B7
:10102000E881F9810484F585E02DCE010995E881F8
:10103000F9810684F785E02D60E070E0CE01099526
:10104000E881F9810088F189E02DCE01DF91CF910F
:101050001F910F910994DF91CF911F910F910895E6
:10106000CF92DF92EF92FF920F931F93CF93DF9374
:10107000EC01790168012E813F81621773071CF032
:10108000B9016150710988859985481759071CF085
:10109000AC0141505109FB01EE0DFF1DE217F307B2
:1010A0001CF07901E61AF70A9A012C0D3D1D28174C
:1010B00039071CF06C01C41AD50AE881F9818A014C
:1010C0000C0D1D1D015011099B012E0D3F1D2150BE
:1010D00031090284F385E02DCE010995E881F9817B
:1010E0000484F585E02DCE0109959601D7010E9473
:1010F000F80F6B017C01E881F981C114D104E1048E
:10110000F10469F00684F785E02D60E070E0CE011F
:10111000099581E0C81AD108E108F108ECCF0088F0
:10112000F189E02DCE01DF91CF911F910F91FF90BA
:10113000EF90DF90CF900994CF92DF92EF92FF92E1
:101140000F931F93CF93DF936C017A018B01C0E063
:10115000D0E0CE15DF0589F0D8016D918D01D60163
:10116000ED91FC910190F081E02DC6010995892B4C
:1011700011F47E0102C02196ECCFC701DF91CF911F
:101180001F910F91FF90EF90DF90CF9008953FB7A0
:10119000F8948091BB039091BC03A091BD03B091E2
:1011A000BE0326B5A89B05C02F3F19F00196A11DCF
:1011B000B11D3FBFBA2FA92F982F8827820F911DED
:1011C000A11DB11DBC01CD0142E0660F771F881F34
:1011D000991F4A95D1F708955F9A08950E940D10BE
:1011E000CF93DF931F92CDB7DEB7872F5F982B9AEF
:1011F0002D989CB59F7B9CBD2D9A9CB590649CBD01
:1012000069830E9434062B9A2D989CB59F7B9CBDC8
:101210002D9A9CB590649CBD6981862F0E943406EE
:101220005F9A0F90DF91CF910895CF93DF931F9234
:10123000CDB7DEB7872F2B9A2D989CB59F7B9CBD91
:101240002D9A9CB590649CBD69830E9434062B9AAC
:101250002D989CB59F7B9CBD2D9A9CB590649CBDA0
:101260006981862F0F90DF91CF910C9434066F9295
:101270007F928F929F92AF92BF92CF92DF92EF9226
:10128000FF920F931F93CF93DF935C014A013801C4
:10129000DE2CE90129912223A9F0D501ED91FC91E1
:1012A0000288F389E02DCD2CEE24EA94FE2C8301F4
:1012B000A401C5010995BC01F501868197818617B6
:1012C000970744F7CB01DF91CF911F910F91FF90CA
:1012D000EF90DF90CF90BF90AF909F908F907F90D6
:1012E0006F900895EF920F931F93CF93C82F409163
:1012F000330388E2489FA00111244C595F4FEE242C
:10130000E3940FEF1FEF2CE231E064E670E084E33A
:1013100093E00E94370990913303C53721F4992354
:1013200049F0915005C0C43629F4923019F09F5FFE
:10133000909333034091330388E2489FA001112426
:101340004C595F4FEE24E39400E010E02CE231E0D2
:1013500064E670E084E393E00E943709CF911F9127
:101360000F91EF900895EF920F931F931092320315
:10137000109231036FEF7FEF84E393E00E943B060E
:1013800082E0E82E00E010E02AE432E048E250E09B
:101390006EE170E084E393E00E943709EE24E39469
:1013A0002BE532E044E650E062E870E084E393E04D
:1013B0000E94370928E331E04CE850E062E870E031
:1013C00084E393E00E94370924EC31E044EB50E0E1
:1013D00062E870E084E393E00E9437098091310372
:1013E00090913203892B31F480E01F910F91EF909F
:1013F0000C9472091F910F91EF9008952F923F92D4
:101400004F925F926F927F928F929F92AF92BF9214
:10141000CF92DF92EF92FF920F931F93CF93DF93C0
:1014200000D000D000D0CDB7DEB76C017E836D83D5
:101430003A016417750751F401E010E025E531E049
:10144000AB0160E070E00E9430089AC0FC01E680C9
:10145000F7801E141F0424F087010150110902C0F7
:1014600000E010E0F601808591852D813E812817EE
:10147000390724F0FC013197FE83ED83F5E5EF1683
:10148000F1E0FF0624F421E0E21AF10804C024E5AB
:10149000E22EFF24F3946816790624F03C0131E033
:1014A000631A71084701801A910A53018D819E8148
:1014B000A81AB90A97FE06C09194819491082FEF5B
:1014C0003FEF02C021E030E03C832B83B7FE06C033
:1014D000B194A194B1082FEF3FEF02C021E030E0BA
:1014E0003A8329832401440C551C1501220C331C1A
:1014F0004D815E81B801C6010E94F807A814B904A5
:10150000FCF45101A818B9080E151F05C9F1B7FC64
:101510000AC08D819E8129813A81820F931F9E830B
:101520008D83A418B5082B813C81020F131FA20CD8
:10153000B31C4D815E81B801C6010E94F807E4CF5B
:101540007201EA18FB088D819E8186159705C1F00E
:10155000F7FC06C02B813C81020F131FE218F30831
:101560008D819E8129813A81820F931F9E838D8375
:10157000E40CF51CAC01B801C6010E94F807E3CFEA
:1015800026960FB6F894DEBF0FBECDBFDF91CF9188
:101590001F910F91FF90EF90DF90CF90BF90AF9091
:1015A0009F908F907F906F905F904F903F902F9083
:1015B000089590E0FC01E75CFB4F3491FC01EB5D8A
:1015C000FB4F2491FC01EF5EFB4FE491EE2309F405
:1015D0003BC0332339F1333091F038F43130A9F086
:1015E000323001F584B58F7D12C0373091F038303C
:1015F000A1F03430B9F4809180008F7D03C08091D8
:1016000080008F77809380000DC084B58F7784BD74
:1016100009C08091B0008F7703C08091B0008F7DAA
:101620008093B000F0E0EE0FFF1FE95FFB4FA59144
:10163000B4918FB7F894EC91611103C020952E23DB
:1016400001C02E2B2C938FBF0895CF93DF9390E092
:10165000FC01EB5DFB4F2491FC01EF5EFB4F84919D
:10166000882361F190E0880F991FFC01E350FC4F43
:10167000C591D491FC01E95FFB4FA591B491611133
:1016800009C09FB7F8948881209582238883EC91C4
:101690002E230BC0623061F49FB7F8943881822FFB
:1016A000809583238883EC912E2B2C939FBF06C0BB
:1016B0008FB7F894E8812E2B28838FBFDF91CF91CD
:1016C00008958F929F92AF92BF92CF92DF92EF9246
:1016D000FF926B017C010E94C7084B015C01C114A1
:1016E000D104E104F104F1F00E94C708DC01CB0150
:1016F00088199909AA09BB09883E9340A105B1053B
:1017000070F321E0C21AD108E108F10888EE880ED2
:1017100083E0981EA11CB11CC114D104E104F104A2
:1017200019F7DDCFFF90EF90DF90CF90BF90AF9093
:101730009F908F9008951F920F920FB60F921124D1
:101740002F933F938F939F93AF93BF938091B70352
:101750009091B803A091B903B091BA033091B60348
:1017600023E0230F2D3720F40196A11DB11D05C0E4
:1017700026E8230F0296A11DB11D2093B603809386
:10178000B7039093B803A093B903B093BA038091C1
:10179000BB039091BC03A091BD03B091BE03019621
:1017A000A11DB11D8093BB039093BC03A093BD0307
:1017B000B093BE03BF91AF919F918F913F912F91B5
:1017C0000F900FBE0F901F901895862F5F982B9A41
:1017D0002D989CB59F7B9CBD2D9A9CB590649CBD1B
:1017E0000E9434065F9A0895862F5F982B982D9853
:1017F0009CB59F7B9CBD2D9A9CB590649CBD0E941E
:1018000034065F9A08956CE20E94F40B5F98089585
:10181000AF92BF92CF92DF92EF92FF920F931F93FE
:10182000CF93DF93EC015B017A0169016AE20E94C8
:10183000F40BB501CE010E94F008B601CE010E9462
:10184000F0086BE2CE010E94F40BB701CE010E94BA
:10185000F008B801CE01DF91CF911F910F91FF9059
:10186000EF90DF90CF90BF90AF900C94F0080F9363
:101870001F93CF93DF93EC016930710519F06A353E
:10188000710571F48AE590E09D838C8380EF90E090
:101890009F838E8380E491E09987888718E434C021
:1018A0006231710519F0643B710571F484EB90E0CD
:1018B0009D838C8380E491E09F838E8380EF90E012
:1018C0009987888718E320C06B31710521F07E7FEE
:1018D0006E30710571F48EE091E09D838C8380EF12
:1018E00090E09F838E8380E491E09987888718E851
:1018F0000BC01D821C8280E491E09F838E8380EF69
:1019000090E09987888718EE66E3CE010E94F40B79
:10191000612FCE010E94E50BE881F98108851985C8
:10192000015011092E813F81215031090284F38534
:10193000E02D40E050E060E070E0CE010995DF91DD
:10194000CF911F910F910895FC011382128215828D
:10195000148280E491E09783868380EF90E0918702
:101960008087178616861586148613861286178A30
:10197000168A158A148A138A128A118A108A10AA62
:1019800011AA12AA13AA81E084AB85AB17AA16AAE2
:101990008FEF9FEF91AF80AF17AE16AE15AE14AEBE
:1019A00013AE12AE84E091E0918380830895CF93CB
:1019B000DF93CDB7DEB7C255D1090FB6F894DEBFBD
:1019C0000FBECDBF789484B5826084BD84B581603C
:1019D00084BD85B5826085BD85B5816085BD8091FA
:1019E0006E00816080936E00109281008091810072
:1019F000826080938100809181008160809381006A
:101A0000809180008160809380008091B10084602B
:101A10008093B1008091B00081608093B00080918C
:101A20007A00846080937A0080917A00826080934B
:101A30007A0080917A00816080937A0080917A00A8
:101A4000806880937A001092C1001092D8021092A0
:101A5000D90210920203109224031092000381E035
:101A60008093FF021092DA0261E082E10E94D90ABB
:101A700061E083E10E94D90A8091B9008E7F809352
:101A8000B9008091B9008D7F8093B90088E480937C
:101A9000B80085E48093BC0040EF65E583E692E002
:101AA0000E94AC044BEF60E083E692E00E94AC043D
:101AB00083E692E00E94190561E088E00E94250B10
:101AC000289861E089E00E94250B61E087E00E9490
:101AD000250B61E08DE00E94250B61E08BE00E9408
:101AE000250B60E08CE00E94250B29985F9A61E04D
:101AF00086E00E94250B5E9A1092B5038CB5837F19
:101B00008CBD8CB58F7D8CBD1FB7F894809162021F
:101B1000811127C0EBE1F4E08491EFE2F4E09491CD
:101B2000E82FF0E0EE0FFF1FE350FC4FA591B491BA
:101B3000EC91E92321F461E08AE00E94D90A61E096
:101B40008AE00E94250B8CB580618CBD8CB58064C9
:101B50008CBD61E08DE00E94250B61E08BE00E946E
:101B6000250B809162028F5F809362021FBF8CB54C
:101B70008C7F81608CBD8DB581608DBD5F9A28980A
:101B800062E370E080E090E00E94610B289A68E7D1
:101B900070E080E090E00E94610BE8E6F0E07F01F9
:101BA0002FEFE21AF20A64916F3FB1F1862F807C29
:101BB0008038B9F0803C49F1803411F0F701EFCF63
:101BC000162F1F736F01B12EFFEFCF1ADF0ABB2054
:101BD000C9F0F601649185E793E00E94F40BBA9492
:101BE000F3CF162F1F736F01B12EFFEFCF1ADF0A4D
:101BF000BB2041F0F601649185E793E00E94E50B7C
:101C0000BA94F3CFE10EF11CD9CF6F7370E080E08E
:101C100090E00E94610BD2CF60E070E085E793E036
:101C20000E943B068CB58C7F8CBD8DB58E7F8DBDA3
:101C300061E089E00E94250BE2E4F4E0E491E33006
:101C400019F150F4E130D1F0E230E1F584B5806271
:101C500084BD8FE788BD3AC0E73011F1E83049F123
:101C6000E43081F5809180008062809380008FE76E
:101C700090E090938B0080938A0028C084B58068A0
:101C800084BD8FE787BD22C08091800080688093EB
:101C900080008FE790E0909389008093880016C0C1
:101CA0008091B00080688093B0008FE78093B3008C
:101CB0000DC08091B00080628093B0008FE7809368
:101CC000B40004C060E089E00E94D90A0E94B30910
:101CD00022E0C22ED12CAA24A394B12C43E0842E5E
:101CE000912C83E692E00E94190580916502909103
:101CF00066028639910544F0809131039091320358
:101D0000892B71F485E70AC08C3491054CF48091DD
:101D1000310390913203892B19F484E60E947209F1
:101D200080916F0290917002892B09F421C18091FA
:101D3000310390913203892B09F094C080913303D1
:101D4000813009F44DC008F446C0823009F08AC0E1
:101D50006FEF7FEF84E393E00E943B0682E0E82E82
:101D600000E010E02CEB31E048E250E06EE170E082
:101D700084E393E00E943709EE24E3942CEC31E0F5
:101D800044E650E06CE370E084E393E00E9437099E
:101D90002BED31E042E850E06CE370E084E393E047
:101DA0000E94370921EF31E040EA50E06CE370E037
:101DB00084E393E00E9437092DE032E04EEB50E0DF
:101DC0006CE370E084E393E00E9437099092320361
:101DD0008092310347C0B0923203A092310342C0D7
:101DE0006FEF7FEF84E393E00E943B0692E0E92EE1
:101DF00000E010E020E331E048E250E069E170E00B
:101E000084E393E00E943709EE24E39422E431E076
:101E100044E650E065E070E084E393E00E94370917
:101E200027E631E04CE850E065E070E084E393E0C1
:101E30000E94370929E831E040EA50E065E070E0AF
:101E400084E393E00E94370927EA31E04AEA50E050
:101E500065E070E084E393E00E943709D09232039A
:101E6000C09231038091310390913203019709F0C0
:101E70008EC0CE0103960E94A40C8EE0E3E6F2E051
:101E8000DE01AB5BBF4F01900D928A95E1F76FEFDA
:101E90007FEFCE0103960E943B0645EA50E065EADB
:101EA00070E0CE0103960E94FE0946EA50E066EA21
:101EB00070E0CE0103960E94FE09EE24E39400E058
:101EC00010E02EE132E04FEA50E065E070E0CE0134
:101ED00003960E94370923E332E044EB50E06CEDB7
:101EE00070E0CE0103960E9437092AE332E048EC05
:101EF00050E06CED70E0CE0103960E94370921E4BA
:101F000032E04CED50E06CED70E0CE0103960E94A3
:101F100037091A82198260E0CE0101960E94E70516
:101F2000CE018B5B9F4F0E94190529968EAD9FAD08
:101F300029978639910534F089819A81892B71F42A
:101F400065E708C08C3491054CF489819A81892B0E
:101F500029F464E6CE0101960E94E7052FEF80E7A1
:101F600092E0215080409040E1F700C00000D8CFBF
:101F700080916D0290916E02892B49F0809131031E
:101F8000909132030297029710F40E94B309EFEF89
:101F9000F0E722E0E150F0402040E1F700C000000F
:101FA000A0CEE5E2F3E01382128288EE93E0A0E097
:101FB000B0E084839583A683B7838EE191E091831B
:101FC000808385E793E00E94A40C84E393E00C9463
:101FD000A40CA29FB001B39FC001A39F700D811DEF
:101FE0001124911DB29F700D811D1124911D089522
:101FF0000E94E90F332312F48A1B9B0B0C940210EE
:102000000E94E90FB7FF0895821B930B0895EE0F0E
:10201000FF1F0590F491E02D099481E090E0F89481
:082020000C941210F894FFCF9C
:102028000000000052029C08A904A804370C080C00
:10203800030C1509EC08D002BE0200000000790468
:102048004904A9042504EB03350426042D2D3E007C
:10205800446F776E6D6F6E204869676873636F723F
:1020680065007468726F77206E6577204E6F7449CB
:102078006D706C656D656E746564457863657074C4
:10208800696F6E28293B004472756B206F70205A67
:10209800206F6D20746572756720746520676161B3
:1020A8006E2C206B6E756C2E00284465206372655B
:1020B8006469747320646F656E2068657420616C50
:1020C8002077656C212900284761206461617220AE
:1020D8006D616172206865656E2E2900446F776EA8
:1020E8006D6F6E2043726564697473004272696132
:1020F8006E202D2044696E67656E004A61636F62C9
:10210800202D20416E646572652064696E67656E76
:10211800004E6565636F62202D204D6565722061F4
:102128006E646572652064696E67656E00576573D5
:102138006C6579202D20446520726573740057689A
:1021480061742077696C6C20256E616D652520644B
:102158006F3F0041747461636B00537769746368FF
:1021680000526167657175697400446F776E6D6FB1
:102178006E20506F6B6573686F7700426174746C82
:022188006500F0
:107E0000112484B714BE81FFF0D085E080938100F7
:107E100082E08093C00088E18093C10086E0809377
:107E2000C20080E18093C4008EE0C9D0259A86E02C
:107E300020E33CEF91E0309385002093840096BBD3
:107E4000B09BFECF1D9AA8958150A9F7CC24DD24C4
:107E500088248394B5E0AB2EA1E19A2EF3E0BF2EE7
:107E6000A2D0813461F49FD0082FAFD0023811F036
:107E7000013811F484E001C083E08DD089C08234E0
:107E800011F484E103C0853419F485E0A6D080C0E4
:107E9000853579F488D0E82EFF2485D0082F10E0AE
:107EA000102F00270E291F29000F111F8ED06801E7
:107EB0006FC0863521F484E090D080E0DECF843638
:107EC00009F040C070D06FD0082F6DD080E0C81688
:107ED00080E7D80618F4F601B7BEE895C0E0D1E017
:107EE00062D089930C17E1F7F0E0CF16F0E7DF06D8
:107EF00018F0F601B7BEE89568D007B600FCFDCFD4
:107F0000A601A0E0B1E02C9130E011968C91119780
:107F100090E0982F8827822B932B1296FA010C0160
:107F200087BEE89511244E5F5F4FF1E0A038BF0790
:107F300051F7F601A7BEE89507B600FCFDCF97BE46
:107F4000E89526C08437B1F42ED02DD0F82E2BD052
:107F50003CD0F601EF2C8F010F5F1F4F84911BD097
:107F6000EA94F801C1F70894C11CD11CFA94CF0C13
:107F7000D11C0EC0853739F428D08EE10CD085E9AC
:107F80000AD08FE07ACF813511F488E018D01DD067
:107F900080E101D065CF982F8091C00085FFFCCF94
:107FA0009093C60008958091C00087FFFCCF809118
:107FB000C00084FD01C0A8958091C6000895E0E648
:107FC000F0E098E1908380830895EDDF803219F02E
:107FD00088E0F5DFFFCF84E1DECF1F93182FE3DFCA
:107FE0001150E9F7F2DF1F91089580E0E8DFEE27F6
:047FF000FF270994CA
:027FFE00040479
:0400000300007E007B
:00000001FF